:020000041000EA
:10000000002008205D0100101301001015010010F0
:100010001101001011010010110100101101001058
:100020001101001011010010110100101701001042
:100030001101001011010010190100101B01001026
:100040001D0100101D0100101D0100101D010010F8
:100050001D0100101D0100101D0100101D010010E8
:100060001D0100101D0100101D0100101D010010D8
:100070001D0100101D0100101D0100101D010010C8
:100080001D0100101D0100101D0100101D010010B8
:100090001D0100101D0100101D0100101D010010A8
:1000A0001D0100101D0100101D0100101D01001098
:1000B0001D0100101D0100101D0100101D01001088
:1000C0001D0100101D0100101D0100101D01001078
:1000D0001D0100101D0100101D0100101D01001068
:1000E0001D0100101D0100101D0100101D01001058
:1000F0001D0100101D0100101D0100101D01001048
:100100001D0100101D0100101D0100101D01001037
:1001100000BE00BE00BE00BE00BE00BEEFF3058004
:10012000103800BEF2EB88717C730010A8730010C9
:10013000A801001090A31AE7D3DEFFFF42012110AF
:10014000FF01000024800000793512AB4FF0000061
:100150002049086006C881F3088810474FF05040D6
:10016000006810B14FF00000F2E70FA40ECC002998
:1001700002D000F015F8F9E71749184A002000E00E
:1001800001C19142FCD1002080F30A8814498847BC
:10019000144988471449884700BEFDE701C901C2D8
:1001A0009A42FBD3704700BFA873001010010020D3
:1001B000C40E00205C810010000008200000082010
:1001C0005C810010001008200010082000000000D2
:1001D0007047000008ED00E0C40E0020581B00200E
:1001E000053B001001030010FD3A0010F8B500BFF8
:1001F00010B5054C237833B9044B13B10448AFF361
:1002000000800123237010BD50100020000000006A
:100210004867001008B5034B1BB103490348AFF30F
:10022000008008BD00000000541000204867001046
:100230002DE9F0410E4684B02D21054600F012FB59
:100240001C210446284600F00DFB1D21804628464F
:1002500000F008FB2C210746284600F003FB03466C
:100260000E2128461D4600F0FDFA0097CDE9015009
:100270004346224631461B4803F0E2FDA7060CD454
:10028000E50610D4200714D4610718D4A2071CD4A3
:10029000E30720D404B0BDE8F0813146124803F0F2
:1002A000CFFDE506EED53146104803F0C9FD200725
:1002B000EAD531460E4803F0C3FD6107E6D5314665
:1002C0000C4803F0BDFDA207E2D531460A4803F011
:1002D000B7FDE307DED53146084804B0BDE8F0417C
:1002E00003F0AEBD486700108C670010A8670010CF
:1002F000C8670010E8670010086800102868001040
:100300002DE9F04F9FB003F011FD192000F048FFD8
:100310004FF00104192344EC44304FF0000242EC4A
:1003200040304FF4FA6001F05FFDA94803F010FD82
:10033000A84803F00DFDA84803F00AFDA74803F004
:1003400007FDA74803F004FDA14803F001FD00F0FC
:1003500055FAA44803F0FCFCA34803F0F9FC002084
:1003600000F072FBA0B90646A04803F0F1FC06219C
:100370009F4803F065FD2546192445EC4040642064
:1003800001F032FD46EC4040642001F02DFDF3E722
:100390000821984803F054FD974803F0D9FC012048
:1003A00000F052FB0646002800F0ED80082193483B
:1003B00003F046FD864803F0CBFC914803F0C8FCEF
:1003C000904803F0C5FC824803F0C2FC8E4800F060
:1003D00085FD8E4800F098FD42F601534FF0000C69
:1003E0000C228B488B498C4C01608C490382C0E9FC
:1003F00001418B498B4BC1608B49E2460B6003F195
:100400006B4303F6C1534B60884BE3468B600A7322
:10041000CDF814C000F050FDA0EB0A03632B074693
:10042000794DDFF84492794EDFF8408212AC07D95B
:100430007FE02146284600F00DFE002840F0B680FF
:100440002146002000F0ACFC0028F2D106E0214655
:10045000304600F041FE002840F0AF8021460120E8
:1004600000F09EFC0028F2D1A7EB0B03B3F57A7FD6
:1004700055D3574803F06CFC39466D4803F0E0FC57
:100480006C4A737B1168D8F80020002B00F09E8026
:10049000B37B002B00F09A80674B684803F0D0FCD8
:1004A000674AAB7C1168D9F80020002B00F08C80E3
:1004B000EB7C002B00F088802B7D002B00F08480EB
:1004C0005D4B604803F0BCFC2B7D5F490093EB7CE7
:1004D0005E48AA7C03F0B4FCAB7C002B40F0E480C7
:1004E000EB7C002B40F0C4802B7D002B40F0CD80B6
:1004F000B37B727B5649574803F0A2FC737B002BF9
:1005000040F0EA80B37B002B40F0D68000205249B7
:10051000FFF78EFE01205149FFF78AFEBB460520FA
:1005200001F062FC00F0C8FCA0EB0A03632B074655
:1005300086D9059B83F001031A460593192342ECE3
:1005400040303348214600F0EDFCA24651460120E0
:1005500000F032FB18B13A4A1368013313604FF4CC
:10056000FA70002101F028FC06E0284606A900F0F8
:1005700071FD002840F01181002006A900F010FC58
:100580000028F2D1BAE0364803F0E2FB0E21184809
:1005900003F056FC192544EC4050642001F024FC83
:1005A00046EC4050642001F01FFCF3E7D9F800301E
:1005B000AF610133C9F8003042E7D8F80030376145
:1005C0000133C8F8003049E7264B7AE7254B64E74A
:1005D000E06A00104C6800101069001058690010A3
:1005E000A0690010646A0010806A0010BC6A0010E4
:1005F000E46A00101C6B00104C6B0010B06B001014
:10060000E06B0010286C0010B4160020A01600202B
:10061000E0160020012C019201641E0A05900102DF
:100620006301640001F4017DD0160020015F05FF25
:10063000646C001094160020406800109C6C001040
:100640009C160020D46C00100C6D0010186D00106A
:10065000206E00102C6E0010FC6E0010046F001055
:10066000886B001044680010901600209816002037
:10067000B5F8093057490093EB79AA79564803F049
:10068000DFFB2B7D002B3FF433AF6B7C5149039391
:100690002B7C52480293EB7B0193AB7B0093AB899D
:1006A000EA7A03F0CDFB23E76B79B5F803204949DB
:1006B0004B4803F0C5FB13E7337B4A490393F37AB6
:1006C00049480293B37A0193737A0093B6F80730DE
:1006D000B27903F0B5FB19E7B38842490193F37887
:1006E00042480093B6F80130327803F0A9FB09E7DD
:1006F000304606A900F0F0FC002855D1012006A9DB
:1007000000F04EFB0028F3D10AF1100A1EAB53454E
:100710007FF41CAF36480AA900F064FC0DF1280AEA
:100720005146002000F048FA18B1324A13680133EC
:1007300013604FF4FA70002101F03EFB05E02846FB
:1007400006A900F087FC002835D1002006A900F09A
:1007500027FB0028F3D104E0304606A900F0BCFCDA
:1007600080BB012006A900F01BFB0028F4D10AF190
:10077000100A5445D4D1204ABA46537C0133DBB227
:10078000652B28BF00235374194A537A0133DBB217
:100790007E2B28BF0023537252E6D9F80030AF6198
:1007A0000133C9F80030E7E6D8F80030376101338B
:1007B000C8F80030A2E7D9F80030AF610133C9F8BA
:1007C0000030C2E7D8F8003037610133C8F8003094
:1007D000C7E700BF0C6D0010846D0010C06D0010E5
:1007E000546D0010206E0010A06E0010586E0010A6
:1007F000D016002094160020E016002038B50F20F7
:1008000000F0CEFC4FF001050F2345EC44304FF0D3
:10081000000444EC4030102000F0C2FC102044ECF6
:1008200044000022012100F0A7FC112000F0B8FCD8
:10083000112044EC44000022012100F09DFC122014
:1008400000F0AEFC122044EC44000022012100F034
:1008500093FC132000F0A4FC132345EC443045EC3A
:10086000403038BDF0B5244B83B003EB00160027B1
:100870000D46F279000147EC402000BF00BF00BFE9
:1008800000BF00BF00BF00BF00BF00BF00BF4FF0F0
:10089000030C1C580DF107020DF10601012320463F
:1008A0008DF806C005F014FF0DF107020DF10601E9
:1008B000012320468DF8065005F00AFF012320464B
:1008C0000DF107020DF106018DF8067005F000FF2D
:1008D0009DF8070000BF00BF00BF00BF00BF00BF02
:1008E00000BF00BF00BF00BF4FF00102F37942EC30
:1008F000403003B0F0BD00BFF4700010F0B5244BE1
:1009000083B003EB001714464FF000050E46FA794A
:10091000000145EC402000BF00BF00BF00BF00BF8A
:1009200000BF00BF00BF00BF00BF4FF0020C1D584A
:100930000DF107020DF10601012328468DF806C0CE
:1009400005F0C6FE0DF107020DF106010123284650
:100950008DF8066005F0BCFE012328460DF1070264
:100960000DF106018DF8064005F0B2FE00BF00BF94
:1009700000BF00BF00BF00BF00BF00BF00BF00BF7F
:100980004FF00102FB7942EC403003B0F0BD00BFF4
:10099000F47000102DE9F0412A4D82B005EB0014EF
:1009A0001E464FF0000E88461746E3794FEA001CBA
:1009B0004EEC403000BF00BF00BF00BF00BF00BF13
:1009C00000BF00BF00BF00BF052355F80C508DF8D5
:1009D00006300DF107020DF106010123284605F04E
:1009E00077FE0DF107020DF10601012328468DF86F
:1009F000068005F06DFE0DF107020DF106010123E1
:100A000028468DF8067005F063FE012328460DF197
:100A100007020DF106018DF8066005F059FE00BFD2
:100A200000BF00BF00BF00BF00BF00BF00BF00BFCE
:100A300000BF4FF00102E37942EC403002B0BDE864
:100A4000F08100BFF47000102DE9F043594E0546C7
:100A500006EB001898F8074083B04FEA00192046CB
:100A600000F09EFB4FF0010747EC444047EC40404C
:100A7000012198F8040000F061FB98F805000121BD
:100A800000F05CFB98F80600012100F057FB56F8D7
:100A90000960D8F80C10304605F0DAFC33464FF008
:100AA000020E53F8041F06F5805C03F54052C2F8AD
:100AB00000E0326801EA0E0182F0070203F50053FC
:100AC00002F0CF02CCF800204FF00000196040EC9B
:100AD000404000BF00BF00BF00BF00BF00BF00BF5D
:100AE00000BF00BF00BF4FF0C00C304601230DF126
:100AF00007020DF106018DF806C005F0E9FD00BF03
:100B000000BF00BF00BF00BF00BF00BF00BF00BFED
:100B100000BF47EC4040052001F066F90E21284651
:100B2000FFF7A0FE00F0E000802803D0002003B013
:100B3000BDE8F08300222A212846FFF7DFFE91223C
:100B400029212846FFF7DAFE012228212846FFF74F
:100B5000D5FE642260212846FFF7D0FE6022702176
:100B60002846FFF7CBFEA3222B212846FFF7C6FE1F
:100B700000222C212846FFF7C1FE00222D21284605
:100B8000FFF7BCFE0023E0220F212846FFF702FFFB
:100B9000642403E001F028F9013CC7D00E21284667
:100BA000FFF760FE1F284FF00100F3D803B0BDE847
:100BB000F08300BFF47000102DE9F04F0D4683B0B4
:100BC00030218046FFF74EFE10F0080403D00020CD
:100BD00003B0BDE8F08FDFF8C4914FEA081A09EBC3
:100BE00008182E6898F8073044EC403000BF00BF6A
:100BF00000BF00BF00BF00BF00BF00BF00BF00BFFD
:100C0000022359F80A708DF806300DF1070201230E
:100C10000DF10601384605F05BFD31230DF10702A9
:100C20008DF806300DF106010123384605F050FD20
:100C3000F20801238DF806200DF106010DF10702DF
:100C4000384605F045FD760101230DF107020DF14F
:100C5000060138468DF8066005F03AFD01230DF1D6
:100C600007020DF1060138468DF8064005F030FD0B
:100C700001230DF107020DF1060138468DF80640FB
:100C800005F026FD2A7901238DF8062038460DF15E
:100C900007020DF1060105F01BFD2B79002B7AD020
:100CA0002E1D344616F8012F01238DF806203846F4
:100CB0000DF107020DF1060105F00AFD033C95F860
:100CC00004B0641BA345ECDCBBF1070F0FDC002470
:100CD000012338460DF107020DF106010BF1010B5E
:100CE0008DF8064005F0F4FCBBF1080FF0D100BF11
:100CF00000BF00BF00BF00BF00BF00BF00BF00BFFC
:100D000000BF09EB0A034FF00106DD7946EC4050C5
:100D10004FF0000298F8073042EC403000BF00BFAF
:100D200000BF00BF00BF00BF00BF00BF00BF00BFCB
:100D3000022359F80A408DF806300DF107020DF133
:100D400006010123204605F0C3FC30230DF1070204
:100D50008DF806300DF106010123204605F0B8FCA0
:100D6000082320468DF806300DF1070201230DF10E
:100D7000060105F0ADFC00BF00BF00BF00BF00BF13
:100D800000BF00BF00BF00BF00BF46EC40500120C5
:100D900003B0BDE8F08F9B4699E700BFF4700010E8
:100DA0002DE9F04F894689B02C218046FFF75AFD86
:100DB00010F003037AD010F00102019208BF022262
:100DC000DFF8F0A008BF01920AEB08134FEA081BF6
:100DD00014BF61247124DB794FF0000242EC4030F3
:100DE00000BF00BF00BF00BF00BF00BF00BF00BF0B
:100DF00000BF00BF03235AF80B508DF80F3004AA30
:100E000001230DF10F01284605F062FC012328465D
:100E100004AA0DF10F018DF80F40002705F058FCD2
:100E200004AC0DF11D06012328460DF10F020DF152
:100E30000E018DF80E7005F04BFC9DF80F3004F894
:100E4000013BB442EFD100BF00BF00BF00BF00BFF5
:100E500000BF00BF00BF00BF00BFDA444FF0010277
:100E60009AF8073042EC40309DF814209DF811307C
:100E700002F00F02082A28BF08229DF810105B0913
:100E800043EAC103C9F800300DF1150189F80420C7
:100E900009F1050005F062FB404600232C21019A70
:100EA000FFF778FD012009B0BDE8F08F184609B0C2
:100EB000BDE8F08FF470001008B501F02FF829B1EB
:100EC0004FF47A72002305F0FBFB08BD024AA2FB37
:100ED0000020800908BD00BFD34D621000B500237B
:100EE0004FF6647CFF2102224FF0080E43608360BE
:100EF0000361036080F810E0C36043618361A0F880
:100F000005C0C171C27200BD002302214FF6FF72FD
:100F100043608360C360036003618171A0F80B20AC
:100F2000704700BF70B408224FF48076002340F26F
:100F300001150E600A7190F800C08B7181F805C030
:100F4000B0F801C04FF4817481F807C0B0F801C057
:100F50002CFA02FC81F808C0B0F803C081F809C07F
:100F6000B0F803C02CFA02FC81F80AC090F805C062
:100F70000D618A8281F80BC00B7390F806C081F86E
:100F800016C090F807C081F817C090F808C04B76DB
:100F900081F818C0B0F809C081F81AC0B0F809C0CB
:100FA0000C622CFA02FC81F81BC00B7781F824201C
:100FB000C27A70BC81F82520828981F82620828936
:100FC000120A81F82720827B81F82820C27B81F8D1
:100FD0002920027C81F82A20427C81F82C3081F87B
:100FE0002B2070474FF0080C4FF4847210B400238C
:100FF00040F209140A6081F804C002784A71B0F81E
:1010000001208A71B0F8012022FA0CF2CA71C2786C
:101010000A7282884A7282880C6122FA0CF28A7201
:10102000CB720B7381F814C082794A75B0F807202F
:101030008A75B0F8072022FA0CF2CA75427A4B760C
:101040000A76837A8B76C37ACB76037B5DF8044B82
:101050000B77704740F2011C0A680346624529D0AD
:10106000B2F5817F14D0B2F5807F32D10122487968
:101070001870B1F80700A3F80100B1F80900A3F84F
:101080000300C97A9A740022012059719A6170474D
:1010900001224879D872C8889881087A9873487A6A
:1010A000D873887A1874C97A1A7500220120597485
:1010B0009A617047012288799871C879D871087A45
:1010C00018724989DA7400220120A3F809109A6184
:1010D00070470020704700BF0A680346B2F5847F5E
:1010E00018D040F20910824212D101224879987139
:1010F000C888A3F80700087A5872887A9872C87A64
:10110000D872097B9A730022012019731A61704703
:10111000002070474A790120003A18BF01221A7056
:10112000CA88A3F801200A7ADA70B1F80920587346
:101130009A80002201201A61704700BF10B44FF45A
:1011400080740C4B53F8202003EB8003C00082F026
:10115000400200F1804003F5805C02F0C00200F51F
:10116000203003F54053CCF8002041601C605DF84E
:10117000044B70470480034010B4084CC90041EA96
:10118000820154F8202004EB8003514003F5805382
:1011900001F00C0119605DF8044B704704800340B6
:1011A00030B44FF0000343EC440043EC400005250D
:1011B0004FF480740B4BC20053F8201003EB8000F7
:1011C00081F0400102F1804303F5203301F0C002B9
:1011D00000F5805100F540500A605D60046030BC4D
:1011E000704700BF048003400FB400B583B0049C77
:1011F000074802F0ADFD3CB105A92046019102F07F
:1012000063FC044802F0A4FD012002F075FC00BF5D
:101210005C6F00101C6E001070B58646EFF31085F1
:1012200072B6124CD4E8CF6F0120002EFAD1C4E878
:10123000460F002EF6D1BFF35F8F4FF0010CC808A8
:1012400001F007030CFA03F31EF800C01CEA0306C2
:1012500008D14CEA030C0EF800C0C4E88F6F85F388
:10126000108870BD1046FFF7BFFF00BF1B120020A3
:10127000F8B5EFF3108772B61C4ED6E8CF5F0124A5
:10128000002DFAD1C6E8454F002DF6D1BFF35F8F90
:101290009A421BD8012502E00132934222D3D4089E
:1012A00010F804E002F0070C05FA0CFC1EEA0C0F23
:1012B000F2D14EEA0C0E00F804E010460023C6E816
:1012C0008F3F87F31088984207DBF8BD0023C6E8FC
:1012D0008F3F87F310884FF0FF300029F5D0069834
:1012E000FFF782FF4FF0FF30E8E700BF1B1200203E
:1012F000044A1078431CDBB2182B28BF102313704C
:10130000704700BF200E002010B5054C82B001468A
:101310001F23182200940348FFF7AAFF02B010BD54
:101320006C6F00102C1600204FF0E022936843F001
:1013300000539360704700BF0021044B03F120026B
:10134000C3E88F1F01339342FAD170471012002077
:101350004FF08030034B04491A4604338B4210602F
:10136000FAD1704700E400E034E400E0012300F02B
:101370001F029340400941B1800000F1604000F538
:101380006140C0F8803103607047024A203042F863
:101390002030704700E100E00123064A410952F87D
:1013A000212000F01F0003FA00F01040003818BFA1
:1013B0000120704700E100E001224309034900F0E9
:1013C0001F008240403341F82320704700E100E0D5
:1013D000054A10309268054B52F82000C01A2F2899
:1013E0008CBF00200120704700ED00E0240E00209B
:1013F000F8B50D46EFF3108772B6124ED6E8CF2F30
:101400000123002AFAD1C6E8423F002AF6D1BFF3F1
:101410005F8F0D4B00F110049B680C4A53F8243089
:10142000934203D0994201D000F00EFF064B9B6817
:1014300043F82450BFF35F8F0023C6E88F3F87F344
:101440001088F8BD1912002000ED00E01D01001009
:101450002DE9F04F81468B46164683B0EFF310839B
:1014600072B6DFF8D0A10093DAE8CF1F012300297C
:10147000FAD1CAE8413F0029F6D1BFF35F8F664B2E
:1014800093F90040002CC0F2A080644D04EB4407A7
:1014900005EB870898F8061009F110091970604BE0
:1014A000BF009B6853F829006300411B2F292FD9E7
:1014B0005C49884240F0A4801C445B4B02372F44B7
:1014C000043BDB1BC3F34A036FEAC3434FF42141E0
:1014D0006FEAD34325F8241005EB840463804BF6B0
:1014E0000153A380FF2348F00100E671C4F808B05F
:1014F000A3714B4B9B6843F82900BFF35F8F002318
:10150000CAE88F3F009B83F3108803B0BDE8F08FDB
:1015100020F0010E9EF80710B1422ED84FF421435F
:10152000EB53414BB91C2944043B04375B1A2F444D
:10153000AEF10401C91BC1F34A043C49C3F34A0399
:101540000B432143A8F804103949A8F802304AF6A1
:10155000AA2073465B1B5B415843000D88F8076067
:1015600088F80600C8F808B048F00100CEF800106E
:10157000BFE7D179B1422ED996469EF906C00CEB51
:101580004C02BCF1000F05EB8202F2DA4BF601517E
:101590000EF10402A8F10407BF1AC7F34A076FEA65
:1015A000C7476FEAD7478EF8064003EB0408204C84
:1015B00005EB8803AEF8047045F82840998083F85D
:1015C00006C0DE71C3F808B093E700F03DFE124B91
:1015D00093F9004059E7724632F8041F490514D4C4
:1015E0004915023102EB410101916FF00701C91B5E
:1015F000019F491B3944C1F34A0141F46041C9E7E5
:10160000019300F021FE019B56E701F5FF1101F562
:10161000FF511F31E4E700BF501B0020240E0020C3
:1016200000ED00E01D010010540E002000E0FFFF5F
:1016300001488047191200202DE9F041EFF305869B
:10164000F6B2EFF3108E72B6204DD5E8CF2F0123FE
:10165000002AFAD1C5E8423F002AF6D1BFF35F8FD6
:101660001B4F40F0010CBA684AF6AA2352F82680B4
:10167000184C0246121B524153431B0DE04559B210
:1016800014D02246002392F906C00C328C4512D0A9
:101690000133042BF7D1104B00221C781970847190
:1016A000C5E88F2F8EF31088BDE8F081BB680B4A28
:1016B00043F82620EFE703EB430304EB8304FF2307
:1016C000A3714BF60153A380E5E700BF1912002078
:1016D00000ED00E0240E0020501B00201D01001032
:1016E00010B5074C82B0014605230022009405483E
:1016F000FFF7BEFD0028A8BFC0F1330002B010BD47
:10170000886F0010541B0020014B0B44036070478E
:101710001012002070B5114C114DAC421CD2FF26A6
:101720000BE0FFF7E5FD01462046FFF7EDFFA68041
:10173000BFF35F8F0834AC420ED22368002BF0D188
:10174000FFF7D6FD01462046FFF7DEFF2671BFF307
:101750005F8F0834AC42F0D370BD00BFBC0E0020D8
:10176000C40E002010B50446FFF7C2FD0146204616
:10177000FFF7CAFFFF232371BFF35F8F10BD00BFC8
:1017800010B504460120FFF7BFFD034B034423605F
:10179000BFF35F8F10BD00BF10120020024B0B443F
:1017A0000360BFF35F8F7047101200200D4B1A6863
:1017B000EFF3108172B6D2E8CFCF0120BCF1000F59
:1017C000F9D1C2E84C0FBCF1000FF4D1BFF35F8F29
:1017D00000221B68C3E88F2F81F3108840BF0020D0
:1017E00000217047301B00202DE9F04F2DED028BBA
:1017F00085B0EFF30583DBB2103B9A0818BF0122D6
:101800004FF0010103F0030018BFAB4DAB4B08BF15
:10181000AB4D00EB820201FA00FB53F8226005F5A4
:1018200041539FEDA38B0190C3F804B0CDF800B0F5
:101830002FE0B3881B0440F18E80B379002B40F079
:10184000D780B6F90830002BC0F21681726903EB1D
:10185000430302EBC303D3E90247B7F1FF3F08BFDD
:10186000B4F1FF3F0ED00198AB6A05EB80010A6925
:10187000D21AE31A934204D301232A6A8340134203
:1018800000D10C61284600F041FBA042B941C0F2F2
:10189000F380009BEB63B6F90840002CC9DBD6F857
:1018A000148004EB4409284608EBC907D7E902BABB
:1018B00000F02CFB584571EB0A01BADBBAF1000FBE
:1018C000C0F2BC80D7E904317E4A934200F0E68042
:1018D0007A88B6F9080092B242EA00409847024678
:1018E0000B4652EA030100F0A980002B80F2CA8067
:1018F000BBEB020B6AEB030AC7E902BA38F93910ED
:10190000002996DBD6F814C001EB41030CEBC303AE
:10191000D3E9022393457AEB03034FEA410088DBC6
:10192000B6462EF8081F00E0480043180CEBC3072A
:10193000D7E9020283457AEB020204DB3CF933105B
:10194000BE460029F0DA28F83910AEF80040B38816
:101950001B043FF572AF3369EFF3108272B6D3E820
:10196000CF0F01210028FAD1C3E8401F0028F6D18B
:10197000BFF35F8F4FF6FF74B0880023316900B268
:10198000B480C1E88F3F82F310889842FFF655AFCC
:101990000446A94606F10808776904EB440E07EBF4
:1019A000CE03D3E90250B6F90830C446002BA8BFD5
:1019B000A34605DA0FE037F93A309446002B09DBED
:1019C00003EB430A07EBCA02D2E90241A54270EBDE
:1019D0000101F0DA5C46ACF8004037F93E4027F8E8
:1019E0003E30002CD8DAB3794D46002B3FF429AFB6
:1019F0000023B371B6F9083006F1080C5F1C04D15E
:101A00003AE084465A1C3FF41CAF726903EB430171
:101A100002EBC10044881F46240432F93130F0D56E
:101A200080ED028BB6F90800B842EBD0ACF800307C
:101A3000B6F9080022F831003781E3E738F9393088
:101A400033813369EFF3108272B6D3E8CF0F0121EF
:101A50000028FAD1C3E8401F0028F6D1BFF35F8FFA
:101A6000B6F9023028F83930316900237480C1E8B2
:101A70008F3F82F31088DCE640BF05B0BDEC028BDF
:101A8000BDE8F08F2846CDE9022300F03FFA029A24
:101A9000039B10EB020B43EB010A2DE708460B6991
:101AA000029198470028C9D00299D1E9002318E78C
:101AB000FFFFFFFFFFFFFFFF00800B40081B002020
:101AC00000000B40E917001070B5204D2C692CB1B7
:101AD000BDE870400A211E48FFF716BE1D4E0321C7
:101AE000304600F001FAEE60FFF702FC03211A4BCA
:101AF0004FF6FF7218442346102429704FF05041CE
:101B000028610F202A81AA806C8109686880697029
:101B10006869511CC2521833B3F5C07F8AB2F7D13D
:101B200008240C4B0D4A0320D5600D491C62FFF7B9
:101B30005FFC01210320FFF719FC0A4B0A211C64FA
:101B40000348BDE87040FFF7DFBD00BF6C0E00200A
:101B5000301B002000000B4010120020081B00204A
:101B6000E917001000200B40004870476C0E002061
:101B7000F0B501460069EFF3108772B6D0E8CF5F89
:101B80000124002DFAD1C0E8454F002DF6D1BFF356
:101B90005F8FB1F902E04C690EEB4E0CBEF1000F05
:101BA0004FEACC05086904EBCC0C3CDB665F4E8049
:101BB0000026C0E88F6F87F31088BCF80200CCE9DC
:101BC00002230130C0F30E00012838BF0120059B1D
:101BD000ACF80200CCF81030069B40EA0E40CCF87E
:101BE00014300B69EFF3108272B6D3E8CFCF012720
:101BF000BCF1000FF9D1C3E84C7FBCF1000FF4D168
:101C0000BFF35F8F8B8863530B69A1F804E0C3E8CF
:101C10008F6F82F310880122CB68097803F5015396
:101C20008A405A60F0BD0023C0E88F3F87F31088D8
:101C30004FF0FF30F0BD00BF2DE9F0479DF8289030
:101C40000546DDE9086790461C46B9F1000F06D14C
:101C500000F064F9804564EB0101002908DB42468D
:101C600023462846CDE90867BDE8F047FFF780BF67
:101C70004846BDE8F08700BF03464089B0EB214FDE
:101C800037DD10B50A14586902EB42021C6900EBFB
:101C9000C200EFF3108C72B6D4E8CFEF0122BEF190
:101CA000000FF9D1C4E84E2FBEF1000FF4D1BFF3FD
:101CB0005F8F428889B292B28A4207D000221B69A4
:101CC000C3E88F2F8CF31088002010BD42F400422F
:101CD00042800121002218699971C0E88F2F8CF38E
:101CE00010881C78DA68084602F50153A140596053
:101CF00010BD0020704700BF407870472DE9F041CB
:101D0000851F41F1FF37A84271EB070338BF00255B
:101D100082B038BF2F4604460E4600F0FFF8281A5E
:101D200067EB010C01287CF1000C06DA20463146F5
:101D300002B0BDE8F04100F0FBB800F0EFF88542DA
:101D400067EB010100290ADB0021174B2A460093AB
:101D500016483B460191FFF70BFF0130E6D04FF0EC
:101D6000000C134A1349536A9F4204D8906AA84250
:101D7000DCD29F42DAD10B68EFF3108072B6D3E861
:101D8000CF8F5FF0010EB8F1000FF8D1C3E848EF34
:101D9000B8F1000FF3D1BFF35F8F0B68C3E88FCFAB
:101DA00080F3108820BFDEE7AD1700106C0E002016
:101DB00000000B40301B002038B504460D4600F0F3
:101DC000ADF84FF0FF326FF00043201845EB0101F2
:101DD000824273EB010438BF1946BDE8384038BF72
:101DE0001046FFF78BBF00BF10B5044600F096F811
:101DF0004FF47A734FF0FF3C6FF00042E4FB0301B5
:101E0000BDE81040844572EB01033CBF60461146BB
:101E1000FFF774BF2DE9F04306460D4683B0EFF39C
:101E20000584E4B23CB12D4B5A6AAA421CD2002070
:101E300003B0BDE8F0832A4FD7F80C9097F80080E4
:101E4000484600F063F808F1040859F828301B1AD6
:101E5000301A65EB0101984271F1000110DB20BFDF
:101E60001E4B5A6AAA42E2D314BF012400249B6A83
:101E7000B34234BF204644F0010003B0BDE8F08314
:101E800000F04CF8864265EB0101002914DB154B8C
:101E90003846CDE9003432462B46FFF769FE011E75
:101EA0000ADD0E4B5A6AAA4216D39B6AB34211D37B
:101EB0000B48FFF7E1FEB6E7084B5C6AAC42B6D3CD
:101EC000641B18BF01249B6AB34234BF204644F010
:101ED0000100ADE7AA42EBD120BFE9E700000B40CB
:101EE0006C0E0020AD17001010B4054B054C064ACF
:101EF000A04214BF1846581C5DF8044BFFF78CB97C
:101F00003016002000800B40A46F00100346416A89
:101F10000A46986A596A8A42FAD17047034B596A4D
:101F20000A46986A596A9142FAD1704700000B40FC
:101F3000074A536A9942FCD8994207D1044B02E000
:101F40005A6A914202D19A6A9042F9D8704700BF0A
:101F500000000B402DE9F04100EB400C4FEA8C0CE7
:101F60000CF1804C0CF5803C069D9046DCF804207A
:101F7000041FAA42E4B238BFCCF80450012C2AD97D
:101F80004FF4006E254E0CF54052C2F800E056F8B2
:101F90002020AAB9DCF800200CF5805782EA48120C
:101FA00002F0E002012C3A6029D94FF4006246F8B1
:101FB00020300CF500531A60CCF80450BDE8F081D5
:101FC0007769B7FBF2FE0EF1010E0EEB4E0EBEF17D
:101FD000030EFCD2DEE70129D2D103240CF54052D6
:101FE0001460DCF80820D207FBD5DCF800200CF5E3
:101FF000805782EA481202F0E002084E3A6001225D
:10200000DCF800404C4004F003043C6002FA01F1AB
:10201000DCF808200A42FBD0C7E700BF34160020D6
:1020200010B54FF4803482B00094FFF793FF02B0F4
:1020300010BD00BF014B53F820007047341600203C
:1020400070B4039D04682D0345EA03451B4B002C27
:10205000B3FBF1F3B2FBF3F61FDB194A194B9042C5
:1020600014BF4FF480424FF40042174C1A6003F53E
:1020700080531A60A36832EA0303FBD1212200F5E2
:1020800040530433016086601A600268002AFCDA5B
:102090000822C5601A6070BC7047036803F03F03F4
:1020A0008B42DAD18368C3F30B03B342D5D1C36843
:1020B00003F4EE23AB42D0D1EDE700BF001BB70025
:1020C00000800540002002400000024030B44FF084
:1020D00080441C4B1C60E0B11B4CA3F54053DC61F9
:1020E0001A4C40F0010044401C62596298624FF063
:1020F00080454FF0E061134B1548164C1D6084601D
:1021000019604AB94FF00042A3F580531A6030BC01
:102110007047114BD861EAE74FF47A7303FB02F280
:10212000B2F1807F2ABF6FF07F4313461A464FF00B
:1021300080410A4C08482360094B4260196030BC5A
:10214000704700BF00B00D40D3C007B02D3FF84F1F
:1021500000A00140F3FFFF0100800D40F81A0020AD
:1021600000A00D40012300EB4000800000F1804002
:1021700000F5841041600360704700BF002370B514
:1021800004460D46DB8A002242E800F2520254BFA8
:102190001021042144F25220984786462B462246BD
:1021A000F446BDE870400A214FF48170604700BFDB
:1021B0000023DB8A002242E800F2520201D41021FF
:1021C00018470421184700BF08B503460846191EE2
:1021D00002DB1AB140F03000FFF7D0FF40F02000E2
:1021E000FAE700BF034AD2F82838002BFBD0BFF330
:1021F0005F8F704700000E400021044B044ABFF37C
:102200005F8F43F8041B9342F9D170470C080E40CE
:102210002C080E4010B44FF48D704FF42A64064A17
:10222000064B07491460D06019605368002BFCDA34
:102230005DF8044B704700BF0080044000A00440DC
:1022400000B0FA00704700BF08B50148FEF7CCFFA8
:10225000C86F001038B5054C054DAC4204D254F897
:10226000043B9847AC42FAD338BD00BF006700106A
:102270004067001010B40748074C084B084A09494A
:1022800004601A608B6832EA0303FBD15DF8044BEB
:10229000704700BF002002407F3BEFEF003002405C
:1022A000F6FFF30300000240044BDB6CB3F5004F74
:1022B00003D14FF48022024BDA64704700001150C2
:1022C000002011504FF0E022044BD2F8881D0B4340
:1022D000C2F8883D10EE3004704700BF03033000A1
:1022E0006FF06041044B054A19609368DB4333F09B
:1022F0006043FAD1704700BF003002400000024046
:1023000010B545F25320FFF753FFBDE810400346D8
:102310000420184710B545F25320FFF749FFBDE8E8
:102320001040034601201847FFF706B810B5054BCB
:10233000054C4FF488721846A16804F00FF9A060AC
:1023400010BD00BF0000002000ED00E0002370B5CC
:102350002B4C82B0C4F88430FFF75CFF0122294B7C
:10236000DA63636C012BFCD10321264A244B1163F1
:102370009C6B012CFCD10226052521460523224A0F
:1023800022480096FFF75CFE21462B46204A214852
:102390000095FFF755FE0022042031461E4BFFF743
:1023A0003FFE2146284600221C4BFFF739FE002243
:1023B000082011461A4BFFF733FE00220920114670
:1023C000174BFFF72DFE002206201146134BFFF797
:1023D00027FE0022114B07201146FFF721FE0420A3
:1023E000FFF728FE00240F4BA3FB0035AD0CE0B235
:1023F00029460134FFF7B6FE062CF8D102B070BDB5
:102400000000014000300140002F685900000540E5
:10241000008C864700800540001BB70080D1F00883
:10242000006CDC0283DE1B4386B003B451FC08045D
:10243000CDE9020151FC0904CDE9040151EC0A0483
:10244000CDE9060103BCF047BDE800504EEC00C4E6
:10245000BDE800504EEC01C4BDE800504EEC02C493
:1024600000BD000000B5FFF7DFFF02E010FE30F412
:10247000F8D441EC100443EC112400EE010410EEFA
:10248000010480EE200451EC1004704700B5FFF702
:10249000CBFF02E010FE30F4F8D441EC100443EC22
:1024A000112400EE010410EE210480EE200451EC12
:1024B0003004704700B5FFF7B7FF02E010FE30F4BC
:1024C000F8D410B541EC100443EC112451EC040491
:1024D00053EC0524A0FB024C5FF0000EE0FB03CEA2
:1024E000E1FB02CE4CEC20440024E1FB03E444EC8D
:1024F00030E480EE200451EC5004BDE810407047F9
:1025000000B5FFF791FF02E010FE30F4F8D441EC83
:10251000100443EC112451EC2104A0FB01126FEADA
:10252000820252FB100052FB12F252FB1000A0EB91
:10253000D07C53EC04245CFB13F153EC1524A1FB79
:10254000022001FB030053EC4424A2EB000050FBEB
:102550001CF24FEA111312EB017043EBE27140EAF7
:10256000515020EA915020F0070053EC7524A0FB55
:10257000023C53EC752400FB03CC01FB02CC53EC72
:102580000424ACEB824C40EA5C70A0F1010041EC09
:10259000400480EE200451EC7004704700B5FFF752
:1025A00043FF02E010FE30F4F8D440EC700400EE7B
:1025B000010410EE210480EE200451EC3004704739
:1025C00000B5FFF731FF02E010FE30F4F8D440EC24
:1025D000600400EE010410EE210480EE200451ECB2
:1025E0003004704700B5FFF71FFF02E010FE30F423
:1025F000F8D441EC800400EE010410EE010480EEFA
:10260000400410EE1304704700B5FFF70DFF02E021
:1026100010FE30F4F8D441EC800400EE010410EE1A
:10262000010480EE400410EE3304704700B5FFF75C
:10263000FBFE02E010FE30F4F8D441EC100443EC51
:10264000112400EE010410EE3004C0F30070704756
:1026500000B5FFF7E9FE02E010FE30F4F8D443ECD9
:10266000102441EC110400EE010410EE30F48CBF94
:1026700001200020704700BF00B5FFF7D5FE02E043
:1026800010FE30F4F8D443EC102441EC110400EEB9
:10269000010410EE30F42CBF01200020704700BF71
:1026A00000B5FFF7C1FE02E010FE30F4F8D441ECB3
:1026B000100443EC112400EE010410EE30F42CBFA2
:1026C00001200020704700BF00B5FFF7ADFE02E01B
:1026D00010FE30F4F8D441EC100443EC112400EE69
:1026E000010410EE30F48CBF01200020704700BFC1
:1026F000704700BF2DE9F04F83B09946DDE90DAB7F
:102700000F9B884611469A07074616D1DA453AD2FA
:102710000C460D46ABEB0A060E4422464B4641469C
:1027200020200134B847B442F7D12946BAF1000F4E
:1027300008D1204603B0BDE8F08F0C46BAF1000F77
:1027400010D00E4655460C9B2E449A440191721BA4
:102750004B46013D41461AF8010D3446B847002D5D
:10276000F5D101990F9B9B07E3D5651AAB45E0D9DD
:1027700022464B46414620200135B8475D4504F1CD
:102780000104F5D3D5E70C46BAF1000FD9D1D0E753
:102790002DE9F04F0F9FDDF8248017F0020F0A9CFF
:1027A0009DF82CA00E9DDDE90C9644D1F5BBB442FA
:1027B00041D207F0010B04F1FF3C4FF0300EC4444E
:1027C00004E00134A6420CF801EF01D9202CF8D125
:1027D000BBF1000F00F08880A5422CD904F1FF3C2A
:1027E0004FF0300EC44404E00134AC420CF801EF69
:1027F00021D0202CF8D117F0100F0ED017F4806FD5
:1028000054D1A64263D0A54261D0B9F1100F50D087
:10281000B9F1020F56D0202C29D12024CDE90B5735
:10282000CDE90984BDE8F04FFFF764BF17F0010B55
:1028300034D1B442BFD317F0100F1ED017F4806FFD
:10284000E3D1002CDDD1B9F1100F63D0B9F1020F43
:1028500077D0302488F800400124BAF1000F11D15C
:102860007E0748D52B2608F804600134D6E72646B3
:1028700001344FF0300C08F806C0202CCDD0BAF14E
:10288000000FEDD02D2608F804600134CDE90B5778
:10289000CDE90984BDE8F04FFFF72CBFBAF1000F76
:1028A00030D0B44205F1FF3585D395E7B9F1100F6B
:1028B000B3D1BE063BD5202CAFD0582608F8046013
:1028C0000134A8E7202CA8D02646013407E0661E74
:1028D000B9D0B9F1100F36D0B9F1020FC9D14FF00C
:1028E000620C08F806C096E717F0100FC5D017F471
:1028F000806F86D089E73E0790D5202608F80460CF
:1029000001348BE717F00C0F00D0013DB442FFF407
:1029100052AF61E7BC0612D4782488F80040302416
:1029200088F801400224BAF1000F99D0AAE7202CC0
:102930003FF473AF782608F8046001346BE758243D
:10294000EBE76224E9E717F0200FA4F1020C04D0B2
:102950004FF0580E08F80CE08BE74FF0780E08F8AF
:102960000CE086E72DE9F04F93B01C9C9DF874B005
:102970001E9DDDF884E02CB92EF010061EF4806F49
:10298000B64635D11EF0200F14BF4FF041094FF06D
:1029900061090AAFB8460026A9F10A09099002E0C8
:1029A000202E15D05446B4FBF5FA05FB1A4C5FFAFD
:1029B0008CF0BCF1090F00F1300C8ABF48445FFA7B
:1029C0008CF0C0B2AC4208F8010B06F10106E7D268
:1029D0000998209CCDE9016B05941F9CCDF818E067
:1029E000CDE903540097FFF7D3FE13B0BDE8F08F95
:1029F00026460AAFEDE700BF2DE9F04F97B08E46AF
:102A0000DDE92064DDE9247856EA04019DF888C0F8
:102A100006D12899289D21F010012891690545D4F7
:102A200028990DF1380B11F0200F14BF4FF0410A17
:102A30004FF0610AD9460025CDE9090ECDE90B23F7
:102A4000AAF10A0ACDF834C003E0202D17D00646BB
:102A50000C4621463A464346304603F031FED2B298
:102A6000092A02F130038ABF5244DAB2D2B2BE421E
:102A700074EB080409F8012B05F10105E5D2DDF836
:102A800034C0DDE9090EDDE90B232899CDE9015CAD
:102A900006912799CDF800B005912699CDE90371EB
:102AA0007146FFF775FE17B0BDE8F08F00250DF1F8
:102AB000380BEAE7000000002DE9F04F95B0209CAC
:102AC000DDE91EAB0894219C0D461E4609900B9231
:102AD0005B46524650465946229F0A94FFF7AAFD8C
:102AE000002840F09780504659464FF0FF32664B21
:102AF000FFF7EEFD002840F08D80504659464FF01C
:102B0000FF326FF48013FFF7A7FD002840F08280AA
:102B10005046594600220023FFF79EFD002840F052
:102B20008881CDE906ABDDE9063407F400629946F9
:102B300017F48063A046129213937BD159EA0403E1
:102B400040F0A480002A40F08E810623089317F0FD
:102B500002020E9240F08A810A9B0421042B38BFA6
:102B60000423043B10910C921293504659460022C4
:102B70000023FFF771FD002840F0C9819DED067B21
:102B8000129B0B9A0393089B8DED007B029327F415
:102B90000063049329463346099800F021FA02465F
:102BA00017F0200F0CBF6520452033462946099CAD
:102BB000571CA04705230593109B0020013B04935D
:102BC0000A230C99CDE9023081EAE173A3EBE173AA
:102BD000C90FCDE900313A46334629462046FFF772
:102BE000C1FE0E9B07468BB10B9BA0EB03080A9B13
:102BF00043450BD999463A4633462946202008F1E9
:102C00000108A047C14507F10107F4D8384615B0BF
:102C1000BDE8F08F0A9B2946DDE908402193334641
:102C2000CDE91EAB0B9A2297209415B0BDE8F04F6A
:102C300000F0D6B959EA04032AD1129B002B86D0A2
:102C400000230C93089B0C9A934200F3BA814FF037
:102C500000085046594600220023FFF7FDFC0028DB
:102C600040F0ED809DED067B0A9B8DED1E7BCDE94E
:102C7000208327F4006343F480632293294633467C
:102C80000B9A0998D1E700BFFFFFEF7F0623089357
:102C9000C8F30A50A0F2FF30FFF784FCC0A3D3E9C9
:102CA0000023FFF70BFCC0A3D3E90023FFF7DEFBF3
:102CB000C8F31303CDE90C0143F07F5148460022CD
:102CC000B14B41F44011FFF7E5FBA3A3D3E9002387
:102CD000FFF7F4FB02460B46DDE90C01FFF7C6FBEC
:102CE000FFF784FC0C90FFF75DFC9DA3D3E9002364
:102CF00080468946FFF7E2FB0022A44BFFF7B6FBB4
:102D0000FFF774FC034649461C4697A3D3E900230A
:102D10004046FFF7D3FB804620468946FFF742FC3A
:102D200093A3D3E90023FFF7C9FB02460B464046B5
:102D30004946FFF7AFFB02460B4680468946FFF740
:102D4000BDFB42464B46CDE90E0140464946FFF7E2
:102D50008DFB0022CDE91001DDE90E018C4BFFF760
:102D6000D3FB00228B4BFFF781FB02460B46DDE9CC
:102D70000E01FFF7C9FB0022874BFFF777FB0246E6
:102D80000B46DDE90E01FFF7BFFB42464B4680468E
:102D9000894600204FF08041FFF77CFB02460B463E
:102DA00040464946FFF762FB02460B46DDE910014B
:102DB000FFF7AAFB0022794BFFF758FB04F2FF3C18
:102DC00000224FEA0C53FFF779FBDDE9062380462A
:102DD0008946FFF77DFC50B10C9B4046013B4946BC
:102DE0000C9300226B4BFFF78FFB804689460C9BB0
:102DF000129A6333C62B07F002030E930CD8002AF5
:102E000067D10A9A042A7FD9002B00F0D4800423CA
:102E1000109302230E936AE0002A2FD10A9A052A02
:102E200004D9002B00F0D28002230E9305231093C7
:102E300061E00BF10043CDF818A0079373E60A9BFD
:102E40002946CDE9208327F4006343F4806322936D
:102E50003346DDE90667344607F10045CDE91E45F6
:102E60000B9A0998E1E64FF00508F2E604220023E8
:102E70001092022212930E920C9376E60523109381
:102E800058EA09033FF4DEAEDDE906013AA3D3E9CF
:102E90000023FFF709FC48B1DDE9060138A3D3E9B7
:102EA0000023FFF7D9FB00287FF4CCAE089B9BB131
:102EB000139A002A41D0013B109A08930A9B93422F
:102EC00004D90E99002943D002230E9300231293B4
:102ED0000DE004231093D3E70A9B109A934267D91D
:102EE0000E99002934D0089B129302230E930C9B59
:102EF000002B3FF43AAEDDE9060142464B46FFF7B0
:102F000003FBCDE9060130E604231093EFE7DDE98A
:102F100006ABD046129B0BF100490393089B0B9A1A
:102F2000029327F40063049329463346CDE90089D0
:102F3000099800F055F8024632E60A9B109A93422F
:102F40004AD90E9921B1139B129302230E93CEE717
:102F50009B1A1293CBE700BF61436F63A787D23FF1
:102F600071A379094F930A401655B5BBB16B024066
:102F7000EF39FAFE422EE63F2D431CEBE2361A3FB4
:102F80000000000080842E410000F83F0000E03F78
:102F900000002C4000002440000018400000F03FDA
:102FA000FB799F501344D33FB3C8608B288AC63F38
:102FB000089B12939BE7042310930A9B043B1293F4
:102FC00095E7A3EB020808F1FF3842E605231093CA
:102FD0000A9B053B12938EE7139B129387E700BF72
:102FE0002DE9F04F97B0DDE92067CDE90501DDE976
:102FF000225807920C9332463B4630463946DDF85C
:103000009090FFF717FB002840F0BD81304639460D
:103010004FF0FF326FF48013FFF71EFB002840F0E3
:103020001081304639464FF0FF32C14BFFF750FB5D
:10303000002840F0E680BAA3D3E9002330463946A1
:10304000FFF746FB002840F0CE80B7A3D3E900236A
:1030500030463946FFF700FB002840F0C480304678
:10306000394600220023FFF7F7FA002840F0DE80FF
:103070000D9019F4806F08BF062530212B460EAA4B
:10308000A5F1200A05E0013B534502F8011B00F0C1
:103090004281092BF7D89A46ED1A39463046FFF798
:1030A000A5FAA44B044603EBCA0393ED007B8DED18
:1030B000087BFFF777FA02460B4630463946FFF7A2
:1030C000E9F9DDE90823FFF7F9F902460B46CDE9F6
:1030D0000A23FFF79DFA8346FFF776FA02460B466E
:1030E000DDE90A01FFF7D6F902460B46CDE90A23CE
:1030F0000022914BFFF7ECFA002800F0B3800BF1AF
:10310000010B5846FFF760FA02460B46DDE908015D
:10311000FFF7B6FA10B14FF0000B0134BAF1000F0F
:1031200000F0B280681E0EAB844E18440FE0A6FB80
:103130000B21C90801EB8102ABEB42023032BBF13B
:10314000090F00F8012F40F2CF808B461D46202D3D
:1031500005F101030AF1FF3AE9D12025691E0EAB02
:103160007748194410E080FB0462C3EBA20303EB31
:103170008302A4EB420404F1300201351C4601F83D
:10318000012F002B00F09F80202D4FEAE473EAD13D
:1031900009F00303012B18D1B8F1000F15D00D9BD6
:1031A000002B00F0D58008F1FF38B8F1200F0CD9C2
:1031B0006B1E0EA930220B4405E00135454503F88E
:1031C000012F80F08480202DF7D10EACCDE902894B
:1031D000DDE906120C9B059801950094FFF78AFA29
:1031E00017B0BDE8F08F0C9B0598CDE92067DDE9AD
:1031F0000612CDE92389229517B0BDE8F04FFFF7FD
:103200005BBC19F0040F18BF0423DDE906120ABFE6
:1032100003234C4C4C4C219305980C9BCDE92289FF
:10322000209417B0BDE8F04FFFF764BA3B46324632
:1032300000200021FFF72EF9012306460F460D93CB
:1032400017E70424DDE906120C9B05983F4DCDF8E5
:103250008C90CDF88880CDE9205417B0BDE8F04FB0
:10326000FFF748BA0022DDE90A01334BFFF7F4F912
:1032700000287FF453AFBBF1000F7FD10BF1010B9E
:10328000BAF1000F7FF44EAF2046FFF78BF90246EC
:103290000B4630463946FFF7FDF80022264B06461E
:1032A0000F46FFF7D9F900287FF458AF304639466A
:1032B0000022214BFFF70CFA00287FF44FAF0134B6
:1032C00024F001044AE709F00303012B6AD0202D02
:1032D0003FF47BAF0D9B002B45D02D220DEB05035A
:1032E00083F83820013570E7202B3FF436AF0EAA63
:1032F00015449A44302205E00133202B05F8012FB4
:103300003FF42BAF5345F7D12E210DEB030282F88A
:1033100038105D1C22E72025BFE600BFAFF3008018
:103320000000000065CDCD410000000065CDCDC19D
:10333000FFFFEF7F687100100000E03FCDCCCCCCE8
:10334000676666661C700010247000102C700010F8
:1033500019F00C0F22D008F1FF384545FFF428AFD3
:10336000202D3FF432AF19F0040F01D02B22B5E726
:1033700019F0080F3FF429AF2022AFE71BF0010F2F
:103380003FF4CCAE7AE70324DDE906120C9B0598E6
:103390000B4DCDF88C90CDF888805CE74545FFF467
:1033A00007AF12E7B8F1000F91D00D9B002BCFD0E3
:1033B00008F1FF384545FFF4FBAE202D8DD104E721
:1033C0002870001000B9704700F0B2BC10B1D1E90C
:1033D00000311847704700BF2DE9F04F9E4D9F4CBC
:1033E000B1F1000B8FB018BF8146256018789C4D55
:1033F000904608BFA946DDF860A0002800F034829E
:103400001C46002508E02A46434659460135C84770
:103410002078002800F0C780252804F10104F2D1AB
:103420000023224612F8010BA0F1200110290AD82E
:10343000DFE801F03F09093B0909090909090937D2
:10344000093309092F00A0F13001092940F28980D0
:103450002A2800F0DE8000262E2800F0948000212B
:10346000A0F16807122F2CD8DFE817F039012B00E4
:1034700034012B002B012B002B002B002B002B00E9
:103480002B002B0027002B002B002B002B002B00E8
:103490002700144643F00103C3E7144643F0020338
:1034A000BFE7144643F00403BBE7144643F01003A0
:1034B000B7E7144643F00803B3E7607843F480733A
:1034C0000132672814467CD8242840F2AD80A0F150
:1034D0002502422A00F2A880DFE812F03C01A60093
:1034E000A600A600A600A600A600A600A600A600AC
:1034F000A600A600A600A600A600A600A600A6009C
:10350000A600A600A600A600A600A600A600A6008B
:10351000A600A600A600A600A600A6000901250197
:103520000901A600A600A600A600A600A600A60007
:10353000A600A600A600A600A600A600A600A6005B
:10354000A6008301A600A600A600A600A600A6006D
:10355000A600A600A60083014301830109012501FD
:103560000901002606EB860600EB46061078144695
:10357000A0F130010929A6F1300602F10102F1D9CA
:103580002E287FF46CAF60781746A0F1300109292E
:1035900043F4806340F203812A2800F01A81144624
:1035A000002101325CE72C46A84501D808F1FF351F
:1035B00043462A4659460020C84720460FB0BDE87A
:1035C000F08FA0F16902D2B20F2A2DD84FF0010C72
:1035D00049F241070CFA02FC1CEA070C40F0EE80AD
:1035E0000A2A27D0072A1FD143F021030593082375
:1035F000049310230391CDF804C002935AF8043BBE
:103600002A460093594643464846FFF7ABF905461C
:10361000FEE65AF8046B6078002E1446BCBF43F0F7
:1036200002037642013217E72A46434659460135DE
:10363000C847EDE6524652F804EB00299EF8000018
:1036400014BF8A464FF0FF3A0B92002800F0078221
:103650007246F2440BE000BFD9330010F41A002088
:10366000F126001012F8017F002F00F0F48092453F
:10367000F8D1AAEB0E020A9213F4806704D00A9ADA
:103680008A4228BF0A460A9213F0020300F0118111
:103690004FF0020C0C96F2462A460E46CDF834C086
:1036A00027B1731E002E00F0C9801E4643465946BE
:1036B000C8471AF8010F0135002800F0BF802A46DC
:1036C000EEE760786C287FF4F9AEA07843F440739D
:1036D000E21CF6E6607843F400730132F1E66078AC
:1036E000682800F0BC8043F080030132E9E66728D7
:1036F00000F09F80472800F0A980452800F0A880AE
:10370000CDE903630AF1070A02912AF0070A2A4663
:10371000FAE80267434659464846CDE90067FFF795
:10372000CBF9054674E6462808BF43F02003CDE9EF
:1037300003630AF1070A02912AF0070A2A46FAE807
:103740000267434659464846CDE90067FFF748FC03
:1037500005465DE62A464346594625200135C847B9
:1037600056E60AF104029B0705F101070A9240F1AF
:1037700082802A46434659469AF80000C847012EDF
:1037800088BFAD1940F22A813A4643465946202067
:103790000137C847BD42F7D1DDF828A038E600213F
:1037A00001EB810100EB410117F8010F3039A0F165
:1037B0003002092AF4D93C467A1C51E66F283BD0E6
:1037C00040F22581782800F0F7800A2223F01003C8
:1037D0000EE05AF8041BA0780234621C21EAE17161
:1037E0003EE6582843D0622808BF022240F0988065
:1037F000580540F1BC8023F00D0313F4007040F035
:10380000EF8013F4807F0AF1040740F01781580617
:1038100000F1D78018064CBFBAF80000DAF80000B3
:10382000CDE904630023CDE9022100902A460193EB
:1038300095E043F4006363E70822D9E7DDE90C6C07
:10384000BCF1000F5DD1DDF82CA0E1E543F400638D
:1038500043F0200354E7A2EB0E020A920CE7A07893
:1038600043F0C003E21C2CE6044605469CE6102209
:1038700043F02003BCE7012E40F2AA806B1E3344C4
:10388000CDF82CA02F469A463A464346594620206A
:103890000137C847BA45F7D15346DDF82CA01A4680
:1038A0009AF8000043465946C8473544DDF828A039
:1038B000AEE50A9A964240F2E7800A9B06EB050ABB
:1038C000CDE90CE60A970E466746AAEB030A2A469C
:1038D0004346594620200135C847AA45F7D1DDF8AF
:1038E00030E031460D9E9EF80000731CBC460A9FD6
:1038F0000A9300287FF4CEAEA5E713F0020700F08C
:10390000BD802F460A9B9E429DD93544ED1A3A460A
:103910004346594620200137C847BD42F7D192E7B8
:103920005F054BD523F01102900523D4D3050AF18E
:10393000040773D450063BD4130640F18980BAF9CA
:10394000003083EAE370A0EBE37080B2DB0F0193F9
:103950000A23CDE904622A4603910090029343466C
:1039600059464846FEF7FEFFBA46054650E523F0A5
:103970000C0342E79FED487B0AF1070A2AF0070A89
:10398000DAF804305AF8080BDF0F002BCDE9076294
:103990008DED047B02460691029715DBCDE90023ED
:1039A00059462A4643464846FFF726F805462FE57E
:1039B0009AF800301846C9E7102219E723F01002E0
:1039C000B2E79AF800002BE7424263EB4303E5E7D6
:1039D0002A46434659469AF80000C8473D46DBE66A
:1039E00004922A460025CDE907630AF1070A0691E9
:1039F000059502952AF0070AFAE8026743465946F8
:103A00004846CDE90067FEF7F7FF054600E569285F
:103A100023F010022DD15F0586D583E7DAF8003058
:103A200003910A21029183EAE371A1EBE371DB0FB9
:103A3000CDE90462CDE900132A4690E7CDE90221E1
:103A4000CDE904630190DAF800302A46009386E756
:103A5000DAF8003083EAE370A0EBE37076E713F462
:103A600080620A923FF449AF9F0705D52F460A901E
:103A700048E713460A22BBE64FF48067002E3FF466
:103A8000E2AE00230A9318E79C46134601330A93DB
:103A900000E600BFAFF300800A0000000000000055
:103AA00070B594461E4605460C4684B04FF0FF3272
:103AB000634602A900960348CDE90254FFF78CFC47
:103AC00004B070BDCD33001010B5094B84B01C6834
:103AD0004CB1034600914FF0FF3203A90548A047BF
:103AE000012004B010BD00F033F9204604B010BD31
:103AF000F41A0020C533001000BEFDE708B5FFF73B
:103B0000FBFF00BF38B5064C064DFEF7A3FBAC42E9
:103B100004D254F8043B9847AC42FAD338BD00BFF6
:103B200040670010486700100368084611461847B0
:103B30002DE9F047437D804689461746002B43D048
:103B4000002A32DD00244D1EA24606E06B780A2BC7
:103B50002DD0A74205F1010515D026460134002ECF
:103B6000F4D199F800300A2BF3D198F81430002BD7
:103B7000EFD102211848D8F800309847A742A24652
:103B800005F10105E9D1574506DDD8F80030A7EB6E
:103B90000A0109EB0A00984719F80630A3F10D0352
:103BA000B3FA83F35B0988F81430BDE8F0872B780B
:103BB0000D2BCED0B245DCDAD8F80030A6EB0A01E6
:103BC00009EB0A009847D4E74846D8F80030114678
:103BD000BDE8F047184700BFB87100102DE9F0416B
:103BE0000B680D46802B064605D05A1C2B442A60D4
:103BF0001E71BDE8F0810F4B1C68A4B10E4F01F19E
:103C0000040801E0246974B12368002BFAD03B68F2
:103C10000BB1A342F6D1204641462A68FFF788FF40
:103C20002469002CF0D1002301222B442A601E714C
:103C3000BDE8F081841600208C1600202DE9F04F9D
:103C400083B00D4691461C460746FEF767F94FF0D4
:103C5000FF3C6FF00046254A821841F1000394456D
:103C600076EB03013CBF62463346214802F03CFD3F
:103C70006B1C82462DD04CB3DFF880801D4B1C6836
:103C8000ECB14FF00A0B1C4E01E02469BCB1236873
:103C9000002BFAD033680BB1A342F6D12A4639463D
:103CA0002046C047B9F1000FEFD0204601220DF1A8
:103CB00007018DF807B0C0472469002CE7D1BAF19D
:103CC000000F0BD1284603B0BDE8F08FDFF830803D
:103CD000D4E7384602F0B8FC0546CCE7044802F0C9
:103CE000F3FC284603B0BDE8F08F00BF40420F0050
:103CF000BC0E0020841600208C160020313B0010E2
:103D0000293B0010084A136823B90AE003F11002A6
:103D10001B6933B18342F9D129B91869106019615F
:103D2000704701B1106070478416002000F0A8BAF7
:103D3000012310B5044682B0002219460DF1070098
:103D40008DF80740FFF77AFF204602B010BD00BF94
:103D500038B5044602F078FC012305461A46204691
:103D60002946FFF76BFF054B1C682CB1636803B154
:103D700098472469002CF9D1284638BD84160020C4
:103D80002DE9F041A2B004460D46FEF7C7F84FF00A
:103D9000FF376FF00046254ADFF8A080821841F116
:103DA0000003974276EB03013CBF3A463346204876
:103DB00002F09AFC00272B462246064601A91D4820
:103DC0000197FFF76DFE019B0546D8F80040BBB197
:103DD0004CB3194F01E0246974B12368002BFAD069
:103DE0003B680BB19C42F6D12046019A02A9FFF72D
:103DF0009FFE2469002CF0D10023D8F800400193E5
:103E00002CB1636803B198472469002CF9D11EB91D
:103E1000284622B0BDE8F081054802F055FC28464E
:103E200022B0BDE8F0810194F1E700BF40420F00ED
:103E3000BC0E0020DD3B00108C16002084160020F4
:103E40000FB400B583B004A951F8040B0191FFF73A
:103E500097FF03B05DF804EB04B07047704700BFF4
:103E60000022014B1A707047511B00204B79FF2B29
:103E70000BD1887948B9CB79012B07D1082A05D90C
:103E8000034B8A7809201A7070470020704700BFE2
:103E9000511B002001207047012901D001207047EB
:103EA00008B5104B91881B78994201D0002008BDBD
:103EB0005378012B08D0022BF8D100216422084648
:103EC000FEF704F9012008BD5188CB0548BF480A18
:103ED000C1F3402258BF4FF0FF3001F07F01FEF7E1
:103EE00073F900BF511B0020004870478472001016
:103EF000012907D15378012B02D19388072B03D0D6
:103F000000207047012070471146A623014A01F0A6
:103F1000D9B900BFDC7100100346012201481A70B4
:103F2000704700BFBC71001008B50B68B3F5966F01
:103F300000D008BD00224FF0FF301146FEF744F9D3
:103F4000024A034B10601960704700BF241600201E
:103F500028160020014B1878FDF72EBA521B0020BE
:103F600038B5044600200D4601F094FAA8B30020AD
:103F700001F0A6FA88B3FDF7D1FF4FF0FF3E6FF0D6
:103F8000004C174A821841F1000396457CEB03016F
:103F90003CBF72466346134802F0A6FBE8B100201E
:103FA00001F078FA58B900214FF0FF3000F0BAFC68
:103FB0006FF002040B4802F087FB204638BD00205A
:103FC00001F07EFA0028EED021462A46002001F0BA
:103FD00081FA04460028EDD1EAE76FF00204ECE72D
:103FE00040420F00341B002008B5FDF797FF4FF04B
:103FF000FF3E6FF0004C0F4A821841F100039645D6
:104000007CEB03013CBF724663460B4802F06CFB3D
:1040100070B14FF0FF30002100F084FC002001F06F
:1040200071FA0028F5D1BDE80840034802F04CBB06
:1040300008BD00BF40420F00341B00202DE9F843AB
:1040400080460F46FDF76AFF4FF0FF356FF00044E2
:10405000334A821841F10003954274EB03013CBFDF
:104060002A4623462F4802F03FFB08B9BDE8F883F3
:10407000002001F00FFA002847D0002F40DD002576
:10408000DFF8A890284E13E02246002001F080FAC5
:10409000002104464FF0FF3000F044FC002001F006
:1040A00031FAFDF73BFFC9E900012544AF4227DDA6
:1040B000002001F08DFA7C1B8442A8BF044608EB67
:1040C0000501002CE0D121464FF0FF3000F02AFC22
:1040D000204601F017FA204601F0DCF980B12046B5
:1040E00001F076FA0028E1D1FDF718FFD9F8003089
:1040F000D9F804209B1942F1000283428A41D5D2AB
:104100000848BDE8F84302F0DFBA00200021074B61
:10411000C3E900010348BDE8F84302F0D5BA00BF87
:1041200040420F00341B002020A10700481000204F
:1041300030B5002185B02E4802F0DAFAF0B92D4BE7
:104140001A68CAB1EFF3108172B6D2E8CF5F0124CA
:10415000002DFAD1C2E8454F002DF6D1BFF35F8F95
:10416000254C1D6822785960D3B201222270C5E81F
:104170008F0F81F31088CBB105B030BD00214FF017
:10418000FF3000F0CFFB002001F09AF904461848F8
:1041900002F09AFA002CEFD0184B1B68002BEBD0E2
:1041A000174A106805B0BDE830401847FDF7DCFC41
:1041B0000446FDF7B3FE4FF0FF3C6FF0004510F5ED
:1041C0007A7241F10003944575EB030138BF2B4629
:1041D0004FF000014FF0010520460A4C38BF6246FF
:1041E000CDE901150094FDF727FD05B030BD00BFF6
:1041F000341B0020001B0020531B0020241600202D
:10420000281600200942001070B51A4B1A6812B324
:10421000EFF3108172B6D2E8CF4F0120002CFAD113
:10422000C2E8440F002CF6D1BFF35F8F0022124C7E
:10423000186859602270C0E88F2F81F310880F4EE4
:10424000002430780025FDF7A7F868B90024002580
:104250002046294670BD094E4FF47A743078002507
:10426000FDF79AF80028F1D03078FDF7A5F8204640
:10427000294670BD001B0020531B0020521B00204C
:104280004FF0504330B585B01C68FDF76DFCFDF76D
:1042900033FDA04202D0002005B030BD00212A4BE2
:1042A00008461B7801F052FC28480368002B47D0D1
:1042B0000120FDF715FA0346254C2649C0B22370AC
:1042C000FDF796F820780121FDF750F80E20FDF754
:1042D0007FF840BB204B0125C3E90000FDF744FCFB
:1042E0000446FDF71BFE4FF0FF3E6FF0004C10F54B
:1042F0007A7241F1000396457CEB03014FF0000117
:104300002046164C3CBF72466346CDE90115009429
:10431000FDF792FC0028BEDB01211148FFF7F2FCFB
:10432000012005B030BD0120FCF7EEFF01460A4830
:10433000FDF734FA00220E200A49FDF789F8EBE771
:10434000FDF710FAB4E700BFA4730010341B00207F
:10435000521B002031410010001B002009420010B8
:10436000840E0020553F0010004870472073001055
:1043700000487047CC72001038B5184B04461A78C4
:104380000AB344B940F209424FF44173144D6A80B4
:104390002B80134838BD052C1DD8124B104D53F8F7
:1043A000241028460023013903E0132B20F8022FA4
:1043B0000ED011F8012F0133DBB2002AF5D15B00DA
:1043C00043F44073E4E71121184600F025F8D8E7DC
:1043D0004FF44A73DCE7002038BD00BF3C1B0020CF
:1043E0005C160020B472001000B545F247308BB067
:1043F000FDF7DEFE01220346092101A89847054A80
:1044000005AB03A813F8011D834202F8011FF9D17F
:104410000BB000BD271B0020012924D010B501F1ED
:10442000FF3E0021114C00F1FF3CCA434B08E35C06
:1044300002F001029200134103F00F021346092A11
:1044400001F10101D4BF3033373371450CF8013F1E
:1044500005D01029E9D100231030037010BD0023CE
:104460000844037010BD002303707047281B002010
:10447000F0B4002600F07F041B4D630003EBD01363
:1044800005EB43139870C009DA7680F001021983B6
:10449000DE705A70E300A8B9144A043305EB8411A6
:1044A0009F188F609E503CB90023114A05EB4010C5
:1044B000C2604360F0BC70470E4BE40023444B6085
:1044C000F0BC7047094A05EB841113448B6242F833
:1044D0003460002CE8D0E40004F1A04404F580141A
:1044E0004C62F0BC704700BFF416002080001050F2
:1044F000000110500400105070B500F0F3F80C23C8
:104500004026194CFF22A3670E201849FCF7A0FF94
:1045100032460021164801F0D3FF012500238021F7
:104520001348144A418445700683068782604360BD
:10453000136042F8043C80F8213080F83B3043623D
:104540000D4B4FF00056C360C362803B836202F0A4
:10455000D3F84FF480320949094B2564E664C4F866
:104560009010DA64284670BD0000115075030020D9
:10457000F4160020840010500001105010D00100EB
:104580000020115001210E20FCF7F0BE002202484D
:10459000114600F0C7B800BF14170020044B197073
:1045A00021B14FF40032034BC3F89020704700BF95
:1045B0004E1B0020002011500B785B0602D14B7877
:1045C000052B00D070474B88014ADBB2136070475F
:1045D00000001150CA7802F00302012A36D0F8B563
:1045E0008C78898804F07F052046C1F30A01FFF723
:1045F0003FFF0DB90120F8BD174E6D0005EBD41338
:1046000006EB43131A8B1549DB7E3F32022B22F057
:104610003F020B6808BF52001A44E4090A601049BF
:104620002F1906EB47178A42FB6011D8254406EB89
:104630004515E97E83F0A04383F480136A6843EA5A
:10464000816343F0004313600120F8BD00207047F0
:10465000FDF7FAFDFB68E9E7F4160020FC1A0020DC
:10466000FF0F105002F048B88C4608B511460748B5
:104670001A460CF07F034FEADC1C0CEB430C00EBFA
:104680004C1000F04FF8012008BD00BFF4160020C8
:1046900011F07F0205D100290CBF02200120064B3A
:1046A0009866C909054B01EB420003EB40104FF43B
:1046B0000062002102F014B800201150F41600200E
:1046C00011F07F0300D17047002205485B0003EB27
:1046D000D11300EB43106FF40061C27002F000B818
:1046E000F41600204FF0805209480A4908B50A4BD9
:1046F00002600A609968C94311F08051FAD14FF401
:104700008052064801F0DCFE0922054B5A6708BDBD
:104710000020024000300240000002400000105023
:104720000000115000234FF0010C10B580F81AC0A2
:104730008282C3820161044601F0CEFF20B14FF4B2
:104740000032074BC3F89020204601F0B5FF10B1AE
:104750000123237710BD2046BDE8104001F0A8BF1B
:10476000002011502DE9F04100241D4E054623463E
:104770003278DFF878801B4F0DE03B6813EB441371
:1047800024D0DB682846984732780134E4B2511CC3
:10479000A142234606DBA242A3EB0203EDD808EBBD
:1047A0004313EEE7542200210F4801F089FE4FF039
:1047B000FF330D482022041D4360C4E90133E36048
:1047C000FF21BDE8F041143001F07ABE4FF0E02344
:1047D000D3F8F03DDB0700D500BEBDE8F08100BF97
:1047E0004D1B00206C1000203C1200203473001080
:1047F000704700BF704700BF00207047002070471F
:10480000704700BF704700BF704700BF704700BFD0
:10481000024B5878003818BF012070473C12002026
:10482000024B1878C0F38000704700BF3C12002094
:104830002DE9F047DFF8E4A09AF80030FF2B56D1BD
:104840000E4600293ED0002154220746294801F097
:1048500037FE0022284C294B20461A70FCF782FFB5
:10486000274B28481C60284CFCF78AFF204601F0A3
:1048700069FD264A264B146023B12648FFF74CFBFE
:10488000254B18600024234D23462A78DFF89090AA
:10489000DFF884800EE0D8F8003013EB441311D019
:1048A0005B687BB198472A780134E4B2511CA1427D
:1048B000234611DBA242EED89B1A09EB43135B6837
:1048C000002BEFD14FF0E023D3F8F03DDB0700D50C
:1048D00000BE0020BDE8F087314638468AF80070F7
:1048E000FFF70AFE0028EDD03846FFF74BFE012007
:1048F000BDE8F0873C120020341200204F1B00203E
:1049000090120020B00E00209C0E00209412002077
:10491000193F00104D1B00206C100020B80E002025
:10492000347300102DE9F04FDFF8C8928BB099F87E
:104930000030FF2B00F0F180A84CA94DDFF8B0A2A9
:10494000DFF8B4B226687369EFF3108272B6D3E869
:10495000CF0F01210028FAD1C3E8401F0028F6D16B
:10496000BFF35F8FB261304607A901F091FB0023CE
:104970007269C2E88F3FB36983F31088002800F0A2
:10498000CC809DF81D30013B072B00F27D83DFE8D2
:1049900003F0A7B1959D8E350A04089B002BD1D05A
:1049A00009989847CEE79DF8201001F07F0605EBA7
:1049B000460000EBD11090F8343023F0010380F86A
:1049C000343090F8343023F0040380F83430002E73
:1049D00000F0A680037D9AF80020934280F0938037
:1049E000804A126812EB431300F090809E699DF894
:1049F0002120099B9DF81C00B047A3E79BF80030DD
:104A0000002B00F083809BF80030013BDBB28BF879
:104A100000309BF8003003F0FF00002B92D1704F64
:104A20009DF81C803B7843F001033B7097F83430CD
:104A300060F3000387F8343097F8343060F3820372
:104A400087F8343097F8353060F3000387F8353055
:104A500097F8353060F3820387F8353000F070FC4A
:104A60009DF8203003F06002602A6CD0402A7CD090
:104A700003F01F03012B00F0C180022B00F08180A6
:104A8000002B60D1202A00F0E981002A5BD19DF83B
:104A90002130092B57D8DFE813F0B001A2015600EE
:104AA000C101560095016B0156006001F4002B789E
:104AB000D9077FF547AFFFF7A9FE43E7EB78DA07A1
:104AC0007FF540AF0898FFF795FE3BE72B78D807B6
:104AD0007FF538AF2878C0F3C000FFF795FE31E7C7
:104AE0009DF81C00FFF73EFE00F020FC9DF82030F2
:104AF000AB7027E79DF81C00FFF734FE00F016FCB2
:104B0000FFF780FE1EE7501C984211DA4FF0E023B9
:104B1000D3F8F03DDC0700D500BE0BB0BDE8F08F48
:104B2000099B9DF821209DF81C0000F01DFC09E761
:104B30009B1A2D4A02EB431358E7FFF719FC024674
:104B4000002840F082814FF0E023D3F8F03DDE07EB
:104B500000D500BE9DF81C000021FFF799FD8021C3
:104B60009DF81C00FFF794FDECE6204800F0E8FB00
:104B70000121404608AAFFF7BBF900287FF4E2AE06
:104B8000E8E79DF8241011F0700FDCD101F07F06EA
:104B900007EB4600164B00EBD1101B78007D76002A
:104BA000019698424FEAD116009659D35E1C864270
:104BB000C0F26681C01A0C4B03EB4016002A00F0CD
:104BC0006381706900F0BCFB01214046736908AA4B
:104BD000984700287FF4B6AEBCE700BF94120020CF
:104BE0003C1200206C10002034730010F13E0010C5
:104BF0004D1B0020B80E00204F1B00209DF82430D4
:104C00000F2BA7D8AE4A3B441B791278934232D37C
:104C1000511C99429EDBAB4E9B1A06EB4316706902
:104C200000F08EFB01214046736908AA98470028CE
:104C30007FF488AE9DF8203013F060068AD19DF88D
:104C400021300A3B012B85D800F07AFB9DF82130FA
:104C50000A2B00F0F281404608A900F019FB71E62A
:104C6000994B1B6803EB4016002A00F00D81002EC3
:104C70003FF470AFA5E7944A166816EB4316CED101
:104C800068E77B789DF822609E4200F04F817B7838
:104C9000002B40F0BE817E70002E00F04581701E1A
:104CA000C0B2FFF765FB0346002800F05F81427841
:104CB000022A40F05B81C17903F10906C1F3401279
:104CC0001201C1F3801142EA41123146387820F0D6
:104CD000300002433A705A88CDF80C809A1801923D
:104CE000019B8B4240F2A4814A780B2A00F0AF81ED
:104CF0000123042A40F03A810026019A0096521AB4
:104D000092B202926E4A049312781DE06E4B1B68B9
:104D100013EB461800F02A81029AD8F81030039855
:104D20000591984708280246059906F1010303D921
:104D30000298904280F0FF80DEB2614B00961A78B4
:104D4000531C9E4200F31281009B9642A3EB020289
:104D5000DCD35C4B03EB4218DEE77B7840468DF8F2
:104D60001A300DF11A02012308A900F0ABFAE9E5A7
:104D7000BDF82200030A013B020AC0B20E2B3FF627
:104D8000E9AE01A151F823F09D4F0010394E0010FB
:104D9000D94F0010554B0010554B0010BB4F001061
:104DA000394E0010554B0010554B0010554B00105C
:104DB000554B0010554B0010554B0010554B001033
:104DC0008F4F001008A800F0C1FA40469DF822104D
:104DD000FFF7DCFB3B7843F002033B70B2E5BDF824
:104DE0002230012B7FF4B6AE3B78404623F0080317
:104DF00008A93B7000F04CFAA4E540463B789A08BD
:104E000002F00202C3F340131343ADF81A300DF160
:104E10001A02022308A900F055FA93E5BDF82230E2
:104E2000012B7FF497AE3B78404643F0080308A976
:104E30003B7000F02DFA85E5022A3FF47EAEFFF7C5
:104E4000DDFC024600283FF485AE4046538808A9A1
:104E500000F038FA00287FF475AD7BE69DF8243029
:104E60000F2B3FF677AE164A3B441B7912789342DC
:104E70001DD2154A166816EB43167FF4A2AE69E6FA
:104E8000002A7FF467AE00269DF8212002F0FD0382
:104E9000012B1BD0002A7FF456AE019B009A3B44A5
:104EA000134493F834304046C3F34003ADE7511C3C
:104EB0009942FFF64FAE034E9B1A06EB431680E66F
:104EC0004D1B0020347300106C100020BDF8223000
:104ED000B3B9012A99F8000000F08680FFF7D8FBEB
:104EE000019B009A3B44134493F8342042F00202A1
:104EF00083F8342093F8342042F0010283F8342000
:104F0000002E3FF41FAD706900F01AFA7369012199
:104F100008AA40469847002000F012FA97F835306A
:104F2000DF073FF50FAD96E6FFF76CFC404608A99A
:104F300000F0AEF906E5049B012B00F09E80002BEB
:104F400000F08A804FF0000C05E006715FFA8CF0EB
:104F5000984280F081808878604457FA80F090F819
:104F600004E00CF1010CBEF1FF0FEED04FF0E02396
:104F7000D3F8F03DDA0700D500BE4FF0E023D3F8B8
:104F8000F03DDB0700D500BE00237B70E2E5FEF7B5
:104F9000ABFF024600287FF458AFDBE5FFF7E4F9EA
:104FA000024600283FF4CFAD4046122308A900F086
:104FB00089F900287FF4C6ACCCE5FFF71DFC02465A
:104FC00000283FF4C7AD4046137808A900F07AF9ED
:104FD00000287FF4B7ACBDE5BDF82410FFF7CCF98D
:104FE00002460028EFD1B5E50293FFF769FB019A6D
:104FF000009B3A441A4492F83410029B63F3410137
:1050000082F8341092F8341063F3000182F83410FF
:1050100076E700214046FFF7C1FA4046FFF722FB42
:10502000BB7840460093FFF79DFB009BBB7032E6C8
:10503000DDF80C80FFF7E4FB78E74046012308A980
:105040000DF11A028DF81A6000F03CF97AE40A7842
:10505000CB7811444A784CE63346104804920291CA
:1050600000F01CFE0E4B049A02991B781144009A22
:1050700001339342BFF634AE78E7D8F810C0094840
:10508000844508BF02235DE74FF0E023D3F8F03DED
:10509000DB077FF557AC00BE54E400BF5012002080
:1050A0004D1B0020C556001038B58B7813F0700FDB
:1050B00008D04FF0E023D3F8F03DDB0700D500BE69
:1050C000002038BD074A084B0C46084691781D78E9
:1050D00000F0B4FD0028ECD021462846BDE8384059
:1050E000FFF778BA3C120020B80E00202DE9F047F7
:1050F000DDE908895AB307460C461E4615464FF0AF
:10510000000A16E0E17801F00301B14214D1214612
:105110003846FFF7C9FF78B1A3780AF1010ADA0926
:1051200014BF89F8003088F800302378AA451C4461
:105130000DD06378052BE5D04FF0E023D3F8F03D98
:10514000DB0702D40020BDE8F08700BEFAE70120AB
:10515000BDE8F0870B46064A06481168DA09343282
:1051600003F07F0302EB4303184400F021BD00BFAE
:10517000901200203C1200200B46064A0648116897
:10518000DA09343203F07F0302EB4303184400F0E2
:1051900039BD00BF901200203C12002010B5194804
:1051A00001F07F0C00EB4C0000EBD11090F834C004
:1051B0001CF0010F08D04FF0E023D3F8F03DDA07E0
:1051C00000D500BE002010BD00F1300494F804C0EA
:1051D0000D484CF0010C007884F804C0FFF744FA45
:1051E0000028F0D14FF0E021227960F30002227113
:1051F000227960F382022271D1F8F03DDB07E1D51C
:1052000000BEDFE73C120020B80E002010B51E499A
:105210000446B1F80CC0CA8991F900E0ACEB020376
:105220009BB2402B28BF4023BEF1000F82B00ADBA7
:1052300094454FF000011FD02046144A02B0BDE84B
:105240001040FFF7ABBF94450ED01A4689680F484F
:10525000019301F083F9802120460C4A019B02B0A2
:10526000BDE81040FFF79ABF80210022204602B01F
:10527000BDE81040FFF792BF0A46204602B0BDE8E5
:105280001040FFF78BBF00BFFC110020BC110020B5
:1052900030B50B4C0023A6468C4605460868496885
:1052A000C4E90233AEE803009CF800102846BDE8CC
:1052B0003040C9431A4601F08001FFF76FBF00BFBD
:1052C000FC11002070B5184C0025A6468C460646F9
:1052D00008684968E581AEE80300A260BCF80610E2
:1052E000994228BF1946A181BCF806303BB101B1F3
:1052F00082B13046FFF78AFF60B1012070BD9CF893
:1053000000101A46C943304601F08001FFF746FFFE
:105310000028F2D14FF0E023D3F8F03DDB0700D5B1
:1053200000BE002070BD00BFFC1100200022034B16
:10533000C3E90022C3E902221A617047FC11002070
:10534000014B1861704700BFFC11002030B40246C9
:10535000044C0025234600685168C4E9025503C384
:1053600030BC7047FC11002070B52B4CC909227865
:105370000646B1EBD21F1D4614D043B14FF0E023D7
:10538000D3F8F03DDB0700D500BE002070BD2146FC
:10539000FFF712F923691BB12246032130469847D3
:1053A000012070BD94F90030002B06DBA0680028B6
:1053B000EBD02A46194901F0D1F8A268E3892A44C2
:1053C0002B44A260E2889BB29A42E38107D03F2D32
:1053D00005D93046FFF71AFF0028E1D1CEE723694F
:1053E00023B1022130460C4A984760B1217800234E
:1053F000C94330461A4601F08001FFF7CFFE00286E
:10540000BCD00120CDE701463046FFF741F98021AD
:105410003046FFF73DF9C3E7FC110020BC11002026
:105420002DE9F0410446FFF7F3F908B9BDE8F08132
:10543000FFF7F6F905460028F8D1C82304FB03F36B
:10544000124EF718F9780029F0D010331E44304678
:1054500000F00CFE3F28E9D92846F978FFF77AFEDC
:105460000028E3D0304600F001FE3F28F97808D943
:10547000074A284602EBC4124023BDE8F041FFF77B
:105480008DBE2846BDE8F041FFF776BEF41000203F
:105490007010002010B50446FFF7BAF908B90020D3
:1054A00010BDFFF7BDF90028F9D1C822034B02FB5C
:1054B0000433187900F0010010BD00BFF410002083
:1054C000C82208B5024B02FB003000F0B5FD08BD54
:1054D0000411002010B54FF6FF7E72454FF0C80C46
:1054E00028BF7246064B044692B20CFB003000F017
:1054F000F7FD034620461C46FFF792FF204610BDED
:10550000041100202DE9F0410446FFF781F910B99C
:105510000020BDE8F081FFF783F905460028F7D1A8
:10552000C82604FB06F6DFF8648006F1240747442A
:10553000384600F081FD0028EAD0B044284698F8AB
:105540000210FFF707FE0028E2D00F4E384606EBA8
:10555000C4163146402200F0C3FD98F802100446FC
:1055600068B1034632462846FFF718FE50B94FF09F
:10557000E023D3F8F03DDB07CAD500BEC8E7FFF74C
:10558000FBFDC5E72046C4E7B0100020F410002062
:1055900038B54FF6FF75C823AA4228BF2A460B4CE0
:1055A00092B203FB00440546204600F019FE034674
:1055B00020461C4600F040FD3F2801D8204638BD5B
:1055C0002846FFF79FFF204638BD00BF1811002076
:1055D000C82208B5024B02FB003000F047FD08BDB1
:1055E00018110020F0B5002483B0C822002117480C
:1055F00000F066FFFF234FF4E131082214480470E5
:1056000012480094074643718160827300F13801AB
:1056100001234022103000F0DFFC0123402207F17B
:105620007801009307F1B80607F1240000F0D4FCDC
:1056300007F1C0053046FCF795F82846FCF792F8CC
:10564000C7E90746C7E90C5403B0F0BDF4100020C9
:10565000F0100020074A116A106B11B100230121DC
:10566000D36110B10023C2E90C3309B100231362E6
:1056700001207047F4100020002210B50E4C0F4896
:10568000237802600271DA0707D59B070BD5BDE8C6
:10569000104001210A4800F071BE103000F052FEA7
:1056A00023789B07F3D4064800F04CFEBDE8104079
:1056B0000121034800F062BEF0100020F410002029
:1056C00018110020F0B54B7983B0022B02D18B79F1
:1056D000022B03D00025284603B0F0BD254FBB7830
:1056E0003BB14FF0E023D3F8F03DDB07F2D500BE2D
:1056F000F0E78B7806463B700B780925CC1861786B
:10570000242907D014E023781C4461782B442429F1
:105710009DB20DD1AA42F6D26378042B02D16379EF
:105720000A2B14D00020FFF77BFE284603B0F0BD03
:105730000529F1D121463046FFF7B6FC0028D0D02C
:10574000A3787B7023781D44ADB21C44E4E70A4B78
:105750002778019301330093022330461A46E1195A
:10576000FFF7C4FC0028BCD00E3517FA85F5ADB2A2
:10577000D8E700BFF4100020F6100020137803F0E3
:105780006003202B08D170B5264C938894F800C094
:105790009C4503D0002070BD002070475378203B0B
:1057A000032BF7D8DFE803F027230D0201292ED0C1
:1057B00003291ED11C4BE3B100205188AFF30080B8
:1057C00017E0012923D0032913D15588174805F084
:1057D000010686F00101257100F0D0FD144B43B1A4
:1057E00031460020C5F34002AFF3008001E00129FB
:1057F00011D0012070BD01290DD00329F9D10D4B25
:10580000002BF6D000200C49FEF78EFBF1E7114685
:10581000FFF73EFDEDE711460723074AFFF752FD6C
:10582000E7E700BFF410002000000000181100207E
:1058300000000000293F0010FC1000202DE9F84373
:10584000354E0C46F27807468A421D463DD0B37865
:105850008B4212D04FF0E023D3F8F03DDB0732D477
:105860000020BDE8F8832D4B23B12D4800F0F4FB58
:1058700000284DD00020FFF7D3FDB378A34201D01C
:105880000120EEE7274B13B10020AFF3008000208A
:10589000FFF738FE0028F3D1234800F0CDFB0028A5
:1058A000EED1002DECD015F03F05E9D13846B178A6
:1058B000FFF750FC0028E3D02B462A463846B17843
:1058C000FFF76CFCDCE700BECAE79AB2174906F1A5
:1058D000100000F085FC164B002BC4D07379FF2B11
:1058E000C1D0002DBFD0DFF8448008EB050902E0ED
:1058F000C845B8D0737918F8012B9A42F8D10848F6
:1059000000F0AAFB0028F3D17179AFF30080EFE734
:10591000AFF30080AEE700BFF410002000000000ED
:105920000411002000000000181100207010002059
:1059300000000000F0B54FF4137285B0002112484A
:1059400000F0BEFD402600234FF480750E4F0F4C33
:1059500007F5A6721946CDE90246009201951A464E
:1059600007F5947000F0C4F90023384607F12801C8
:105970003444009101221946CDE9024601950430D4
:1059800000F0B6F905B0F0BDD81300205813002080
:1059900008B5054800F0D8F9034BA3F5927000F064
:1059A000D3F9012008BD00BF0015002038B500253F
:1059B000064C04F59870257000F0C4FC04F10C004E
:1059C00000F0C0FC84F82951657138BDD81300205F
:1059D0002DE9F8434B79FF2B51D1354E96F82931FB
:1059E000002B4CD196F80580B8F1000F47D18B7889
:1059F0000C7833700B790F460C44ABB38146A51875
:105A000003E0A54230D923781C446378052BF8D1F4
:105A1000AC4229D221464846FFF746FB40B3A37863
:105A2000DB092FD1234800F08DFCA37896F82821BC
:105A300086F82931A3884846C3F30A03A3F5007307
:105A4000B3FA83F35B0963F341021B4986F828210B
:105A500000F0E8F960B123783A7908F101081C44B4
:105A60005FFA88F39A42D0D8E11B88B2BDE8F88388
:105A70004FF0E023D3F8F03DDB0700D500BE002057
:105A8000BDE8F8830D4800F05DFCA37832797371AE
:105A9000A3880B49C3F30A03A3F50073B3FA83F396
:105AA0005B0963F341020020327100F083F9D2E711
:105AB000D81300200815002000150020E413002052
:105AC000DC13002070B51B4C064694F829C11D4616
:105AD0008C4511D063798B4201D0002070BD164BEC
