:020000041000EA
:10000000002008205D0100101301001015010010F0
:100010001101001011010010110100101101001058
:100020001101001011010010110100101701001042
:100030001101001011010010190100101B01001026
:100040001D0100101D0100101D0100101D010010F8
:100050001D0100101D0100101D0100101D010010E8
:100060001D0100101D0100101D0100101D010010D8
:100070001D0100101D0100101D0100101D010010C8
:100080001D0100101D0100101D0100101D010010B8
:100090001D0100101D0100101D0100101D010010A8
:1000A0001D0100101D0100101D0100101D01001098
:1000B0001D0100101D0100101D0100101D01001088
:1000C0001D0100101D0100101D0100101D01001078
:1000D0001D0100101D0100101D0100101D01001068
:1000E0001D0100101D0100101D0100101D01001058
:1000F0001D0100101D0100101D0100101D01001048
:100100001D0100101D0100101D0100101D01001037
:1001100000BE00BE00BE00BE00BE00BEEFF3058004
:10012000103800BEF2EB8871248600106086001043
:10013000A801001090A31AE7D3DEFFFF42012110AF
:10014000FF010000DC920000793512AB4FF0000097
:100150002049086006C881F3088810474FF05040D6
:10016000006810B14FF00000F2E70FA40ECC002998
:1001700002D000F015F8F9E71749184A002000E00E
:1001800001C19142FCD1002080F30A8814498847BC
:10019000144988471449884700BEFDE701C901C2D8
:1001A0009A42FBD3704700BF608600101001002008
:1001B000C40E002014940010000008200000082045
:1001C0001494001000100820001008200000000007
:1001D0007047000008ED00E0C40E0020701B0020F6
:1001E0001D4400103102001015440010F8B500BF86
:1001F00010B5054C237833B9044B13B10448AFF361
:1002000000800123237010BD50100020000000006A
:100210006070001008B5034B1BB103490348AFF3EE
:10022000008008BD00000000541000206070001025
:100230002DE9F04F93B004F005FA4FF4E1316E4828
:1002400002F08CFA0221002001F012FB02210120B1
:1002500001F00EFB694804F007FA694804F004FA5B
:10026000684804F001FA6849684804F075FA002308
:1002700001211A46664804F06FFA664804F0F4F962
:100280005E4804F0F1F9192001F024FB4FF001065B
:10029000192346EC44304FF0000242EC403000F0AD
:1002A0002DFB5D4804F0E0F9642000F04FFE64216E
:1002B0005A4804F051FA5A4804F0D6F9012000F0E7
:1002C00053FC98B90546574804F0CEF90E2156481C
:1002D00004F042FA192446EC4040642002F008F988
:1002E00045EC4040642002F003F9F3E708214F4851
:1002F00004F032FA4E4804F0B7F9002000F034FC64
:10030000002800F05A824B4804F0AEF94A4800F049
:10031000E3FE3D49494804F01FFA4FF4FA7146489C
:1003200000F034FF7D21444800F036FF444804F0DB
:100330009BF9324804F098F9424804F095F9424894
:1003400004F092F93049414804F006FA00230121F3
:100350001A463F4804F000FA3E4804F085F902F0DE
:1003600061F93D4CDFF8D080DFF8F4A009900A91E4
:1003700023E023680E99013323609DF84430374809
:1003800006939DF843309DF83C2005939DF842303C
:1003900004939DF8413003939DF8403002939DF8FB
:1003A0003F3001939DF83E3000939DF83D3004F0BE
:1003B000D3F940460EA900F0BBFE01200EA900F0C3
:1003C00031FD0028D5D100200EA900F02BFD00281A
:1003D000F9D10A21404600F0FBFE0138082844D834
:1003E000DFE810F0A3019F019B01970193018F01AA
:1003F000E701DE01400000BF00000740AC700010C4
:10040000B070001074710010BC710010C471001045
:10041000087200105472001018730010547300100A
:1004200084730010B8730010F07300103074001063
:1004300070740010E8740010981600200C750010FD
:100440003C75001070750010A0750010BC75001090
:10045000CC750010E4750010901600201476001082
:10046000F0160020B34804F0FFF800F05BFDB2493D
:1004700005460B6898F80020C31A202B0FD9086096
:10048000002A00F09E810B2A00F09B8140460EA9B5
:1004900000F058FE002840F0F08198F80020A74BAB
:1004A000062AB3F9003040F0AB81A548B8F819101E
:1004B0000288914284BF0132028098F8442052425F
:1004C000934203DD9D49023B1BB20B809A4201DD42
:1004D0009A4B1A809A4B4046198800F04FFE974B72
:1004E0004046B3F9001000F04DFE98F80030062B9E
:1004F00000F0728100F03EFA4FF0504256685568A5
:1005000006F080030B9305F4807381460C93C5F3CA
:1005100000231D460D9300F01FFA8A4BC6F3C01B43
:100520001A785E464A4507460AD083F80090B9F12A
:10053000000F00F05D81844A0921844804F00CF921
:10054000834A1378B3420AD00B9B82F800B0002B89
:1005500000F050817F4A07217F4804F0FDF87F4A70
:100560001378AB420CD013469DF834201A700C9BC4
:10057000002B00F04181774A0821794804F0ECF81B
:10058000784A1378BB4208D01770002F00F03681EC
:10059000754A0F21754804F0DFF800F0D5FC744A65
:1005A00098F8000013680A331360821E082A00F2CC
:1005B0009D80DFE802F005059B05A49B9B9B9E00A8
:1005C000FA2293420AD30023694A1360694A1378D6
:1005D00083F001031370192243EC40206649D8F8D8
:1005E00004200B68D31AB3F57A7F60D30A6001F058
:1005F00027F9DAF80030B8F84A2003935F4B014638
:100600001B685F4802932368019398F84E3000936B
:10061000B8F94C3004F0A0F82D21012000F0DCF9ED
:100620001C210546012000F0D7F91D2107460120B5
:1006300000F0D2F92C218146012000F0CDF93021C3
:100640008346012000F0C8F90E210646012000F083
:10065000C3F90346602101200C9300F0BDF9024666
:10066000702101200B9200F0B7F90B9A0C9BCDE999
:10067000032002933A464B4629464248CDF800B043
:10068000019604F069F8AF0600F1EB80E80600F18E
:10069000E480290700F1DD806A0700F1D680330786
:1006A00000F1CF8098F83930002B40F0B78042F24B
:1006B0001073099A4FF0FF31D3180A9A1D4642F180
:1006C00000006FF000420993DAF80030A94203F10C
:1006D0000103CAF8003072EB00030A9038BFCDE97D
:1006E0000912DDE9090101F0A5FE66E64FF47A7210
:1006F00067E719234FF0010242EC40306EE77D229C
:100700005FE7214803F0B0FFAFE6204803F0ACFFFD
:10071000ABE61F4803F0A8FFA7E61E4803F0A4FFBE
:10072000A3E61D4803F0A0FF9FE61C4803F09CFFD2
:100730009BE600BF8C770010F81A00205E1B00209B
:10074000200E0020661B002060700010247800102E
:10075000671B00209070001040780010681B00207C
:100760005C780010651B00209C70001078780010E9
:10077000001B0020691B0020EC16002094160020AE
:1007800098780010E478001034770010007700109B
:10079000E0760010B47600109476001060760010B9
:1007A00098F8480001F058F80146434803F0D4FF98
:1007B0005BE6424803F058FF57E6414803F054FF18
:1007C000A4E5404BB3F90030002B4EDB3FF482AE82
:1007D0003C4A013B13807DE698F84E304F2B7FF664
:1007E00089AE394803F0B8FF404600F0D9FC81E6F5
:1007F000364AA1E6364AAEE6354ABDE6354AC8E68F
:10080000002B36DB02D02F49013B0B80073A012A2F
:100810003FF660AE00232B4A13805BE698F8363033
:10082000B8F83120029398F83530B8F828100193C1
:1008300098F834302848009398F8333003F08CFF50
:1008400035E7264803F010FF2CE7254803F00CFF9E
:1008500025E7244803F008FF1EE7234803F004FFC0
:1008600017E7224803F000FF10E7164A0133138010
:1008700030E6144901330B80C8E701200EA900F0CF
:10088000F9F920B11A4A13680133136005E6194BD0
:100890001B68EB1AB3F5FA7FFFF4FFAD154B30215F
:1008A00001201D6000F098F8024613481146C2F37B
:1008B000C00203F051FFF0E5787700104C7700108C
:1008C000A47400105E1B0020E87700107C700010FC
:1008D00098700010A4700010D0790010B07900104A
:1008E00094790010787900105C7900104479001038
:1008F00094160020F41A0020B877001038B50F20A5
:1009000000F0E8FF4FF001050F2345EC44304FF0B5
:10091000000444EC4030072000F0DCFF072345ECE6
:10092000443044EC4030082000F0D4FF082345EC6C
:10093000443044EC4030092000F0CCFF092044EC66
:100940004400BDE838400122002100F0AFBF00BFE5
:100950000F2340EC403070474FF050435868C0F3CD
:10096000C0307047072340EC40307047082340EC0C
:10097000403070474FF050435868C0F340207047F4
:1009800010B5144B82B003EB00114FF00002CC798C
:10099000000142EC404000BF00BF00BF00BF4FF06D
:1009A000C00C18580DF1070201230DF106018DF856
:1009B00006C006F019FB00BF00BF00BF00BF4FF02C
:1009C000010343EC4040052002B0BDE8104001F0B7
:1009D0008FBD00BF2C830010F0B51D4B83B003EB1F
:1009E000001200270D46D679000147EC406000BF99
:1009F00000BF00BF00BF4FF0030C1C580DF10702F1
:100A00000DF10601012320468DF806C006F0ECFA30
:100A10000DF107020DF10601012320468DF8065065
:100A200006F0E2FA012320460DF107020DF106015E
:100A30008DF8067006F0D8FA9DF8070000BF00BFD9
:100A400000BF00BF4FF0010343EC406003B0F0BDB6
:100A50002C830010F0B51D4B050103EB001083B093
:100A60004FF0000C0E461446C7794CEC407000BFA6
:100A700000BF00BF00BF4FF0020C5D590DF107022F
:100A80000DF10601012328468DF806C006F0ACFAE8
:100A90000DF107020DF10601012328468DF80660CD
:100AA00006F0A2FA012328460DF107020DF1060116
:100AB0008DF8064006F098FA00BF00BF00BF00BFE7
:100AC0004FF0010343EC407003B0F0BD2C830010E5
:100AD0002DE9F041234C1D4604EB001382B04FF08A
:100AE000000C0F46164693F8078000014CEC40803E
:100AF00000BF00BF00BF00BF052324588DF806309B
:100B00000DF107020DF106010123204606F06CFAF3
:100B10000DF107020DF10601012320468DF8067044
:100B200006F062FA0DF107020DF1060101232046DD
:100B30008DF8066006F058FA012320460DF10702F1
:100B40000DF106018DF8065006F04EFA00BF00BF09
:100B500000BF00BF4FF0010343EC408002B0BDE88E
:100B6000F08100BF2C8300102DE9F041404F044676
:100B700007EB0015EE794FEA0018304600F0AAFEA8
:100B80004FF0010343EC446043EC406001212879BD
:100B900000F06EFE6879012100F06AFEA87901215B
:100BA00000F066FE57F80860E968304606F0DCF8A9
:100BB0003346022753F8041F06F5805503F54052CB
:100BC00017603268394082F0070203F5005302F0E3
:100BD000CF022A6020461960FFF7D2FE0E21204680
:100BE000FFF7FAFE00F0E000802802D00020BDE808
:100BF000F08100222A212046FFF72CFF9122292193
:100C00002046FFF727FF012228212046FFF722FF79
:100C1000642260212046FFF71DFF602270212046DC
:100C2000FFF718FFA3222B212046FFF713FF002216
:100C30002C212046FFF70EFF00222D212046FFF732
:100C400009FF0023E0220F212046FFF741FF642522
:100C500003E001F04DFC013DC8D00E212046FFF716
:100C6000BBFE1F284FF00100F3D8BDE8F08100BFA4
:100C70002C8300102DE9F0470D4682B03021044648
:100C8000FFF7AAFE10F0080603D0002002B0BDE86E
:100C9000F087DFF88C814FEA041908EB0410C37960
:100CA0002C6846EC403000BF00BF00BF00BF0223ED
:100CB00058F809708DF806300DF1070201230DF187
:100CC0000601384606F090F931230DF107028DF840
:100CD00006300DF106010123384606F085F9E208D9
:100CE00001238DF806200DF106010DF107023846AB
:100CF00006F07AF9640101230DF107020DF10601F6
:100D000038468DF8064006F06FF901230DF1070211
:100D10000DF1060138468DF8066006F065F90123ED
:100D20000DF107020DF1060138468DF8066006F058
:100D30005BF92A7901238DF8062038460DF1070268
:100D40000DF1060106F050F92B79002B66D02E1D0F
:100D5000344616F8011F01238DF8061038460DF1B0
:100D600007020DF1060106F03FF9033C95F804A0D7
:100D7000641BA245ECDCBAF1070F0FDC0024012351
:100D800038460DF107020DF106010AF1010A8DF84E
:100D9000064006F029F9BAF1080FF0D100BF00BFF4
:100DA00000BF00BF08EB09034FF00106DC7946ECF9
:100DB00040404FF0000343EC404000BF00BF00BF85
:100DC00000BF022358F809508DF806300DF10702D4
:100DD0000DF106010123284606F006F930230DF136
:100DE00007028DF806300DF106010123284606F0B2
:100DF000FBF8082328468DF806300DF10702012381
:100E00000DF1060106F0F0F800BF00BF00BF00BF03
:100E100046EC4040012002B0BDE8F0879A46ADE7BD
:100E20002C8300102DE9F04F884689B02C21814693
:100E3000FFF7D2FD10F003036ED010F00103019311
:100E400008BF0223DFF8D8A04FEA091B08BF0193AF
:100E50000AEB0B0314BF61247124DB794FF000020D
:100E600042EC403000BF00BF00BF00BF03235AF870
:100E70000B508DF80F3004AA01230DF10F01284605
:100E800006F0B2F80123284604AA0DF10F018DF8EF
:100E90000F40002706F0A8F804AC0DF11D06012351
:100EA00028460DF10F020DF10E018DF80E7006F0BF
:100EB0009BF89DF80F3004F8013BB442EFD100BF1E
:100EC00000BF00BF00BFDA444FF001029AF80730BC
:100ED00042EC40309DF814209DF8113002F00F02D2
:100EE000082A28BF08229DF810105B0943EAC103B5
:100EF000C8F800300DF1150188F8042008F105004C
:100F000005F0B8FF484600232C21019AFFF7E0FDC9
:100F1000012009B0BDE8F08F184609B0BDE8F08F98
:100F20002C83001008B501F07DFB29B14FF47A72D3
:100F3000002306F051F808BD024AA2FB00208009F8
:100F400008BD00BFD34D621001F004BD42F26C0237
:100F500090424FF47A7328BF1046012103FB00F042
:100F600001F002BD00B500234FF6647CFF21022290
:100F70004FF0080E036043608360C360036180F834
:100F80000DE04361A0F802C00171027200BD00BF14
:100F90004FF0080C4FF4847210B4002340F209148F
:100FA0000A6081F804C002784A71B0F801208A71A1
:100FB000B0F8012022FA0CF2CA71C2780A72828853
:100FC0004A7282880C6122FA0CF28A72CB720B731D
:100FD00081F814C082794A75B0F807208A75B0F894
:100FE000072022FA0CF2CA75427A4B760A76837A87
:100FF0008B76C37ACB76037B5DF8044B0B77704717
:1010000040F2011C0A680346624523D0B2F5817F95
:101010000DD0B2F5807F2BD10122B1F809001880E4
:10102000C97ADA730022012099705A61704701224F
:1010300048791872C888A3F80900087AD872487AE3
:101040001873887A5873C97A5A74002201209973E8
:101050005A61704701228879D870C8791871087A66
:10106000587149891A7400220120D9805A61704749
:101070000020704738B503780A2B20D0104A044668
:101080000B2B0D4652F8211096BF0E4A0E4A52F80D
:1010900023200E4803F060FB23780D480B2B96BFEE
:1010A000084A094952F8231084F84850094A03F0C5
:1010B00053FB0A210023227863602170627038BDDF
:1010C0004C83001088830010A87A0010B07A0010BA
:1010D000E47A0010D47A00102DE9F0410446124958
:1010E0001248B4F84A80B4F94C7094F84E60B4F8E1
:1010F000505003F031FB54220021204605F06CFED5
:101100000223A3774FF6FF7304F12800A4F82330DD
:10111000FFF728FFA4F84A80A4F84C7084F84E60CA
:10112000A4F85050BDE8F081BC710010007B0010A5
:1011300010B504462830FFF763FF08B10023A36011
:1011400010BD00BF30B504460D4689B06946183061
:10115000FFF71EFF94F8403008AA03F0010302EBEA
:101160000313203B0FCB85E80F00012094F840309B
:10117000034484F8403009B030BD00BFA0F84A10E5
:10118000704700BFA0F84C10704700BFB1F5FA7F60
:1011900098BFA0F819107047C82998BFC17670474A
:1011A0000378062B00D0704710B50446054A06495F
:1011B000064803F0D1FA07210023227863602170EA
:1011C000627010BD1C7B0010287B0010E47A0010B8
:1011D0002DE9F843C368057842680B44C3606B1E71
:1011E0000A44052B044642600AD883681944B1F5C5
:1011F0007A7F81601DD8B4F850103C2911D8257829
:101200000B2D00F2E682DFE815F0C4002A005E0034
:101210008500A300290145017001BB01E90012010D
:101220002000C24803F098FA06212046FFF722FF6B
:10123000E5E7BF4803F090FA01212046FFF71AFFC7
:10124000B4F850103C29DAD9EBE7FFF793FB0546D9
:10125000002800F0528200252846BDE8F8830120CE
:10126000FFF780FB94F83930B24894F8382094F8AE
:10127000371003F071FA94F83730002B00F08B81AF
:1012800094F83830002B00F0868194F83930002B28
:1012900000F08181A84803F0E7F92378A7480B2BD9
:1012A00096BFA74AA74952F82310A74A03F054FA59
:1012B0000225002301222178C4E9013325706170E1
:1012C00084F84520C8E794F83930002BC3D094F84F
:1012D0003330228D94F830109C4803F03DFA94F896
:1012E0003030218D012B88BF0223B4F8192088BF2C
:1012F000A377914240F25C82954803F02DFA94F86E
:101300002230092143F00803204684F82230FFF7F9
:10131000B1FEA0E794F822108E4841F0040184F851
:10132000221003F019FA0120FFF720FBFFF722FB40
:10133000002840F0C48141F2873362689A428AD91A
:10134000854803F091F901212046FFF793FE82E7DB
:10135000B4F84A10092900F28E8141F2873362689D
:101360009A427FF678AF7D4803F07EF92378734880
:101370000B2B96BF724A734952F82310784A03F038
:10138000EBF9002305222178636061702270A3606D
:1013900062E7FFF7EFFA2369002800F05681002B7F
:1013A00000F0D7816268D21AC72A7FF654AF6D4821
:1013B00003F05AF9237861480B2B96BF604A6149C4
:1013C00052F82310684A03F0C7F90122002321785C
:1013D0001546C4E90133617022703DE70025002005
:1013E000FFF7B6FA284684F84650FFF7BBFA2846BE
:1013F000FFF7BCFA94F82230626823F02503632AD1
:1014000084F822307FF627AF23784C480B2B96BF09
:101410004B4A4C4952F82310544A03F09DF90B21D2
:1014200000232278072521706270636014E76368E7
:10143000312B40F2F380632B40F29181C72B00F2F5
:10144000AA810020FFF78EFA0020FFF78FFA94F8A8
:10145000223023F0040384F82230FCE6B4F84A106A
:1014600094F83520A4F81F10414803F075F994F85A
:101470003530190740F10D8142F20F7362689A42CC
:101480007FF6E9AE3B4803F0EFF802212046FFF774
:10149000F1FDE0E694F83410002940F0AC8084F8C7
:1014A000411094F8393023B194F83330002B00F018
:1014B000628194F83530DA0600F118811B0700F1DB
:1014C0005581B4F94C30B4F84A20002BA4F81F2001
:1014D000DAB294F82230BCBF5242D2B243F00103D8
:1014E00084F8212084F82230B5E6002194F82230D7
:1014F00094F8352023F0010343F0200312F008058F
:1015000084F8223084F8211004D1B4F94C30002B37
:1015100040F0A0801849194A084803F01DF9082135
:101520000023227863602170627094E66C7B001067
:101530003C7B0010387C00107C7C0010E47A0010AA
:1015400088830010A87A0010B87C0010007D00107D
:101550003C7D0010AC7D00102C7E0010A07E0010A1
:10156000D07E0010C87B0010FC7B0010E87F0010CC
:10157000DC7E00104C7F00101C7B0010C47F00102C
:101580006368952B7FF667AE9449954A954803F0BA
:10159000E3F80921C4E741F2873362689A427FF693
:1015A0005AAE914803F060F80020FFF7DBF98F494D
:1015B0008F48B4F84A80B4F94C7094F84E60B4F88F
:1015C000505003F0C9F854220021204605F004FCD5
:1015D0000223A3774FF6FF7304F12800A4F8233009
:1015E000FFF7C0FCA4F84A80A4F84C7084F84E6061
:1015F000A4F850502FE694F841300133DBB2032BAE
:1016000084F841307FF64DAF84F84910794803F0F3
:10161000A3F80E212046FFF72DFD1CE694F8483074
:1016200075480E2B96BF754A754952F8231003F082
:1016300093F8002294F8223084F8212023F001034B
:1016400043F0020384F8223005E6002B7DD100230D
:10165000236100E641F2873362689A427FF6FBAD70
:101660005E4A68495F4803F077F80823227865608E
:1016700062702370EFE5644803F06EF841F287333F
:1016800062689A427FF6E7AD0B212046FFF7F2FC35
:10169000E1E55E4802F0E8FF227894F822300B2A58
:1016A00043F0010384F8223096BF594B544953F854
:1016B00022104C48574A03F04FF8062286E6564857
:1016C00002F0D2FF237847480B2B96BF504A4C4973
:1016D00052F82310514A03F03FF8002304222178E6
:1016E0000325636061702270A360B5E54949454AEE
:1016F0003C4803F031F8072112E7494802F0B4FFF3
:101700003A493B48B4F84A90B4F94C8094F84E708A
:10171000B4F8506003F020F829465422204605F022
:101720005BFB0223A3774FF6FF7304F12800A4F8B4
:101730002330FFF717FC0925A4F84A90A4F84C8041
:1017400084F84E70A4F8506086E5364802F08CFFAD
:101750007DE7354802F088FF636823617BE5002060
:10176000FFF7F6F8002384F8463074E50C21204694
:10177000FFF780FC6FE52D4802F076FF23781948CB
:101780000B2B96BF224A1E4952F823101D4A02F025
:10179000E3FF0721C4E6264A2649124802F0DCFF8F
:1017A0000B2100232278082521706270636053E5C5
:1017B000214802F059FF23780A480B2B96BF144AA0
:1017C0000F4952F823101D4A02F0C6FF00230322DE
:1017D00085E70E212046FFF74DFC3CE5C47F001055
:1017E000D87F0010E47A0010C47C0010BC71001097
:1017F000007B00106C7F0010F07F00104C83001005
:10180000A87A00101C7B00105C7E0010147F001072
:1018100088830010287B0010E87D00101C7E0010DB
:10182000308000100C7C0010987B0010947F00101A
:10183000E87F0010D47A0010787D0010A07D0010A1
:101840000B289ABF024B53F820000248704700BF94
:1018500088830010A87A00100E289ABF024B53F814
:1018600020000248704700BF4C830010A87A001087
:1018700010B44FF480740C4B53F8202003EB80031A
:10188000C00082F0400200F1804003F5805C02F06D
:10189000C00200F5203003F54053CCF80020416031
:1018A0001C605DF8044B70470480034010B4084C82
:1018B000C90041EA820154F8202004EB8003514022
:1018C00003F5805301F00C0119605DF8044B70477B
:1018D0000480034030B44FF0000343EC440043EC79
:1018E000400005254FF480740B4BC20053F82010C4
:1018F00003EB800081F0400102F1804303F52033C7
:1019000001F0C00200F5805100F540500A605D60B2
:10191000046030BC704700BF048003400FB400B5C2
:1019200083B0049C074802F09FFE3CB105A9204605
:10193000019102F055FD044802F096FE012002F0EC
:1019400067FD00BF588100106881001070B58646A1
:10195000EFF3108572B6124CD4E8CF6F0120002E41
:10196000FAD1C4E8460F002EF6D1BFF35F8F4FF0D7
:10197000010CC80801F007030CFA03F31EF800C0BD
:101980001CEA030608D14CEA030C0EF800C0C4E8B8
:101990008F6F85F3108870BD1046FFF7BFFF00BF43
:1019A0001B120020F8B5EFF3108772B61C4ED6E874
:1019B000CF5F0124002DFAD1C6E8454F002DF6D1A6
:1019C000BFF35F8F9A421BD8012502E00132934298
:1019D00022D3D40810F804E002F0070C05FA0CFC3E
:1019E0001EEA0C0FF2D14EEA0C0E00F804E010468D
:1019F0000023C6E88F3F87F31088984207DBF8BDC5
:101A00000023C6E88F3F87F310884FF0FF3000298E
:101A1000F5D00698FFF782FF4FF0FF30E8E700BFF0
:101A20001B120020044A1078431CDBB2182B28BF7D
:101A300010231370704700BF220E002010B5054C14
:101A400082B001461F23182200940348FFF7AAFF23
:101A500002B010BD6C8100102C1600204FF0E02267
:101A6000936843F000539360704700BF0021044B1C
:101A700003F12002C3E88F1F01339342FAD170476C
:101A8000101200204FF08030034B04491A460433F3
:101A90008B421060FAD1704700E400E034E400E0CB
:101AA000012300F01F029340400941B1800000F182
:101AB000604000F56140C0F8803103607047024A21
:101AC000203042F82030704700E100E00123064A50
:101AD000410952F8212000F01F0003FA00F01040E5
:101AE000003818BF0120704700E100E001224309DF
:101AF000034900F01F008240403341F82320704723
:101B000000E100E0054A10309268054B52F82000D1
:101B1000C01A2F288CBF00200120704700ED00E084
:101B2000240E0020F8B50D46EFF3108772B6124E62
:101B3000D6E8CF2F0123002AFAD1C6E8423F002A77
:101B4000F6D1BFF35F8F0D4B00F110049B680C4A78
:101B500053F82430934203D0994201D001F000F8A9
:101B6000064B9B6843F82450BFF35F8F0023C6E801
:101B70008F3F87F31088F8BD1912002000ED00E0B8
:101B80001D0100102DE9F04F81468B46164683B0AB
:101B9000EFF3108372B6DFF8D0A10093DAE8CF1F1D
:101BA00001230029FAD1CAE8413F0029F6D1BFF349
:101BB0005F8F664B93F90040002CC0F2A080644D0B
:101BC00004EB440705EB870898F8061009F11009A3
:101BD0001970604BBF009B6853F829006300411BDC
:101BE0002F292FD95C49884240F0A4801C445B4BCC
:101BF00002372F44043BDB1BC3F34A036FEAC343A2
:101C00004FF421416FEAD34325F8241005EB8404F7
:101C100063804BF60153A380FF2348F00100E67177
:101C2000C4F808B0A3714B4B9B6843F82900BFF37D
:101C30005F8F0023CAE88F3F009B83F3108803B0B7
:101C4000BDE8F08F20F0010E9EF80710B1422ED8AB
:101C50004FF42143EB53414BB91C2944043B043757
:101C60005B1A2F44AEF10401C91BC1F34A043C497D
:101C7000C3F34A030B432143A8F804103949A8F8D9
:101C800002304AF6AA2073465B1B5B415843000DA5
:101C900088F8076088F80600C8F808B048F0010026
:101CA000CEF80010BFE7D179B1422ED996469EF901
:101CB00006C00CEB4C02BCF1000F05EB8202F2DA1D
:101CC0004BF601510EF10402A8F10407BF1AC7F345
:101CD0004A076FEAC7476FEAD7478EF8064003EB1B
:101CE0000408204C05EB8803AEF8047045F8284042
:101CF000998083F806C0DE71C3F808B093E700F05E
:101D00002FFF124B93F9004059E7724632F8041F37
:101D1000490514D44915023102EB410101916FF0DC
:101D20000701C91B019F491B3944C1F34A0141F412
:101D30006041C9E7019300F013FF019B56E701F5ED
:101D4000FF1101F5FF511F31E4E700BF631B0020C5
:101D5000240E002000ED00E01D010010540E0020B4
:101D600000E0FFFF01488047191200202DE9F041F3
:101D7000EFF30586F6B2EFF3108E72B6204DD5E87C
:101D8000CF2F0123002AFAD1C5E8423F002AF6D11D
:101D9000BFF35F8F1B4F40F0010CBA684AF6AA23CD
:101DA00052F82680184C0246121B524153431B0D19
:101DB000E04559B214D02246002392F906C00C32F5
:101DC0008C4512D00133042BF7D1104B00221C7824
:101DD00019708471C5E88F2F8EF31088BDE8F081EB
:101DE000BB680B4A43F82620EFE703EB430304EB01
:101DF0008304FF23A3714BF60153A380E5E700BFE3
:101E00001912002000ED00E0240E0020631B0020CA
:101E10001D01001010B5074C82B0014605230022B9
:101E200000940548FFF7BEFD0028A8BFC0F13300AD
:101E300002B010BD888100106C1B0020014B0B44C8
:101E4000036070471012002070B5114C114DAC4268
:101E50001CD2FF260BE0FFF7E5FD01462046FFF709
:101E6000EDFFA680BFF35F8F0834AC420ED223682B
:101E7000002BF0D1FFF7D6FD01462046FFF7DEFF2D
:101E80002671BFF35F8F0834AC42F0D370BD00BF42
:101E9000BC0E0020C40E002010B50446FFF7C2FDA2
:101EA00001462046FFF7CAFFFF232371BFF35F8F70
:101EB00010BD00BF10B504460120FFF7BFFD034B66
:101EC00003442360BFF35F8F10BD00BF10120020DA
:101ED000024B0B440360BFF35F8F7047101200206A
:101EE0000D4B1A68EFF3108172B6D2E8CFCF012004
:101EF000BCF1000FF9D1C2E84C0FBCF1000FF4D1D6
:101F0000BFF35F8F00221B68C3E88F2F81F3108817
:101F100040BF0020002170473C1B00200000000053
:101F20002DE9F04F2DED028B85B0EFF30583DBB289
:101F3000103B9A0818BF01224FF0010103F0030083
:101F400018BFAB4DAB4B08BFAB4D00EB820201FAA3
:101F500000FB53F8226005F541539FEDA38B0190E0
:101F6000C3F804B0CDF800B02FE0B3881B0440F1F3
:101F70008E80B379002B40F0D780B6F90830002B63
:101F8000C0F21681726903EB430302EBC303D3E98A
:101F90000247B7F1FF3F08BFB4F1FF3F0ED00198F1
:101FA000AB6A05EB80010A69D21AE31A934204D3A3
:101FB00001232A6A8340134200D10C61284600F0B5
:101FC00029FBA042B941C0F2F380009BEB63B6F954
:101FD0000840002CC9DBD6F8148004EB44092846DD
:101FE00008EBC907D7E902BA00F014FB584571EBBA
:101FF0000A01BADBBAF1000FC0F2BC80D7E90431A4
:102000007E4A934200F0E6807A88B6F9080092B2E0
:1020100042EA0040984702460B4652EA030100F0AC
:10202000A980002B80F2CA80BBEB020B6AEB030A8B
:10203000C7E902BA38F93910002996DBD6F814C07E
:1020400001EB41030CEBC303D3E9022393457AEB85
:1020500003034FEA410088DBB6462EF8081F00E074
:10206000480043180CEBC307D7E9020283457AEB1B
:10207000020204DB3CF93310BE460029F0DA28F8EE
:102080003910AEF80040B3881B043FF572AF3369D6
:10209000EFF3108272B6D3E8CF0F01210028FAD1F6
:1020A000C3E8401F0028F6D1BFF35F8F4FF6FF74DF
:1020B000B0880023316900B2B480C1E88F3F82F359
:1020C00010889842FFF655AF0446A94606F1080865
:1020D000776904EB440E07EBCE03D3E90250B6F95F
:1020E0000830C446002BA8BFA34605DA0FE037F935
:1020F0003A309446002B09DB03EB430A07EBCA0294
:10210000D2E90241A54270EB0101F0DA5C46ACF87D
:10211000004037F93E4027F83E30002CD8DAB3793A
:102120004D46002B3FF429AF0023B371B6F90830B8
:1021300006F1080C5F1C04D13AE084465A1C3FF4B7
:102140001CAF726903EB430102EBC10044881F46D8
:10215000240432F93130F0D580ED028BB6F9080055
:10216000B842EBD0ACF80030B6F9080022F83100E4
:102170003781E3E738F9393033813369EFF310827F
:1021800072B6D3E8CF0F01210028FAD1C3E8401F6F
:102190000028F6D1BFF35F8FB6F9023028F8393046
:1021A000316900237480C1E88F3F82F31088DCE638
:1021B00040BF05B0BDEC028BBDE8F08F2846CDE9ED
:1021C000022300F027FA029A039B10EB020B43EB69
:1021D000010A2DE708460B69029198470028C9D0EB
:1021E0000299D1E9002318E7FFFFFFFFFFFFFFFF80
:1021F00000800B40141B002000000B40211F00102A
:1022000070B5204D2C692CB1BDE870400A211E48E4
:10221000FFF714BE1D4E0321304600F0E9F9EE60D1
:10222000FFF700FC03211A4B4FF6FF7218442346B8
:10223000102429704FF0504128610F202A81AA8074
:102240006C810968688069706869511CC2521833D2
:10225000B3F5C07F8AB2F7D108240C4B0D4A032096
:10226000D5600D491C62FFF75DFC01210320FFF7DB
:1022700017FC0A4B0A211C640348BDE87040FFF7B5
:10228000DDBD00BF6C0E00203C1B002000000B4099
:1022900010120020141B0020211F001000200B40F2
:1022A000004870476C0E0020F0B501460069EFF35E
:1022B000108772B6D0E8CF5F0124002DFAD1C0E8B4
:1022C000454F002DF6D1BFF35F8FB1F902E04C69A5
:1022D0000EEB4E0CBEF1000F4FEACC05086904EB83
:1022E000CC0C3CDB665F4E800026C0E88F6F87F326
:1022F0001088BCF80200CCE902230130C0F30E00C4
:10230000012838BF0120059BACF80200CCF8103042
:10231000069B40EA0E40CCF814300B69EFF31082B4
:1023200072B6D3E8CFCF0127BCF1000FF9D1C3E8D3
:102330004C7FBCF1000FF4D1BFF35F8F8B886353E8
:102340000B69A1F804E0C3E88F6F82F310880122C3
:10235000CB68097803F501538A405A60F0BD002329
:10236000C0E88F3F87F310884FF0FF30F0BD00BF0B
:102370002DE9F0479DF828900546DDE9086790466D
:102380001C46B9F1000F06D100F04CF9804564EB12
:102390000101002908DB424623462846CDE90867AB
:1023A000BDE8F047FFF780BF4846BDE8F08700BFB3
:1023B00003464089B0EB214F37DD10B50A14586948
:1023C00002EB42021C6900EBC200EFF3108C72B604
:1023D000D4E8CFEF0122BEF1000FF9D1C4E84E2FAF
:1023E000BEF1000FF4D1BFF35F8F428889B292B281
:1023F0008A4207D000221B69C3E88F2F8CF3108814
:10240000002010BD42F400424280012100221869E0
:102410009971C0E88F2F8CF310881C78DA68084611
:1024200002F50153A140596010BD0020704700BF64
:10243000407870472DE9F041851F41F1FF37A842F0
:1024400071EB070338BF002582B038BF2F46044622
:102450000E4600F0E7F8281A67EB010C01287CF122
:10246000000C06DA2046314602B0BDE8F04100F02B
:1024700015B900F0D7F8854267EB010100290ADBA6
:102480000021174B2A46009316483B460191FFF75F
:102490000BFF0130E6D04FF0000C134A1349536A8A
:1024A0009F4204D8906AA842DCD29F42DAD10B68DE
:1024B000EFF3108072B6D3E8CF8F5FF0010EB8F162
:1024C000000FF8D1C3E848EFB8F1000FF3D1BFF324
:1024D0005F8F0B68C3E88FCF80F3108820BFDEE7E3
:1024E000E11E00106C0E002000000B403C1B002081
:1024F00010B5044600F096F84FF47A734FF0FF3CA5
:102500006FF00042E4FB0301BDE81040844572EB2C
:1025100001033CBF60461146FFF78CBF2DE9F04335
:1025200006460D4683B0EFF30584E4B23CB12D4B73
:102530005A6AAA421CD2002003B0BDE8F0832A4F99
:10254000D7F80C9097F80080484600F063F808F13F
:10255000040859F828301B1A301A65EB010198421B
:1025600071F1000110DB20BF1E4B5A6AAA42E2D370
:1025700014BF012400249B6AB34234BF204644F0B8
:10258000010003B0BDE8F08300F04CF8864265EB33
:102590000101002914DB154B3846CDE900343246E1
:1025A0002B46FFF781FE011E0ADD0E4B5A6AAA4236
:1025B00016D39B6AB34211D30B48FFF7F9FEB6E777
:1025C000084B5C6AAC42B6D3641B18BF01249B6AFB
:1025D000B34234BF204644F00100ADE7AA42EBD13C
:1025E00020BFE9E700000B406C0E0020E11E001048
:1025F00010B4054B054C064AA04214BF1846581C9F
:102600005DF8044BFFF7A2B93016002000800B40A4
:10261000A48100100346416A0A46986A596A8A42B0
:10262000FAD17047034B596A0A46986A596A91422F
:10263000FAD1704700000B4010B4174A536A9C4609
:10264000946A536A6345FAD1001959414FF0000268
:1026500028BF01220346CAB10F4B596A4B1C08BF61
:102660000B4608D04FF0FF310B460B48426A8A42B6
:10267000FCD38A4207D1084A02E0506A884202D15C
:10268000906A9842F9D35DF8044B7047024A526A47
:102690009142EAD8EDE700BF00000B40074A536AB9
:1026A0009942FCD8994207D1044B02E05A6A914200
:1026B00002D19A6A9042F9D8704700BF00000B40DF
:1026C000F8B5044606200D4600F0F8F8C300B3FB49
:1026D000F5F30133DA0908D04FF6FE718A421AD9B0
:1026E00000224FF6FF711B4D01E040250121616280
:1026F000A262266BF30715D42346002253F82C1F41
:10270000062003F580531A60266300F0D7F8800096
:10271000B0FBF5F0F8BDC3F34503114603EB82159A
:102720001A46E4E740F2013204F540531A63636A43
:10273000A76A062007EB831700F0C0F8064BBF021C
:10274000A3FB0030C00A0021B7FBF0F0FFF774FFD5
:10275000D2E700BFC0FF3F00757B2B8F38B5044622
:1027600006200D4600F0AAF860B3174A17489442B5
:1027700014BF4FF080624FF00062154B15490260A4
:102780001A608B6832EA0303FBD10F4B4FF4807061
:10279000E31AB3FA83F3104A5B0922F813002946BF
:1027A0002046FFF78DFF234640F20135032153F801
:1027B0002C2F82F0700202F07E0203F580531A6023
:1027C0002563A16438BD00BF00800740002002409F
:1027D0000030024000000240481B00202DE9F0417B
:1027E00000EB400C4FEA8C0C0CF1804C0CF5803C5B
:1027F000069D9046DCF80420041FAA42E4B238BFCC
:10280000CCF80450012C2AD94FF4006E254E0CF55B
:102810004052C2F800E056F82020AAB9DCF80020A7
:102820000CF5805782EA481202F0E002012C3A606F
:1028300029D94FF4006246F820300CF500531A6095
:10284000CCF80450BDE8F0817769B7FBF2FE0EF1D9
:10285000010E0EEB4E0EBEF1030EFCD2DEE7012997
:10286000D2D103240CF540521460DCF80820D207C2
:10287000FBD5DCF800200CF5805782EA481202F004
:10288000E002084E3A600122DCF800404C4004F0BF
:1028900003043C6002FA01F1DCF808200A42FBD094
:1028A000C7E700BF3416002010B54FF4803482B063
:1028B0000094FFF793FF02B010BD00BF014B53F827
:1028C000200070473416002070B4039D04682D0367
:1028D00045EA03451B4B002CB3FBF1F3B2FBF3F6C7
:1028E0001FDB194A194B904214BF4FF480424FF43A
:1028F0000042174C1A6003F580531A60A36832EA4D
:102900000303FBD1212200F54053043301608660AC
:102910001A600268002AFCDA0822C5601A6070BCDE
:102920007047036803F03F038B42DAD18368C3F337
:102930000B03B342D5D1C36803F4EE23AB42D0D12D
:10294000EDE700BF001BB7000080054000200240FB
:1029500000000240024A034B12685A60704700BFF1
:10296000041B002000800D4030B44FF08045174B11
:10297000174A184CDA61184A03F540531D609460F9
:102980004FF0E06249B1A3F580531A6040B94FF0AF
:102990000042124B1A6030BC70471A600028F6D013
:1029A0004FF47A7303FB00F0B0F1807F2ABF6FF021
:1029B0007F43034618464FF08042094C0349236089
:1029C000064B48601A6030BC704700BF00800D4065
:1029D0002131B76AF3FFFF0100A0014000A00D40C4
:1029E000041B002030B44FF080441C4B1C60E0B14D
:1029F0001B4CA3F54053DC611A4C40F001004440ED
:102A00001C62596298624FF080454FF0E061134BB1
:102A10001548164C1D60846019604AB94FF0004299
:102A2000A3F580531A6030BC7047114BD861EAE7B8
:102A30004FF47A7303FB02F2B2F1807F2ABF6FF08A
:102A40007F4313461A464FF080410A4C08482360E2
:102A5000094B4260196030BC704700BF00B00D40A8
:102A6000D3C007B02D3FF84F00A00140F3FFFF0196
:102A700000800D40041B002000A00D40012300EB4E
:102A80004000800000F1804000F584104160036048
:102A9000704700BF002370B504460D46DB8A002254
:102AA00042E800F2520254BF1021042144F25220A5
:102AB000984786462B462246F446BDE870400A21D8
:102AC0004FF48170604700BF0023DB8A002242E898
:102AD00000F2520201D4102118470421184700BF08
:102AE00008B503460846191E02DB1AB140F0300053
:102AF000FFF7D0FF40F02000FAE700BF034AD2F80A
:102B00002838002BFBD0BFF35F8F704700000E40CA
:102B10000021044B044ABFF35F8F43F8041B934228
:102B2000F9D170470C080E402C080E4010B44FF439
:102B30008D704FF42A64064A064B07491460D06032
:102B400019605368002BFCDA5DF8044B704700BF36
:102B50000080044000A0044000B0FA00704700BFAD
:102B600008B50148FEF7DAFEC881001038B5054CFB
:102B7000054DAC4204D254F8043B9847AC42FAD31A
:102B800038BD00BF187000105870001010B407480E
:102B9000074C084B084A094904601A608B6832EAFE
:102BA0000303FBD15DF8044B704700BF00200240D7
:102BB0007F3BEFEF00300240F6FFF30300000240DE
:102BC000044BDB6CB3F5004F03D14FF48022024B72
:102BD000DA64704700001150002011504FF0E022DD
:102BE000044BD2F8881D0B43C2F8883D10EE300428
:102BF000704700BF030330006FF06041044B054A8B
:102C000019609368DB4333F06043FAD1704700BF2B
:102C1000003002400000024010B545F25320FFF79B
:102C200053FFBDE8104003460420184710B545F295
:102C30005320FFF749FFBDE8104003460120184725
:102C4000FEF714BF10B5054B054C4FF488721846BB
:102C5000A16804F00FF9A06010BD00BF00000020C3
:102C600000ED00E0002370B52B4C82B0C4F8843036
:102C7000FFF75CFF0122294BDA63636C012BFCD167
:102C80000321264A244B11639C6B012CFCD10226A4
:102C9000052521460523224A22480096FFF714FE07
:102CA00021462B46204A21480095FFF70DFE0022C1
:102CB000042031461E4BFFF7F7FD2146284600222F
:102CC0001C4BFFF7F1FD0022082011461A4BFFF7BD
:102CD000EBFD002209201146174BFFF7E5FD00220E
:102CE00006201146134BFFF7DFFD0022114B072092
:102CF0001146FFF7D9FD0420FFF7E0FD00240F4B3C
:102D0000A3FB0035AD0CE0B229460134FFF7B6FE57
:102D1000062CF8D102B070BD000001400030014027
:102D2000002F685900000540008C86470080054050
:102D3000001BB70080D1F008006CDC0283DE1B436F
:102D400086B003B451FC0804CDE9020151FC09042A
:102D5000CDE9040151EC0A04CDE9060103BCF047BA
:102D6000BDE800504EEC00C4BDE800504EEC01C47C
:102D7000BDE800504EEC02C400BD000000B5FFF7F6
:102D8000DFFF02E010FE30F4F8D441EC100443EC15
:102D9000112400EE010410EE010480EE200451EC39
:102DA0001004704700B5FFF7CBFF02E010FE30F4CF
:102DB000F8D441EC100443EC112400EE010410EEB1
:102DC000210480EE200451EC3004704700B5FFF779
:102DD000B7FF02E010FE30F4F8D410B541EC100457
:102DE00043EC112451EC040453EC0524A0FB024CE9
:102DF0005FF0000EE0FB03CEE1FB02CE4CEC204482
:102E00000024E1FB03E444EC30E480EE200451ECC8
:102E10005004BDE81040704700B5FFF791FF02E095
:102E200010FE30F4F8D441EC100443EC112451ECC2
:102E30002104A0FB01126FEA820252FB100052FB38
:102E400012F252FB1000A0EBD07C53EC04245CFB8C
:102E500013F153EC1524A1FB022001FB030053ECFA
:102E60004424A2EB000050FB1CF24FEA111312EBBA
:102E7000017043EBE27140EA515020EA915020F09A
:102E8000070053EC7524A0FB023C53EC752400FBB7
:102E900003CC01FB02CC53EC0424ACEB824C40EAA3
:102EA0005C70A0F1010041EC400480EE200451EC84
:102EB0007004704700B5FFF743FF02E010FE30F4E6
:102EC000F8D440EC700400EE010410EE210480EE12
:102ED000200451EC3004704700B5FFF731FF02E0E9
:102EE00010FE30F4F8D440EC600400EE010410EE63
:102EF000210480EE200451EC3004704700B5FFF748
:102F00001FFF02E010FE30F4F8D441EC800400EE24
:102F1000010410EE010480EE400410EE130470472B
:102F200000B5FFF70DFF02E010FE30F4F8D441ECDD
:102F3000800400EE010410EE010480EE400410EE67
:102F40003304704700B5FFF7FBFE02E010FE30F4DB
:102F5000F8D441EC100443EC112400EE010410EE0F
:102F60003004C0F30070704700B5FFF7E9FE02E0DF
:102F700010FE30F4F8D443EC102441EC110400EEC0
:102F8000010410EE30F48CBF01200020704700BF18
:102F900000B5FFF7D5FE02E010FE30F4F8D443ECA4
:102FA000102441EC110400EE010410EE30F42CBFAB
:102FB00001200020704700BF00B5FFF7C1FE02E00E
:102FC00010FE30F4F8D441EC100443EC112400EE70
:102FD000010410EE30F42CBF01200020704700BF28
:102FE00000B5FFF7ADFE02E010FE30F4F8D441EC7E
:102FF000100443EC112400EE010410EE30F48CBFF9
:1030000001200020704700BF704700BF2DE9F04F3E
:1030100083B09946DDE90DAB0F9B884611469A07B0
:10302000074616D1DA453AD20C460D46ABEB0A06F6
:103030000E4422464B46414620200134B847B44254
:10304000F7D12946BAF1000F08D1204603B0BDE8F8
:10305000F08F0C46BAF1000F10D00E4655460C9B6F
:103060002E449A440191721B4B46013D41461AF889
:10307000010D3446B847002DF5D101990F9B9B07F0
:10308000E3D5651AAB45E0D922464B4641462020A0
:103090000135B8475D4504F10104F5D3D5E70C4689
:1030A000BAF1000FD9D1D0E72DE9F04F0F9FDDF82D
:1030B000248017F0020F0A9C9DF82CA00E9DDDE9DC
:1030C0000C9644D1F5BBB44241D207F0010B04F198
:1030D000FF3C4FF0300EC44404E00134A6420CF82B
:1030E00001EF01D9202CF8D1BBF1000F00F088804E
:1030F000A5422CD904F1FF3C4FF0300EC44404E04B
:103100000134AC420CF801EF21D0202CF8D117F09B
:10311000100F0ED017F4806F54D1A64263D0A54291
:1031200061D0B9F1100F50D0B9F1020F56D0202C58
:1031300029D12024CDE90B57CDE90984BDE8F04F12
:10314000FFF764BF17F0010B34D1B442BFD317F0BF
:10315000100F1ED017F4806FE3D1002CDDD1B9F130
:10316000100F63D0B9F1020F77D0302488F80040F7
:103170000124BAF1000F11D17E0748D52B2608F89B
:1031800004600134D6E7264601344FF0300C08F8CD
:1031900006C0202CCDD0BAF1000FEDD02D2608F8B6
:1031A00004600134CDE90B57CDE90984BDE8F04F47
:1031B000FFF72CBFBAF1000F30D0B44205F1FF3554
:1031C00085D395E7B9F1100FB3D1BE063BD5202CBE
:1031D000AFD0582608F804600134A8E7202CA8D006
:1031E0002646013407E0661EB9D0B9F1100F36D07B
:1031F000B9F1020FC9D14FF0620C08F806C096E78A
:1032000017F0100FC5D017F4806F86D089E73E07FE
:1032100090D5202608F8046001348BE717F00C0FD6
:1032200000D0013DB442FFF452AF61E7BC0612D4B6
:10323000782488F80040302488F801400224BAF14C
:10324000000F99D0AAE7202C3FF473AF782608F836
:10325000046001346BE75824EBE76224E9E717F0D8
:10326000200FA4F1020C04D04FF0580E08F80CE027
:103270008BE74FF0780E08F80CE086E72DE9F04F69
:1032800093B01C9C9DF874B01E9DDDF884E02CB9B1
:103290002EF010061EF4806FB64635D11EF0200FBA
:1032A00014BF4FF041094FF061090AAFB84600263C
:1032B000A9F10A09099002E0202E15D05446B4FB6A
:1032C000F5FA05FB1A4C5FFA8CF0BCF1090F00F11E
:1032D000300C8ABF48445FFA8CF0C0B2AC4208F8A8
:1032E000010B06F10106E7D20998209CCDE9016B9C
:1032F00005941F9CCDF818E0CDE903540097FFF723
:10330000D3FE13B0BDE8F08F26460AAFEDE700BF4D
:103310002DE9F04F97B08E46DDE92064DDE9247891
:1033200056EA04019DF888C006D12899289D21F00D
:1033300010012891690545D428990DF1380B11F039
:10334000200F14BF4FF0410A4FF0610AD946002503
:10335000CDE9090ECDE90B23AAF10A0ACDF834C054
:1033600003E0202D17D006460C4621463A46434638
:10337000304603F031FED2B2092A02F130038ABF8F
:103380005244DAB2D2B2BE4274EB080409F8012BFF
:1033900005F10105E5D2DDF834C0DDE9090EDDE90E
:1033A0000B232899CDE9015C06912799CDF800B04F
:1033B00005912699CDE903717146FFF775FE17B0A7
:1033C000BDE8F08F00250DF1380BEAE700000000A2
:1033D0002DE9F04F95B0209CDDE91EAB0894219CAF
:1033E0000D461E4609900B925B4652465046594682
:1033F000229F0A94FFF7AAFD002840F097805046CC
:1034000059464FF0FF32664BFFF7EEFD002840F0C3
:103410008D80504659464FF0FF326FF48013FFF70E
:10342000A7FD002840F08280504659460022002324
:10343000FFF79EFD002840F08881CDE906ABDDE96D
:10344000063407F40062994617F48063A04612928E
:1034500013937BD159EA040340F0A480002A40F082
:103460008E810623089317F002020E9240F08A81A3
:103470000A9B0421042B38BF0423043B10910C92B7
:1034800012935046594600220023FFF771FD002891
:1034900040F0C9819DED067B129B0B9A0393089B1C
:1034A0008DED007B029327F4006304932946334695
:1034B000099800F021FA024617F0200F0CBF652092
:1034C000452033462946099C571CA04705230593F0
:1034D000109B0020013B04930A230C99CDE9023094
:1034E00081EAE173A3EBE173C90FCDE900313A46FC
:1034F000334629462046FFF7C1FE0E9B07468BB197
:103500000B9BA0EB03080A9B43450BD999463A460F
:1035100033462946202008F10108A047C14507F19C
:103520000107F4D8384615B0BDE8F08F0A9B29464C
:10353000DDE9084021933346CDE91EAB0B9A229773
:10354000209415B0BDE8F04F00F0D6B959EA040355
:103550002AD1129B002B86D000230C93089B0C9A37
:10356000934200F3BA814FF00008504659460022BA
:103570000023FFF7FDFC002840F0ED809DED067B69
:103580000A9B8DED1E7BCDE9208327F4006343F475
:1035900080632293294633460B9A0998D1E700BFEE
:1035A000FFFFEF7F06230893C8F30A50A0F2FF3015
:1035B000FFF784FCC0A3D3E90023FFF70BFCC0A3F3
:1035C000D3E90023FFF7DEFBC8F31303CDE90C01B9
:1035D00043F07F5148460022B14B41F44011FFF7C0
:1035E000E5FBA3A3D3E90023FFF7F4FB02460B4658
:1035F000DDE90C01FFF7C6FBFFF784FC0C90FFF739
:103600005DFC9DA3D3E9002380468946FFF7E2FBDA
:103610000022A44BFFF7B6FBFFF774FC03464946B4
:103620001C4697A3D3E900234046FFF7D3FB80460F
:1036300020468946FFF742FC93A3D3E90023FFF716
:10364000C9FB02460B4640464946FFF7AFFB024620
:103650000B4680468946FFF7BDFB42464B46CDE907
:103660000E0140464946FFF78DFB0022CDE91001CF
:10367000DDE90E018C4BFFF7D3FB00228B4BFFF7EC
:1036800081FB02460B46DDE90E01FFF7C9FB002274
:10369000874BFFF777FB02460B46DDE90E01FFF78C
:1036A000BFFB42464B468046894600204FF0804192
:1036B000FFF77CFB02460B4640464946FFF762FB9C
:1036C00002460B46DDE91001FFF7AAFB0022794B09
:1036D000FFF758FB04F2FF3C00224FEA0C53FFF7C0
:1036E00079FBDDE9062380468946FFF77DFC50B172
:1036F0000C9B4046013B49460C9300226B4BFFF765
:103700008FFB804689460C9B129A6333C62B07F0C9
:1037100002030E930CD8002A67D10A9A042A7FD993
:10372000002B00F0D4800423109302230E936AE050
:10373000002A2FD10A9A052A04D9002B00F0D28042
:1037400002230E930523109361E00BF10043CDF8A3
:1037500018A0079373E60A9B2946CDE9208327F436
:10376000006343F4806322933346DDE90667344601
:1037700007F10045CDE91E450B9A0998E1E64FF0A7
:103780000508F2E6042200231092022212930E9200
:103790000C9376E60523109358EA09033FF4DEAE56
:1037A000DDE906013AA3D3E90023FFF709FC48B19C
:1037B000DDE9060138A3D3E90023FFF7D9FB002890
:1037C0007FF4CCAE089B9BB1139A002A41D0013BF9
:1037D000109A08930A9B934204D90E99002943D06A
:1037E00002230E93002312930DE004231093D3E7DA
:1037F0000A9B109A934267D90E99002934D0089BEE
:10380000129302230E930C9B002B3FF43AAEDDE99A
:10381000060142464B46FFF703FBCDE9060130E6C1
:1038200004231093EFE7DDE906ABD046129B0BF1C2
:1038300000490393089B0B9A029327F400630493B7
:1038400029463346CDE90089099800F055F802462B
:1038500032E60A9B109A93424AD90E9921B1139BE2
:10386000129302230E93CEE79B1A1293CBE700BF6D
:1038700061436F63A787D23F71A379094F930A40D1
:103880001655B5BBB16B0240EF39FAFE422EE63F4A
:103890002D431CEBE2361A3F0000000080842E41CD
:1038A0000000F83F0000E03F00002C4000002440F2
:1038B000000018400000F03FFB799F501344D33FB5
:1038C000B3C8608B288AC63F089B12939BE70423EA
:1038D00010930A9B043B129395E7A3EB020808F1AF
:1038E000FF3842E6052310930A9B053B12938EE7AF
:1038F000139B129387E700BF2DE9F04F97B0DDE9E6
:103900002067CDE90501DDE9225807920C93324684
:103910003B4630463946DDF89090FFF717FB00280C
:1039200040F0BD81304639464FF0FF326FF48013CE
:10393000FFF71EFB002840F01081304639464FF05B
:10394000FF32C14BFFF750FB002840F0E680BAA3DE
:10395000D3E9002330463946FFF746FB002840F004
:10396000CE80B7A3D3E9002330463946FFF700FBEA
:10397000002840F0C4803046394600220023FFF77B
:10398000F7FA002840F0DE800D9019F4806F08BF30
:10399000062530212B460EAAA5F1200A05E0013BA1
:1039A000534502F8011B00F04281092BF7D89A46D3
:1039B000ED1A39463046FFF7A5FAA44B044603EB4F
:1039C000CA0393ED007B8DED087BFFF777FA024683
:1039D0000B4630463946FFF7E9F9DDE90823FFF7E2
:1039E000F9F902460B46CDE90A23FFF79DFA834613
:1039F000FFF776FA02460B46DDE90A01FFF7D6F932
:103A000002460B46CDE90A230022914BFFF7ECFA60
:103A1000002800F0B3800BF1010B5846FFF760FA65
:103A200002460B46DDE90801FFF7B6FA10B14FF088
:103A3000000B0134BAF1000F00F0B280681E0EAB2B
:103A4000844E18440FE0A6FB0B21C90801EB81024C
:103A5000ABEB42023032BBF1090F00F8012F40F20C
:103A6000CF808B461D46202D05F101030AF1FF3A58
:103A7000E9D12025691E0EAB7748194410E080FB80
:103A80000462C3EBA20303EB8302A4EB420404F140
:103A9000300201351C4601F8012F002B00F09F80F9
:103AA000202D4FEAE473EAD109F00303012B18D16A
:103AB000B8F1000F15D00D9B002B00F0D58008F158
:103AC000FF38B8F1200F0CD96B1E0EA930220B4421
:103AD00005E00135454503F8012F80F08480202D55
:103AE000F7D10EACCDE90289DDE906120C9B0598F1
:103AF00001950094FFF78AFA17B0BDE8F08F0C9B90
:103B00000598CDE92067DDE90612CDE923892295E4
:103B100017B0BDE8F04FFFF75BBC19F0040F18BFFA
:103B20000423DDE906120ABF03234C4C4C4C2193BD
:103B300005980C9BCDE92289209417B0BDE8F04F81
:103B4000FFF764BA3B46324600200021FFF72EF90A
:103B5000012306460F460D9317E70424DDE90612FC
:103B60000C9B05983F4DCDF88C90CDF88880CDE921
:103B7000205417B0BDE8F04FFFF748BA0022DDE946
:103B80000A01334BFFF7F4F900287FF453AFBBF180
:103B9000000F7FD10BF1010BBAF1000F7FF44EAF94
:103BA0002046FFF78BF902460B4630463946FFF7B1
:103BB000FDF80022264B06460F46FFF7D9F90028EC
:103BC0007FF458AF304639460022214BFFF70CFAFC
:103BD00000287FF44FAF013424F001044AE709F0D4
:103BE0000303012B6AD0202D3FF47BAF0D9B002BEC
:103BF00045D02D220DEB050383F83820013570E701
:103C0000202B3FF436AF0EAA15449A44302205E02B
:103C10000133202B05F8012F3FF42BAF5345F7D18B
:103C20002E210DEB030282F838105D1C22E72025BF
:103C3000BFE600BFAFF300800000000065CDCD41BE
:103C40000000000065CDCDC1FFFFEF7F10840010A4
:103C50000000E03FCDCCCCCC6766666624820010C5
:103C60002C8200103482001019F00C0F22D008F1C1
:103C7000FF384545FFF428AF202D3FF432AF19F04F
:103C8000040F01D02B22B5E719F0080F3FF429AF3C
:103C90002022AFE71BF0010F3FF4CCAE7AE70324FC
:103CA000DDE906120C9B05980B4DCDF88C90CDF8F4
:103CB00088805CE74545FFF407AF12E7B8F1000FD5
:103CC00091D00D9B002BCFD008F1FF384545FFF474
:103CD000FBAE202D8DD104E73082001000B9704773
:103CE00000F0B2BC10B1D1E900311847704700BFF5
:103CF0002DE9F04F9E4D9F4CB1F1000B8FB018BFD6
:103D00008146256018789C4D904608BFA946DDF88D
:103D100060A0002800F034821C46002508E02A46F6
:103D2000434659460135C8472078002800F0C7802F
:103D3000252804F10104F2D10023224612F8010BD8
:103D4000A0F1200110290AD8DFE801F03F09093B62
:103D50000909090909090937093309092F00A0F1DF
:103D60003001092940F289802A2800F0DE800026EF
:103D70002E2800F094800021A0F16807122F2CD883
:103D8000DFE817F039012B0034012B002B012B0049
:103D90002B002B002B002B002B002B0027002B00CF
:103DA0002B002B002B002B002700144643F00103AF
:103DB000C3E7144643F00203BFE7144643F004038D
:103DC000BBE7144643F01003B7E7144643F008037B
:103DD000B3E7607843F480730132672814467CD8D7
:103DE000242840F2AD80A0F12502422A00F2A880EA
:103DF000DFE812F03C01A600A600A600A600A6007F
:103E0000A600A600A600A600A600A600A600A60082
:103E1000A600A600A600A600A600A600A600A60072
:103E2000A600A600A600A600A600A600A600A60062
:103E3000A600A600090125010901A600A600A6000A
:103E4000A600A600A600A600A600A600A600A60042
:103E5000A600A600A600A600A6008301A600A60054
:103E6000A600A600A600A600A600A600A600830144
:103E700043018301090125010901002606EB86069D
:103E800000EB460610781446A0F130010929A6F18E
:103E9000300602F10102F1D92E287FF46CAF607870
:103EA0001746A0F13001092943F4806340F20381F1
:103EB0002A2800F01A811446002101325CE72C46C2
:103EC000A84501D808F1FF3543462A465946002047
:103ED000C84720460FB0BDE8F08FA0F16902D2B20A
:103EE0000F2A2DD84FF0010C49F241070CFA02FCC1
:103EF0001CEA070C40F0EE800A2A27D0072A1FD1BF
:103F000043F0210305930823049310230391CDF874
:103F100004C002935AF8043B2A460093594643468C
:103F20004846FFF7ABF90546FEE65AF8046B6078A1
:103F3000002E1446BCBF43F002037642013217E75D
:103F40002A46434659460135C847EDE6524652F8DF
:103F500004EB00299EF8000014BF8A464FF0FF3A98
:103F60000B92002800F007827246F2440BE000BF7B
:103F7000F13C0010FC1A00200930001012F8017FFB
:103F8000002F00F0F4809245F8D1AAEB0E020A92BD
:103F900013F4806704D00A9A8A4228BF0A460A921C
:103FA00013F0020300F011814FF0020C0C96F24660
:103FB0002A460E46CDF834C027B1731E002E00F0FD
:103FC000C9801E4643465946C8471AF8010F0135B5
:103FD000002800F0BF802A46EEE760786C287FF466
:103FE000F9AEA07843F44073E21CF6E6607843F43F
:103FF00000730132F1E66078682800F0BC8043F07D
:1040000080030132E9E6672800F09F80472800F02E
:10401000A980452800F0A880CDE903630AF1070ACA
:1040200002912AF0070A2A46FAE8026743465946EF
:104030004846CDE90067FFF7CBF9054674E6462808
:1040400008BF43F02003CDE903630AF1070A029198
:104050002AF0070A2A46FAE80267434659464846C4
:10406000CDE90067FFF748FC05465DE62A46434672
:10407000594625200135C84756E60AF104029B0738
:1040800005F101070A9240F182802A4643465946CB
:104090009AF80000C847012E88BFAD1940F22A8166
:1040A0003A464346594620200137C847BD42F7D11A
:1040B000DDF828A038E6002101EB810100EB410189
:1040C00017F8010F3039A0F13002092AF4D93C4623
:1040D0007A1C51E66F283BD040F22581782800F009
:1040E000F7800A2223F010030EE05AF8041BA07890
:1040F0000234621C21EAE1713EE6582843D062286E
:1041000008BF022240F09880580540F1BC8023F09F
:104110000D0313F4007040F0EF8013F4807F0AF178
:10412000040740F01781580600F1D78018064CBFED
:10413000BAF80000DAF80000CDE904630023CDE905
:10414000022100902A46019395E043F4006363E75F
:104150000822D9E7DDE90C6CBCF1000F5DD1DDF878
:104160002CA0E1E543F4006343F0200354E7A2EB05
:104170000E020A920CE7A07843F0C003E21C2CE682
:10418000044605469CE6102243F02003BCE7012EBE
:1041900040F2AA806B1E3344CDF82CA02F469A46DD
:1041A0003A464346594620200137C847BA45F7D119
:1041B0005346DDF82CA01A469AF8000043465946AB
:1041C000C8473544DDF828A0AEE50A9A964240F289
:1041D000E7800A9B06EB050ACDE90CE60A970E4636
:1041E0006746AAEB030A2A46434659462020013572
:1041F000C847AA45F7D1DDF830E031460D9E9EF85C
:104200000000731CBC460A9F0A9300287FF4CEAEC0
:10421000A5E713F0020700F0BD802F460A9B9E42DF
:104220009DD93544ED1A3A46434659462020013778
:10423000C847BD42F7D192E75F054BD523F0110285
:10424000900523D4D3050AF1040773D450063BD458
:10425000130640F18980BAF9003083EAE370A0EBDD
:10426000E37080B2DB0F01930A23CDE904622A4692
:10427000039100900293434659464846FEF7FEFFDD
:10428000BA46054650E523F00C0342E79FED487B14
:104290000AF1070A2AF0070ADAF804305AF8080B7C
:1042A000DF0F002BCDE907628DED047B02460691FE
:1042B000029715DBCDE9002359462A464346484676
:1042C000FFF726F805462FE59AF800301846C9E7AB
:1042D000102219E723F01002B2E79AF800002BE74A
:1042E000424263EB4303E5E72A46434659469AF8C0
:1042F0000000C8473D46DBE604922A460025CDE98A
:1043000007630AF1070A0691059502952AF0070A44
:10431000FAE80267434659464846CDE90067FEF78A
:10432000F7FF054600E5692823F010022DD15F054F
:1043300086D583E7DAF8003003910A21029183EAF7
:10434000E371A1EBE371DB0FCDE90462CDE900136A
:104350002A4690E7CDE90221CDE904630190DAF81D
:1043600000302A46009386E7DAF8003083EAE370EB
:10437000A0EBE37076E713F480620A923FF449AF52
:104380009F0705D52F460A9048E713460A22BBE649
:104390004FF48067002E3FF4E2AE00230A9318E743
:1043A0009C46134601330A9300E600BFAFF300803A
:1043B0000A0000000000000070B594461E46054645
:1043C0000C4684B04FF0FF32634602A900960348C2
:1043D000CDE90254FFF78CFC04B070BDE53C001041
:1043E00010B5094B84B01C684CB1034600914FF0E6
:1043F000FF3203A90548A047012004B010BD00F01A
:1044000033F9204604B010BDFC1A0020DD3C00103A
:1044100000BEFDE708B5FFF7FBFF00BF38B5064C4F
:10442000064DFEF7A3FBAC4204D254F8043B984778
:10443000AC42FAD338BD00BF587000106070001055
:1044400003680846114618472DE9F047437D80462A
:1044500089461746002B43D0002A32DD00244D1E2A
:10446000A24606E06B780A2B2DD0A74205F1010584
:1044700015D026460134002EF4D199F800300A2BCD
:10448000F3D198F81430002BEFD102211848D8F856
:1044900000309847A742A24605F10105E9D15745EA
:1044A00006DDD8F80030A7EB0A0109EB0A009847AF
:1044B00019F80630A3F10D03B3FA83F35B0988F80A
:1044C0001430BDE8F0872B780D2BCED0B245DCDA66
:1044D000D8F80030A6EB0A0109EB0A009847D4E7A8
:1044E0004846D8F800301146BDE8F047184700BFED
:1044F000608400102DE9F0410B680D46802B0646C4
:1045000005D05A1C2B442A601E71BDE8F0810F4B68
:104510001C68A4B10E4F01F1040801E0246974B1D4
:104520002368002BFAD03B680BB1A342F6D120469A
:1045300041462A68FFF788FF2469002CF0D1002348
:1045400001222B442A601E71BDE8F08184160020F0
:104550008C1600202DE9F04F83B00D4691461C4685
:104560000746FEF75FF84FF0FF3C6FF00046254A24
:10457000821841F10003944576EB03013CBF62468B
:104580003346214802F038FD6B1C82462DD04CB3D7
:10459000DFF880801D4B1C68ECB14FF00A0B1C4EFD
:1045A00001E02469BCB12368002BFAD033680BB159
:1045B000A342F6D12A4639462046C047B9F1000F3A
:1045C000EFD0204601220DF107018DF807B0C0475A
:1045D0002469002CE7D1BAF1000F0BD1284603B0B3
:1045E000BDE8F08FDFF83080D4E7384602F0B8FC41
:1045F0000546CCE7044802F0F3FC284603B0BDE8CA
:10460000F08F00BF40420F00BC0E00208416002037
:104610008C1600204944001041440010084A1368D9
:1046200023B90AE003F110021B6933B18342F9D1C7
:1046300029B9186910601961704701B1106070479D
:104640008416002000F0A8BA012310B5044682B0F9
:10465000002219460DF107008DF80740FFF77AFF99
:10466000204602B010BD00BF38B5044602F078FC09
:10467000012305461A4620462946FFF76BFF054BE6
:104680001C682CB1636803B198472469002CF9D1E8
:10469000284638BD841600202DE9F041A2B004461A
:1046A0000D46FDF7BFFF4FF0FF376FF00046254A7C
:1046B000DFF8A080821841F10003974276EB0301F6
:1046C0003CBF3A463346204802F096FC00272B4672
:1046D0002246064601A91D480197FFF76DFE019B82
:1046E0000546D8F80040BBB14CB3194F01E024692E
:1046F00074B12368002BFAD03B680BB19C42F6D111
:104700002046019A02A9FFF79FFE2469002CF0D1F0
:104710000023D8F8004001932CB1636803B1984797
:104720002469002CF9D11EB9284622B0BDE8F081D9
:10473000054802F055FC284622B0BDE8F0810194FE
:10474000F1E700BF40420F00BC0E0020F54400100E
:104750008C160020841600200FB400B583B004A985
:1047600051F8040B0191FFF797FF03B05DF804EBDC
:1047700004B07047704700BF0022014B1A707047A9
:10478000641B00204B79FF2B0BD1887948B9CB797A
:10479000012B07D1082A05D9034B8A7809201A7002
:1047A00070470020704700BF641B00200120704745
:1047B000012901D00120704708B5104B91881B7862
:1047C000994201D0002008BD5378012B08D0022B5C
:1047D000F8D1002164220846FEF704F9012008BD43
:1047E0005188CB0548BF480AC1F3402258BF4FF05B
:1047F000FF3001F07F01FEF773F900BF641B00205A
:10480000004870472C850010012907D15378012BEF
:1048100002D19388072B03D00020704701207047F6
:104820001146A623014A01F0D9B900BF84840010C3
:104830000346012201481A70704700BF64840010CB
:1048400008B50B68B3F5966F00D008BD00224FF095
:10485000FF301146FEF744F9024A034B106019601D
:10486000704700BF2416002028160020014B18783E
:10487000FDF73CB96A1B002038B5044600200D4600
:1048800001F094FAA8B3002001F0A6FA88B3FDF76E
:10489000C9FE4FF0FF3E6FF0004C174A821841F1FD
:1048A000000396457CEB03013CBF72466346134808
:1048B00002F0A2FBE8B1002001F078FA58B900211B
:1048C0004FF0FF3000F0BAFC6FF002040B4802F02A
:1048D00087FB204638BD002001F07EFA0028EED08C
:1048E00021462A46002001F081FA04460028EDD135
:1048F000EAE76FF00204ECE740420F00401B0020A3
:1049000008B5FDF78FFE4FF0FF3E6FF0004C0F4AE9
:10491000821841F1000396457CEB03013CBF7246CF
:1049200063460B4802F068FB70B14FF0FF30002186
:1049300000F084FC002001F071FA0028F5D1BDE8F8
:104940000840034802F04CBB08BD00BF40420F00C6
:10495000401B00202DE9F84380460F46FDF762FE1C
:104960004FF0FF356FF00044334A821841F10003E5
:10497000954274EB03013CBF2A4623462F4802F0C0
:104980003BFB08B9BDE8F883002001F00FFA0028CE
:1049900047D0002F40DD0025DFF8A890284E13E017
:1049A0002246002001F080FA002104464FF0FF303B
:1049B00000F044FC002001F031FAFDF733FEC9E9B4
:1049C00000012544AF4227DD002001F08DFA7C1B59
:1049D0008442A8BF044608EB0501002CE0D1214623
:1049E0004FF0FF3000F02AFC204601F017FA204675
:1049F00001F0DCF980B1204601F076FA0028E1D11F
:104A0000FDF710FED9F80030D9F804209B1942F1C7
:104A1000000283428A41D5D20848BDE8F84302F03B
:104A2000DFBA00200021074BC3E900010348BDE8BD
:104A3000F84302F0D5BA00BF40420F00401B0020EF
:104A400020A107004810002030B5002185B02E4875
:104A500002F0DAFAF0B92D4B1A68CAB1EFF31081FF
:104A600072B6D2E8CF5F0124002DFAD1C2E8454FDB
:104A7000002DF6D1BFF35F8F254C1D682278596059
:104A8000D3B201222270C5E88F0F81F31088CBB119
:104A900005B030BD00214FF0FF3000F0CFFB00200B
:104AA00001F09AF90446184802F09AFA002CEFD067
:104AB000184B1B68002BEBD0174A106805B0BDE8F7
:104AC00030401847FDF7ECFB0446FDF7ABFD4FF017
:104AD000FF3C6FF0004510F57A7241F100039445F8
:104AE00075EB030138BF2B464FF000014FF0010575
:104AF00020460A4C38BF6246CDE901150094FDF707
:104B000037FC05B030BD00BF401B00200C1B00204F
:104B10006B1B00202416002028160020214B0010BB
:104B200070B51A4B1A6812B3EFF3108172B6D2E85F
:104B3000CF4F0120002CFAD1C2E8440F002CF6D14F
:104B4000BFF35F8F0022124C186859602270C0E8D2
:104B50008F2F81F310880F4E002430780025FCF74A
:104B6000B5FF68B9002400252046294670BD094ECE
:104B70004FF47A7430780025FCF7A8FF0028F1D0B4
:104B80003078FCF7B3FF2046294670BD0C1B00208F
:104B90006B1B00206A1B00204FF0504330B585B0DE
:104BA0001C68FDF77DFBFDF743FCA04202D000200E
:104BB00005B030BD00212A4B08461B7801F052FC9D
:104BC00028480368002B47D00120FDF723F903464E
:104BD000254C2649C0B22370FCF7A4FF20780121A0
:104BE000FCF75EFF0E20FCF78DFF40BB204B01253C
:104BF000C3E90000FDF754FB0446FDF713FD4FF039
:104C0000FF3E6FF0004C10F57A7241F100039645BB
:104C10007CEB03014FF000012046164C3CBF72466E
:104C20006346CDE901150094FDF7A2FB0028BEDB29
:104C300001211148FFF7F2FC012005B030BD012031
:104C4000FCF7FCFE01460A48FDF742F900220E205F
:104C50000A49FCF797FFEBE7FDF71EF9B4E700BF41
:104C60005C860010401B00206A1B0020494A00108F
:104C70000C1B0020214B0010840E00206D480010FA
:104C800000487047C88500100048704774850010C0
:104C900038B5184B04461A780AB344B940F20942B1
:104CA0004FF44173144D6A802B80134838BD052C96
:104CB0001DD8124B104D53F82410284600230139FB
:104CC00003E0132B20F8022F0ED011F8012F01332F
:104CD000DBB2002AF5D15B0043F44073E4E7112115
:104CE000184600F025F8D8E74FF44A73DCE70020B7
:104CF00038BD00BF4C1B00205C1600205C850010F6
:104D000000B545F247308BB0FDF7DEFE01220346C9
:104D1000092101A89847054A05AB03A813F8011D0E
:104D2000834202F8011FF9D10BB000BD331B0020F4
:104D3000012924D010B501F1FF3E0021114C00F1F2
:104D4000FF3CCA434B08E35C02F0010292001341AE
:104D500003F00F021346092A01F10101D4BF3033D9
:104D6000373371450CF8013F05D01029E9D10023F4
:104D70001030037010BD00230844037010BD0023E1
:104D800003707047341B0020F0B4002600F07F044D
:104D90001B4D630003EBD01305EB43139870C00960
:104DA000DA7680F001021983DE705A70E300A8B948
:104DB000144A043305EB84119F188F609E503CB950
:104DC0000023114A05EB4010C2604360F0BC7047FD
:104DD0000E4BE40023444B60F0BC7047094A05EBDE
:104DE000841113448B6242F83460002CE8D0E40054
:104DF00004F1A04404F580144C62F0BC704700BF7D
:104E0000F4160020800010500001105004001050D3
:104E100070B500F0F3F80C234026194CFF22A3676D
:104E20000E201849FCF7AEFE32460021164801F06C
:104E3000D3FF0125002380211348144A4184457083
:104E40000683068782604360136042F8043C80F862
:104E5000213080F83B3043620D4B4FF00056C36069
:104E6000C362803B836202F0ABF84FF480320949A1
:104E7000094B2564E664C4F89010DA64284670BDD6
:104E80000000115075030020F4160020840010501B
:104E90000001105010D001000020115001210E20FF
:104EA000FCF7FEBD00220248114600F0C7B800BF63
:104EB00014170020044B197021B14FF40032034B3A
:104EC000C3F89020704700BF611B002000201150E4
:104ED0000B785B0602D14B78052B00D070474B88CE
:104EE000014ADBB21360704700001150CA7802F02B
:104EF0000302012A36D0F8B58C78898804F07F0542
:104F00002046C1F30A01FFF73FFF0DB90120F8BDAC
:104F1000174E6D0005EBD41306EB43131A8B15499E
:104F2000DB7E3F32022B22F03F020B6808BF5200AB
:104F30001A44E4090A6010492F1906EB47178A4200
:104F4000FB6011D8254406EB4515E97E83F0A043AC
:104F500083F480136A6843EA816343F0004313607B
:104F60000120F8BD00207047FDF7FAFDFB68E9E776
:104F7000F4160020081B0020FF0F105002F020B88C
:104F80008C4608B5114607481A460CF07F034FEAD5
:104F9000DC1C0CEB430C00EB4C1000F04FF8012034
:104FA00008BD00BFF416002011F07F0205D10029D2
:104FB0000CBF02200120064B9866C909054B01EB86
:104FC000420003EB40104FF40062002102F010B8E1
:104FD00000201150F416002011F07F0300D170471B
:104FE000002205485B0003EBD11300EB43106FF484
:104FF0000061C27001F0FCBFF41600204FF0805237
:1050000009480A4908B50A4B02600A609968C94311
:1050100011F08051FAD14FF48052064801F0DCFEC5
:105020000922054B5A6708BD0020024000300240AB
:1050300000000240000010500000115000234FF00B
:10504000010C10B580F81AC08282C3820161044647
:1050500001F0DEFF20B14FF40032074BC3F890207F
:10506000204601F0CDFF10B10123237710BD20466B
:10507000BDE8104001F0ACBF002011502DE9F04117
:1050800000241D4E054623463278DFF878801B4FFA
:105090000DE03B6813EB441324D0DB6828469847A7
:1050A00032780134E4B2511CA142234606DBA2420D
:1050B000A3EB0203EDD808EB4313EEE754220021E3
:1050C0000F4801F089FE4FF0FF330D482022041DE8
:1050D0004360C4E90133E360FF21BDE8F0411430CF
:1050E00001F07ABE4FF0E023D3F8F03DDB0700D5A6
:1050F00000BEBDE8F08100BF601B00206C100020E6
:105100003C120020DC850010704700BF704700BFD4
:105110000020704700207047704700BF704700BFF5
:10512000704700BF704700BF024B5878003818BF67
:10513000012070473C120020024B1878C0F3800019
:10514000704700BF3C1200202DE9F047DFF8E4A0D3
:105150009AF80030FF2B56D10E4600293ED0002190
:1051600054220746294801F037FE0022284C294BDB
:1051700020461A70FCF790FE274B28481C60284CEC
:10518000FCF798FE204601F069FD264A264B146084
:1051900023B12648FFF74CFB254B18600024234D14
:1051A00023462A78DFF89090DFF884800EE0D8F864
:1051B000003013EB441311D05B687BB198472A7819
:1051C0000134E4B2511CA142234611DBA242EED8C5
:1051D0009B1A09EB43135B68002BEFD14FF0E023E0
:1051E000D3F8F03DDB0700D500BE0020BDE8F08716
:1051F000314638468AF80070FFF70AFE0028EDD0E5
:105200003846FFF74BFE0120BDE8F0873C12002036
:1052100034120020621B002090120020B00E0020EB
:105220009C0E00209412002031480010601B0020CA
:105230006C100020B80E0020DC8500102DE9F04F26
:10524000DFF8C8928BB099F80030FF2B00F0F180A6
:10525000A84CA94DDFF8B0A2DFF8B4B22668736994
:10526000EFF3108272B6D3E8CF0F01210028FAD1F4
:10527000C3E8401F0028F6D1BFF35F8FB26130460C
:1052800007A901F091FB00237269C2E88F3FB3695F
:1052900083F31088002800F0CC809DF81D30013B7E
:1052A000072B00F27D83DFE803F0A7B1959D8E35D3
:1052B0000A04089B002BD1D009989847CEE79DF8A7
:1052C000201001F07F0605EB460000EBD11090F8AE
:1052D000343023F0010380F8343090F8343023F078
:1052E000040380F83430002E00F0A680037D9AF885
:1052F0000020934280F09380804A126812EB43139F
:1053000000F090809E699DF82120099B9DF81C006B
:10531000B047A3E79BF80030002B00F083809BF898
:105320000030013BDBB28BF800309BF8003003F01B
:10533000FF00002B92D1704F9DF81C803B7843F00A
:1053400001033B7097F8343060F3000387F8343082
:1053500097F8343060F3820387F8343097F83530AB
:1053600060F3000387F8353097F8353060F3820337
:1053700087F8353000F070FC9DF8203003F06002B3
:10538000602A6CD0402A7CD003F01F03012B00F070
:10539000C180022B00F08180002B60D1202A00F018
:1053A000E981002A5BD19DF82130092B57D8DFE82D
:1053B00013F0B001A2015600C101560095016B0126
:1053C00056006001F4002B78D9077FF547AFFFF74F
:1053D000A9FE43E7EB78DA077FF540AF0898FFF7BF
:1053E00095FE3BE72B78D8077FF538AF2878C0F3D8
:1053F000C000FFF795FE31E79DF81C00FFF73EFE69
:1054000000F020FC9DF82030AB7027E79DF81C00D1
:10541000FFF734FE00F016FCFFF780FE1EE7501C7D
:10542000984211DA4FF0E023D3F8F03DDC0700D5C5
:1054300000BE0BB0BDE8F08F099B9DF821209DF8C0
:105440001C0000F01DFC09E79B1A2D4A02EB4313D8
:1054500058E7FFF719FC0246002840F082814FF020
:10546000E023D3F8F03DDE0700D500BE9DF81C0018
:105470000021FFF799FD80219DF81C00FFF794FDA6
:10548000ECE6204800F0E8FB0121404608AAFFF7BF
:10549000BBF900287FF4E2AEE8E79DF8241011F094
:1054A000700FDCD101F07F0607EB4600164B00EBD6
:1054B000D1101B78007D7600019698424FEAD116F4
:1054C000009659D35E1C8642C0F26681C01A0C4B0E
:1054D00003EB4016002A00F06381706900F0BCFB0A
:1054E00001214046736908AA984700287FF4B6AEA8
:1054F000BCE700BF941200203C1200206C1000207A
:10550000DC85001009480010601B0020B80E002048
:10551000621B00209DF824300F2BA7D8AE4A3B44D5
:105520001B791278934232D3511C99429EDBAB4EC9
:105530009B1A06EB4316706900F08EFB0121404672
:10554000736908AA984700287FF488AE9DF8203038
:1055500013F060068AD19DF821300A3B012B85D8D3
:1055600000F07AFB9DF821300A2B00F0F2814046D2
:1055700008A900F019FB71E6994B1B6803EB401674
:10558000002A00F00D81002E3FF470AFA5E7944A89
:10559000166816EB4316CED168E77B789DF822603B
:1055A0009E4200F04F817B78002B40F0BE817E70E0
:1055B000002E00F04581701EC0B2FFF765FB034668
:1055C000002800F05F814278022A40F05B81C179B7
:1055D00003F10906C1F340121201C1F3801142EA3E
:1055E00041123146387820F0300002433A705A8830
:1055F000CDF80C809A180192019B8B4240F2A48155
:105600004A780B2A00F0AF810123042A40F03A8146
:105610000026019A0096521A92B202926E4A0493A0
:1056200012781DE06E4B1B6813EB461800F02A81C0
:10563000029AD8F810300398059198470828024636
:10564000059906F1010303D90298904280F0FF808A
:10565000DEB2614B00961A78531C9E4200F3128111
:10566000009B9642A3EB0202DCD35C4B03EB421897
:10567000DEE77B7840468DF81A300DF11A020123DF
:1056800008A900F0ABFAE9E5BDF82200030A013BE6
:10569000020AC0B20E2B3FF6E9AE01A151F823F089
:1056A000B558001051570010F15800106D540010FB
:1056B0006D540010D3580010515700106D54001055
:1056C0006D5400106D5400106D5400106D54001096
:1056D0006D5400106D540010A758001008A800F079
:1056E000C1FA40469DF82210FFF7DCFB3B7843F0FF
:1056F00002033B70B2E5BDF82230012B7FF4B6AE59
:105700003B78404623F0080308A93B7000F04CFAB0
:10571000A4E540463B789A0802F00202C3F3401326
:105720001343ADF81A300DF11A02022308A900F054
:1057300055FA93E5BDF82230012B7FF497AE3B7804
:10574000404643F0080308A93B7000F02DFA85E5B8
:10575000022A3FF47EAEFFF7DDFC024600283FF44C
:1057600085AE4046538808A900F038FA00287FF437
:1057700075AD7BE69DF824300F2B3FF677AE164AC9
:105780003B441B79127893421DD2154A166816EBDA
:1057900043167FF4A2AE69E6002A7FF467AE0026C6
:1057A0009DF8212002F0FD03012B1BD0002A7FF47D
:1057B00056AE019B009A3B44134493F83430404664
:1057C000C3F34003ADE7511C9942FFF64FAE034EC1
:1057D0009B1A06EB431680E6601B0020DC85001058
:1057E0006C100020BDF82230B3B9012A99F80000EE
:1057F00000F08680FFF7D8FB019B009A3B441344DE
:1058000093F8342042F0020283F8342093F83420D5
:1058100042F0010283F83420002E3FF41FAD70697E
:1058200000F01AFA7369012108AA4046984700203F
:1058300000F012FA97F83530DF073FF50FAD96E626
:10584000FFF76CFC404608A900F0AEF906E5049BA2
:10585000012B00F09E80002B00F08A804FF0000C9E
:1058600005E006715FFA8CF0984280F081808878BC
:10587000604457FA80F090F804E00CF1010CBEF19E
:10588000FF0FEED04FF0E023D3F8F03DDA0700D55C
:1058900000BE4FF0E023D3F8F03DDB0700D500BE9B
:1058A00000237B70E2E5FEF7ABFF024600287FF4A1
:1058B00058AFDBE5FFF7E4F9024600283FF4CFAD2F
:1058C0004046122308A900F089F900287FF4C6ACED
:1058D000CCE5FFF71DFC024600283FF4C7AD40466B
:1058E000137808A900F07AF900287FF4B7ACBDE579
:1058F000BDF82410FFF7CCF902460028EFD1B5E53A
:105900000293FFF769FB019A009B3A441A4492F80C
:105910003410029B63F3410182F8341092F8341082
:1059200063F3000182F8341076E700214046FFF768
:10593000C1FA4046FFF722FBBB7840460093FFF7D1
:105940009DFB009BBB7032E6DDF80C80FFF7E4FBAB
:1059500078E74046012308A90DF11A028DF81A6074
:1059600000F03CF97AE40A78CB7811444A784CE6A6
:10597000334610480492029100F01CFE0E4B049A2C
:1059800002991B781144009A01339342BFF634AE5A
:1059900078E7D8F810C00948844508BF02235DE7BE
:1059A0004FF0E023D3F8F03DDB077FF557AC00BEA6
:1059B00054E400BF50120020601B0020DD5F001087
:1059C00038B58B7813F0700F08D04FF0E023D3F880
:1059D000F03DDB0700D500BE002038BD074A084B6C
:1059E0000C46084691781D7800F0B4FD0028ECD0F4
:1059F00021462846BDE83840FFF778BA3C1200201F
:105A0000B80E00202DE9F047DDE908895AB30746B2
:105A10000C461E4615464FF0000A16E0E17801F0EC
:105A20000301B14214D121463846FFF7C9FF78B1CE
:105A3000A3780AF1010ADA0914BF89F8003088F85E
:105A400000302378AA451C440DD06378052BE5D09F
:105A50004FF0E023D3F8F03DDB0702D40020BDE88F
:105A6000F08700BEFAE70120BDE8F0870B46064A42
:105A700006481168DA09343203F07F0302EB43036E
:105A8000184400F021BD00BF901200203C120020FD
:105A90000B46064A06481168DA09343203F07F03E0
:105AA00002EB4303184400F039BD00BF9012002000
:105AB0003C12002010B5194801F07F0C00EB4C009F
:105AC00000EBD11090F834C01CF0010F08D04FF05B
:105AD000E023D3F8F03DDA0700D500BE002010BD6A
