:020000041000EA
:10000000002008205D0100101301001015010010F0
:100010001101001011010010110100101101001058
:100020001101001011010010110100101701001042
:100030001101001011010010190100101B01001026
:100040001D0100101D0100101D0100101D010010F8
:100050001D0100101D0100101D0100101D010010E8
:100060001D0100101D0100101D0100101D010010D8
:100070001D0100101D0100101D0100101D010010C8
:100080001D0100101D0100101D0100101D010010B8
:100090001D0100101D0100101D0100101D010010A8
:1000A0001D0100101D0100101D0100101D01001098
:1000B0001D0100101D0100101D0100101D01001088
:1000C0001D0100101D0100101D0100101D01001078
:1000D0001D0100101D0100101D0100101D01001068
:1000E0001D0100101D0100101D0100101D01001058
:1000F0001D0100101D0100101D0100101D01001048
:100100001D0100101D0100101D0100101D01001037
:1001100000BE00BE00BE00BE00BE00BEEFF3058004
:10012000103800BEF2EB8871049A0010409A00105B
:10013000A801001090A31AE7D3DEFFFF42012110AF
:10014000FF01000000AC0000793512AB4FF0000059
:100150002049086006C881F3088810474FF05040D6
:10016000006810B14FF00000F2E70FA40ECC002998
:1001700002D000F015F8F9E71749184A002000E00E
:1001800001C19142FCD1002080F30A8814498847BC
:10019000144988471449884700BEFDE701C901C2D8
:1001A0009A42FBD3704700BF409A00101001002014
:1001B0000814002038AD00100000082000000820BE
:1001C00038AD0010001008200010082000000000CA
:1001D0007047000008ED00E0081400202C220020E9
:1001E000CD4A001031020010C54A0010F8B500BF1A
:1001F00010B5054C237833B9044B13B10448AFF361
:1002000000800123237010BD901500200000000025
:100210008080001008B5034B1BB103490348AFF3BE
:10022000008008BD000000009415002080800010B0
:100230002DE9F04F192091B001F050FE4FF0010769
:10024000192347EC44304FF0000545EC40300A26B6
:10025000192447EC4040642002F066FC45EC404025
:10026000642002F061FC013EF2D104F081FD4FF404
:10027000FA7002F059FC4FF4E1318E4802F08AFD29
:100280000221304601F0F8FD8B4D0221012001F0E2
:10029000F3FD8A4804F07EFD2B68986807F004FAA5
:1002A000874804F077FD874804F074FD864804F021
:1002B00071FD8649864804F0E5FD3246012133464A
:1002C000844804F0DFFD844804F064FD7C4804F0B9
:1002D00061FD2B68986807F0E7F900F0B5FB7F48EF
:1002E00004F058FD2B68986807F0DEF97C4804F0AC
:1002F00051FD2B68986807F0D7F9012000F0EAFC5F
:1003000030BB0E21774804F0BDFD774804F042FD74
:100310000821764804F0B6FD2B684FF00107986875
:1003200007F0C2F9192447EC4040642002F0FCFBBE
:1003300046EC4040642002F0F7FB0E216C4804F0CC
:10034000A1FD2B68986807F0AFF900F0DBFFE9E743
:100350000821684804F096FD2B68986807F0A4F916
:10036000654804F017FD2B68986807F09DF9304642
:1003700000F0B0FC0621002800F0A9825F4804F0DC
:1003800081FD2B685E4C986807F08EF95C4801F09F
:10039000F1F84E495B4804F075FD2B68DFF88CA13D
:1003A000986807F081F92821554801F067F94FF462
:1003B000FA71534801F066F93221514801F052F9BF
:1003C00002214F4801F054F94FF4C8714C4801F034
:1003D0005DF914214A4801F03FF94B4804F0DAFC7A
:1003E000374804F0D7FC494804F0D4FC484804F0EE
:1003F000D1FC3649474804F045FD002301211A4647
:10040000454804F03FFD454804F0C4FC2B68444DCA
:10041000986807F049F94FF47A7000F075FF414889
:1004200004F0B8FC02F01AFC0646089123E02B68A1
:100430000C9901332B609DF83C303B4806939DF8A6
:100440003B309DF8342005939DF83A3004939DF895
:10045000393003939DF8383002939DF8373001937B
:100460009DF8363000939DF8353004F00BFD2046A2
:100470000CA901F0BBF801200CA900F0A5FE002892
:10048000D5D100200CA900F09FFE0028F9D10A2147
:10049000204601F017F9013808284CD8DFE810F0A1
:1004A00013020F020B0207020302FF01FB01F2011C
:1004B000480000BF00000740DC12002050810010FF
:1004C000708100107481001038820010808200104A
:1004D00088820010CC82001018830010DC8300108A
:1004E000188400104C8400109C84001004850010B7
:1004F00054850010AC850010EC8500108886001033
:100500004C1D0020D0860010008700104887001086
:100510007887001094870010A4870010BC87001013
:10052000441D0020EC87001014880010A81D002036
:10053000634804F02FFC00F0D3FE624907460A68C6
:100540002378821A202A0ED90860002B00F0C3817C
:100550000B2B00F0C08120460CA901F051F80028B7
:1005600040F0078223785A1F012A00F2F181564891
:10057000218D0288914202D9013292B202809142C9
:1005800002D25149013A0A805049062BB1F90020A4
:1005900040F0FC81134694F848205242934202DD19
:1005A000023B1BB20B809A4201DD484B1A80464B3E
:1005B0002046198801F048F8444B2046B3F9001052
:1005C00001F046F82378062B00F0978100F08AFAB4
:1005D000099000F07BFA834600F07EFA4FF050411C
:1005E0004F68814607F400230A93C7F3C0431F46B0
:1005F0000B9300F061FA364B099A197880469142C4
:1006000008D01A70002A00F08481324A1221324840
:1006100004F038FC314B1A785A450AD083F800B000
:10062000BBF1000F00F077812D4A10212D4804F016
:1006300029FC2D4A13784B450AD082F80090B9F175
:10064000000F00F06A81294A1121294804F01AFCA0
:10065000284A1378BB420DD013469DF82C201A70FF
:100660000A9B002B00F05B81234A244B1321244872
:1006700004F008FC234A137843450AD082F800802E
:10068000B8F1000F00F04E811F4A0F211F4804F0FF
:10069000F9FB00F037FE1E4A207813680A33136016
:1006A000821E082A00F2E380DFE812F034003400F2
:1006B000E1003400EA00E100E100E100E40000BFF5
:1006C0008C890010B4210020200E00201A22002066
:1006D0002322002080800010248A00102422002081
:1006E000AC800010408A001025220020D880001025
:1006F0005C8A001022220020048100100C8100106E
:10070000788A00102122002040810010988A001071
:10071000BC210020FA2293420AD30023AB4A136083
:10072000AB4A137883F001031370192243EC402085
:10073000A84962680B68D31AB3F57A7F79D30A6047
:1007400001F082FBDAF8003001460393A24BA34884
:100750001B6802932B68019394F852300093B4F80D
:100760004E20B4F9503004F08DFB2D21012000F013
:10077000BFF91C210746012000F0BAF903461D21EC
:100780000120099300F0B4F92C218146012000F0EA
:10079000AFF930218346012000F0AAF90E218046EE
:1007A000012000F0A5F90346602101200B9300F021
:1007B0009FF90246702101200A9200F099F90A9AE5
:1007C0000B9BCDE90320029339464B46099A844896
:1007D000CDF800B0CDF8048004F054FBB80600F169
:1007E000B380F90600F1AC803A0700F1A5807B07E1
:1007F00000F19E8018F0080F40F0968094F83E308B
:10080000BBB194F83B00B4F83110FF2894F83320C2
:10081000B4F8373094F8397094F83AC000F0A380F7
:1008200000EB80004000CDE901C000976D4804F066
:1008300029FB42F21073F3181E464FF0FF316FF0A0
:100840000042089B43F10000DAF80030B14203F1A6
:100850000103CAF8003072EB000338BF0E4608905F
:1008600038BF08923046089902F0E8F803E64FF4E2
:100870007A7250E719234FF0010242EC403057E7FB
:100880007D2248E794F84C0001F0EAFA0146564808
:1008900004F0F8FA4FE6554804F07CFA4BE6544869
:1008A00004F078FA47E6534804F074FA43E65248F5
:1008B00004F070FA3FE6514804F06CFA3BE6504809
:1008C00004F068FA37E64F4804F064FA33E64E481D
:1008D00004F0D8FA55E54D4AB2F9001000293EDB84
:1008E0003FF465AE494A01391180073B012B3FF6C1
:1008F0005EAE0023454A138059E694F852304F2BE0
:100900007FF664AE424804F0BDFA204600F0C2FE15
:100910005CE6404A7AE6404A87E6404A94E6404A26
:10092000404BA3E6404AB0E6404804F033FA65E79E
:100930003F4804F02FFA5DE73E4804F02BFA56E7F3
:100940003D4804F027FA4FE73C4804F023FA48E713
:100950002E4AB2F90010002915DBC3D1C5E72B4B95
:100960000131198023E694F83C00C0EB00108000B0
:1009700059E701200CA900F065FA70B1164A136816
:1009800001331360EEE501311180AEE7002A114614
:1009900018DB18BF0523A5D109E6294B1B68FB1AF4
:1009A000B3F5FA7FFFF4DEAD254B302101201F6047
:1009B00000F09EF8024623481146C2F3C00204F03C
:1009C00061FACFE5531C114A1380F0E5BC210020E9
:1009D00026220020A41D0020481D0020B88A0010F7
:1009E000048B0010F08B0010788900104C890010E7
:1009F0003489001000890010E0880010B4880010CD
:100A00009488001060880010208600101A220020B0
:100A1000E889001094800010C0800010EC80001065
:100A2000248100102C81001048810010D08B001010
:100A3000B48B0010988B00107C8B0010648B00101E
:100A4000B0210020B889001038B50F2001F046FA17
:100A50004FF001050F2345EC44304FF0000444EC07
:100A60004030102001F03AFA102044EC44000022FB
:100A7000012101F01FFA112001F030FA112044EC9D
:100A800044000022012101F015FA122001F026FA9B
:100A9000122044EC44000022012101F00BFA132043
:100AA00001F01CFA132345EC443045EC403038BDCE
:100AB0000F2340EC403070474FF050435868C0F36C
:100AC000C0307047132340EC403070474FF0504324
:100AD0005868C0F3004070474FF050435868C0F367
:100AE000404070474FF050435868C0F38040704713
:100AF000F0B5244B83B003EB001600270D46F279C6
:100B0000000147EC402000BF00BF00BF00BF00BF96
:100B100000BF00BF00BF00BF00BF4FF0030C1C5858
:100B20000DF107020DF10601012320468DF806C0E4
:100B300007F06EFA0DF107020DF1060101232046C0
:100B40008DF8065007F064FA012320460DF10702E4
:100B50000DF106018DF8067007F05AFA9DF80700AE
:100B600000BF00BF00BF00BF00BF00BF00BF00BF8D
:100B700000BF00BF4FF00102F37942EC403003B0F8
:100B8000F0BD00BF00970010F0B5244B83B003EB1D
:100B9000001714464FF000050E46FA79000145ECA7
:100BA000402000BF00BF00BF00BF00BF00BF00BFAC
:100BB00000BF00BF00BF4FF0020C1D580DF107022F
:100BC0000DF10601012328468DF806C007F020FA32
:100BD0000DF107020DF10601012328468DF806608C
:100BE00007F016FA012328460DF107020DF1060160
:100BF0008DF8064007F00CFA00BF00BF00BF00BF31
:100C000000BF00BF00BF00BF00BF00BF4FF0010228
:100C1000FB7942EC403003B0F0BD00BF00970010FC
:100C20002DE9F0412A4D82B005EB00141E464FF02D
:100C3000000E88461746E3794FEA001C4EEC403020
:100C400000BF00BF00BF00BF00BF00BF00BF00BFAC
:100C500000BF00BF052355F80C508DF806300DF18C
:100C600007020DF106010123284607F0D1F90DF125
:100C700007020DF10601012328468DF8068007F0D2
:100C8000C7F90DF107020DF10601012328468DF881
:100C9000067007F0BDF9012328460DF107020DF19A
:100CA00006018DF8066007F0B3F900BF00BF00BF72
:100CB00000BF00BF00BF00BF00BF00BF00BF4FF0BC
:100CC0000102E37942EC403002B0BDE8F08100BFA0
:100CD000009700102DE9F043594E054606EB001829
:100CE00098F8074083B04FEA0019204601F0F6F863
:100CF0004FF0010747EC444047EC4040012198F891
:100D0000040001F0B9F898F80500012101F0B4F8E9
:100D100098F80600012101F0AFF856F80960D8F8FC
:100D20000C10304606F0B6FB33464FF0020E53F877
:100D3000041F06F5805C03F54052C2F800E03268FB
:100D400001EA0E0182F0070203F5005302F0CF0220
:100D5000CCF800204FF00000196040EC404000BF8C
:100D600000BF00BF00BF00BF00BF00BF00BF00BF8B
:100D700000BF4FF0C00C304601230DF107020DF10A
:100D800006018DF806C007F043F900BF00BF00BFA1
:100D900000BF00BF00BF00BF00BF00BF00BF47ECE7
:100DA0004040052001F0C0FE0E212846FFF7A0FEBE
:100DB00000F0E000802803D0002003B0BDE8F083FD
:100DC00000222A212846FFF7DFFE9122292128460A
:100DD000FFF7DAFE012228212846FFF7D5FE64221C
:100DE00060212846FFF7D0FE602270212846FFF7D9
:100DF000CBFEA3222B212846FFF7C6FE00222C2182
:100E00002846FFF7C1FE00222D212846FFF7BCFE31
:100E10000023E0220F212846FFF702FF642403E0AD
:100E200001F082FE013CC7D00E212846FFF760FE8C
:100E30001F284FF00100F3D803B0BDE8F08300BFD6
:100E4000009700102DE9F04F81464FF0030A954BB3
:100E50008BB01B68DFF85C821A0CADF82030924B27
:100E60008DF822201B6898F800401A0CADF8243049
:100E7000030102938D4B8E4E03EB00138DF8262059
:100E800003910193A6FB043202F0FE0303EB52032D
:100E9000E41AE4B204F128030DEB030717F8085C29
:100EA00048462946FFF724FE10F0080B00F00481A5
:100EB000C3060AD40134E4B2BAF1010A88F800404A
:100EC000E0D150460BB0BDE8F08F00230822294640
:100ED0004846FFF7A5FE3220002101F00DFE29460D
:100EE0004846FFF705FE10F00800E3D1039E019B82
:100EF0008346D6F800A0DB7940EC403000BF00BF4D
:100F000000BF00BF00BF00BF00BF00BF00BF00BFE9
:100F10000223029A8DF81E30644B0DF11F09985878
:100F20000DF11E0319464A460123CDE9031007F0CF
:100F30006FF817F8042C0123DDE903178DF81E2044
:100F400038464A4607F064F84FEADA020123384689
:100F500003998DF81E204A4607F05AF84FEA4A12C4
:100F6000DDF80CA00123514638468DF81E204A4674
:100F700007F04EF801234A46514638468DF81EB018
:100F800007F046F801234A46514638468DF81EB010
:100F900007F03EF8327938468DF81E2001234A4684
:100FA0005146BB46CDF80CA007F032F83779BFB1F7
:100FB000039F06F1040A059555461AF8013F4A4673
:100FC0008DF81E3039460123584607F021F8033DBD
:100FD0003379AD1BAB42EFDC072B1F46059D0DDCC3
:100FE000DDE903BA002601234A4659465046013737
:100FF0008DF81E6007F00CF8082FF4D100BF00BF79
:1010000000BF00BF00BF00BF00BF00BF00BF00BFE8
:10101000264902984FF001070B18DE7947EC406033
:10102000019B4FF00002DB7942EC403000BF00BF73
:1010300000BF00BF00BF00BF00BF00BF00BF00BFB8
:10104000022351F800A0DDF80CB04A4659468DF84D
:101050001E305046012306F0DBFF4A465946012365
:1010600050468DF81E5006F0D3FF08234A468DF8EF
:101070001E3059465046012306F0CAFF00BF00BF8C
:1010800000BF00BF00BF00BF00BF00BF00BF00BF68
:1010900047EC406001200134E4B288F800400BB016
:1010A000BDE8F08FBC8C0010C08C001000970010C1
:1010B000ABAAAAAA29220020039E019A33680493AE
:1010C000D3794BEC403000BF00BF00BF00BF00BF72
:1010D00000BF00BF00BF00BF00BF3A4A0299022311
:1010E00052F801A00DF11E0211460DF11F094A46EA
:1010F0008DF81E3050460123039106F089FF17F842
:10110000042C012303998DF81E2050464A4606F010
:101110007FFF049F0123FA0803998DF81E20504693
:101120004A4606F075FF7A01039F012339468DF880
:101130001E2050464A4606F06BFF394601234A46B8
:1011400050468DF81EB006F063FF394601234A462B
:1011500050468DF81EB006F05BFF327939468DF8A7
:101160001E2001234A465046039706F051FF377967
:10117000CFB137460494039C06F1040B5E461BF87E
:10118000013F4A468DF81E3021460123504606F0A5
:101190003FFF033E3B79F61BB342EFDC072B1F46B4
:1011A000049C3FF72BAF0026DDF80CB001234A4624
:1011B0005946504601378DF81E6006F029FF082F6A
:1011C000F4D11BE7009700102DE9F04F894689B054
:1011D0002C218046FFF78CFC10F003037AD010F02E
:1011E0000102019208BF0222DFF8F0A008BF0192BD
:1011F0000AEB08134FEA081B14BF61247124DB7942
:101200004FF0000242EC403000BF00BF00BF00BF03
:1012100000BF00BF00BF00BF00BF00BF03235AF8DC
:101220000B508DF80F3004AA01230DF10F01284651
:1012300006F0EEFE0123284604AA0DF10F018DF8F9
:101240000F40002706F0E4FE04AC0DF11D0601235B
:1012500028460DF10F020DF10E018DF80E7006F00B
:10126000D7FE9DF80F3004F8013BB442EFD100BF28
:1012700000BF00BF00BF00BF00BF00BF00BF00BF76
:1012800000BFDA444FF001029AF8073042EC4030D8
:101290009DF814209DF8113002F00F02082A28BF93
:1012A00008229DF810105B0943EAC103C9F8003019
:1012B0000DF1150189F8042009F1050006F038FC4C
:1012C000404600232C21019AFFF7AAFC012009B017
:1012D000BDE8F08F184609B0BDE8F08F0097001008
:1012E00008B501F0BBFC29B14FF47A72002306F077
:1012F00087FE08BD024AA2FB0020800908BD00BF8E
:10130000D34D621001F042BE42F26C0398424FF09E
:10131000010128BF184601F043BE00BF002302218F
:101320004FF6FF7243608360C360036003618171A5
:10133000A0F80B20704700BF70B408224FF48076ED
:10134000002340F201150E600A7190F800C08B7105
:1013500081F805C0B0F801C04FF4817481F807C06E
:10136000B0F801C02CFA02FC81F808C0B0F803C044
:1013700081F809C0B0F803C02CFA02FC81F80AC059
:1013800090F805C00D618A8281F80BC00B7390F84C
:1013900006C081F816C090F807C081F817C090F811
:1013A00008C04B7681F818C0B0F809C081F81AC09F
:1013B000B0F809C00C622CFA02FC81F81BC00B7754
:1013C00081F82420C27A70BC81F82520828981F8B6
:1013D00026208289120A81F82720827B81F8282022
:1013E000C27B81F82920027C81F82A20427C81F886
:1013F0002C3081F82B2070470A680346B2F5847FB1
:1014000018D040F20910824212D101224879987115
:10141000C888A3F80700087A5872887A9872C87A40
:10142000D872097B9A730022012019731A617047E0
:10143000002070474A790120003A18BF01221A7033
:10144000CA88A3F801200A7ADA70B1F80920587323
:101450009A80002201201A61704700BF2DE9F047F1
:10146000044684B0B0F8317090F83350868EB0F8EE
:10147000378090F8399090F83AA0FFF731FFA369D0
:10148000C31AB3F57A7F14D294F82A1035B911B97A
:10149000012384F82A3004B0BDE8F0878D42FAD2E7
:1014A0002A46164803F0EEFC84F82A5004B0BDE842
:1014B000F087A06133462A463946CDE9019A1048A3
:1014C000CDF8008003F0DEFC3EB1B4F81F108E4270
:1014D00003D232460B4803F0D5FC218D8F4208D34E
:1014E000B4F81D104B1EC62BCED8074803F0CAFC1B
:1014F000CAE73A46054803F0C5FCF1E7B88D00108D
:10150000C48C0010088D0010888D0010588D0010BC
:1015100038B503780A2B20D0104A04460B2B0D4611
:1015200052F8211096BF0E4A0E4A52F823200E4858
:1015300003F0A8FC23780D480B2B96BF084A0949F5
:1015400052F8231084F84C50094A03F09BFC0A21FE
:101550000023227863602170627038BD20970010EC
:101560005C970010E48D0010EC8D0010208E0010B0
:10157000108E00102DE9F041044617491748B4F8C1
:101580004E80B4F9507094F85260B4F8545003F09F
:1015900079FC58220021204606F0FAF94FF4E17355
:1015A0002385022384F82A3041F208430C4AA3859C
:1015B0000C4B04F13000C4E907230B4B6362FFF7C7
:1015C000ADFEA4F84E80A4F8507084F85260A4F8E0
:1015D0005450BDE8F08100BF808200103C8E0010A6
:1015E000015E01F40164FFFF3C90010210B5044666
:1015F0003030FFF701FF08B10023A36010BD00BF2A
:1016000030B504460D468DB069461C30FFF794FE98
:1016100094F844300B4AA2FB031202F0FE0101EBE6
:1016200052029B1ADBB20CAA02EB0313303B0FCB26
:1016300085E80F00012094F84430034484F84430D6
:101640000DB030BDABAAAAAAA0F84E10704700BFDB
:10165000A0F85010704700BF642928BF642180F8AB
:1016600052107047B1F5FA7F98BF0185704700BFEF
:10167000C82998BF80F82A10704700BFA0F81D1035
:10168000704700BFA0F81F10704700BFA0F82510DA
:10169000704700BF0378062B00D0704710B5044692
:1016A000054A0649064803F0EDFB0721002322788E
:1016B00063602170627010BD588E0010648E00103F
:1016C000208E001070B50446C368426800780B4451
:1016D000E360831E0A44042B626028D8A3680B448D
:1016E000A360FFF7FFF9002840F06B822578AB1E5E
:1016F000042B0BD842F21073A168994200F20682C3
:10170000B4F854103C2900F2F98125780B2D00F231
:10171000FC80DFE815F00D00BD01780152013C01AD
:10172000FF00A500830074004E003A00320010BB99
:10173000FFF7D8F92369002840F00B82002B00F056
:1017400002836268D21AC72A1CD9C14803F022FB5F
:101750002378C0480B2B96BFBF4AC04952F82310CC
:10176000BF4A03F08FFB0123002221781D466170E0
:101770002370626007E00B28B3D1FFF7B3F90028AC
:1017800040F0B9820025284670BD6368312B40F2D5
:10179000C581632B40F2B682C72B00F2E68294F833
:1017A0002C30002043F0080384F82C30FFF78AF92E
:1017B000E8E70020FFF77CF9002094F82C3084F84B
:1017C0004A0023F0010343F0080384F82C30FFF7AC
:1017D00079F96368632BD5D923789E480B2B96BF84
:1017E0009D4A9E4952F823109E4A03F04BFB0B2161
:1017F000002322780725217062706360C3E7636865
:10180000952BBFD99849994A924803F03BFB09218F
:1018100000232278636021706270B3E7002394F89C
:101820002C2094F83E1022F0010284F82C2084F839
:101830002A3084F8483084F84B30002900F0518178
:1018400094F83950002D40F04C81874A88498148EE
:1018500003F018FB0823227865606270237091E71B
:1018600094F83D30002B40F0918194F8483094F882
:101870002A209A4240F21A820133DBB284F84830BF
:1018800094F83E2084F82A3042B3B4F83710B4F804
:101890004E20CB0802EBD100814200F3A3810B4420
:1018A0009A4200F39F81002384F84630B4F9502017
:1018B00094F83910002A4FEAD103B8BF5242032BE3
:1018C00038BF032392B2C818824200F3DD8113446B
:1018D000994200F3D981002384F8473094F83A10F4
:1018E00011F0120300F07B8194F845300133DBB234
:1018F000032B84F8453000F230828A0600F1EB8138
:1019000094F82B30002B3FF43DAF0E212046FFF71B
:10191000FFFD37E794F83E30002B00F02081B4F84B
:101920004E30B4F83760B34234BFF31A9B1B9DB2FC
:10193000FFF7D6FCA369C31AB3F57A7F80F0FA816A
:1019400094F83D3013B12046FFF788FD94F84A30F3
:10195000002B00F0DE8194F83A30DB0740F104817F
:10196000444803F017FA23783A480B2B96BF3A4ABB
:101970003A4952F82310404A03F084FA0622002321
:1019800021781546C4E9013361702270FBE63B48BB
:1019900003F000FA23782F480B2B96BF2E4A2F49CD
:1019A00052F82310364A03F06DFA002305222178FD
:1019B000636061702270A360E4E6012194F82C302A
:1019C00094F83D200B4384F82C3084F84B10002A07
:1019D00040F0D880FFF784FCA2690346821AB2F572
:1019E0007A7F80F04A8194F83A30580700F12D81CF
:1019F00019077FF5C7AE234803F0CCF9092120462B
:101A0000FFF786FDBEE694F83E30002B3FF4BAAEF9
:101A100094F83330B4F8312094F836101A4803F0B3
:101A200031FA94F83630B4F83110012B88BF022314
:101A3000B4F81F2088BF84F82730914280F0A2813B
:101A4000124803F01FFA09212046FFF761FD99E6CD
:101A5000388F0010208E00105C970010E48D00106D
:101A6000688F0010B893001094930010A893001092
:101A7000588E001070920010648E0010D0910010EB
:101A80008C9100109891001064900010A4900010A8
:101A90000120FFF717F8FFF723FCA2690346821A1B
:101AA000B2F57A7F80F0C88008220223E56B84F8C3
:101AB0002C2025F07F4525F0FF0584F82730002DE8
:101AC00040F0A180BD4B62689A427FF65BAEBC4895
:101AD00003F060F92846FEF7F5FF2046FFF74AFDC0
:101AE00050E641F2873362689A427FF64BAEB549C1
:101AF000B54AB64803F0C6F9082189E6B44803F0B0
:101B0000C1F906212046FFF703FDFEE5B14803F0C9
:101B1000B9F901212046FFF7FBFCF1E594F84C30C0
:101B2000AD480E2B96BFAD4AAD4952F8231003F0D5
:101B3000A9F9002194F82B2094F82C3042F01002DF
:101B400043F0040384F82A1084F82B2084F82C3006
:101B500018E6002B40F0FD800023236112E694F884
:101B60004A30002B7FF4F7AE42F20F7362689A425C
:101B70007FF608AE9B4803F00DF902212046FFF7DF
:101B8000C7FCFFE52046FFF769FC23E72046FFF787
:101B900065FC94F8483094F82A2094F83D1093425C
:101BA00080F08E800133DBB284F8483000293FF4A6
:101BB00067AE94F833209A423CBF134684F848201D
:101BC0005EE6894803F0E6F80020FEF77BFF002080
:101BD000FEF76EFF2046FFF7CDFC0925D3E584F81C
:101BE00045308AE694F846300133DBB2042B84F8A2
:101BF00046307FF65BAE7D4803F044F90221204673
:101C0000FFF786FCBEE57A4803F0C4F823786F48F6
:101C10000B2B96BF774A724952F82310764A03F08D
:101C200031F9002302210122207863606070217065
:101C3000A36084F84920A5E594F83E2094F83D106F
:101C4000A3616E4803F01EF92EE76D4803F0A2F879
:101C500023785E480B2B96BF664A614952F82310E1
:101C6000684A03F00FF9002205212078C4E9012217
:101C700094F83A3060702170BAE694F82C10A361A1
:101C8000614803F0FFF8AEE694F847300133DBB269
:101C9000042B84F847307FF621AE12B25B4803F084
:101CA000F1F803212046FFF733FC6BE5BFF4E8AD04
:101CB000591EC9B291427BD80B4684F84810DFE523
:101CC0007FF674AF581EC0B28242C0F0B7800346A0
:101CD00084F848006AE74E4803F05CF823783B48F4
:101CE0000B2B96BF434A3E4952F82310354A03F066
:101CF000C9F807218CE5474803F04CF82046FFF768
:101D000039FC6AE70020FEF7D3FE002384F84A304E
:101D100038E53221404803F0B5F80120FEF7C8FE4F
:101D2000012294F82C3084F84A2023F0080384F828
:101D30002C3010E6A0612B463146B4F84E203748CF
:101D400003F0A0F8FCE5364803F024F8636823614B
:101D500018E5344803F01EF8FEE6334803F092F825
:101D600008212046FFF7D4FB0CE5304A30491748DC
:101D700003F088F80B210023227808252170627077
:101D8000636000E52B4803F005F823780F480B2B20
:101D900096BF184A124952F82310274A03F072F8E6
:101DA000002303222178636061702270A360EAE45B
:101DB000023BDBB284F8483062E500BFDF930400E9
:101DC00028900010588E001094930010208E001060
:101DD000E08E0010B08E0010C0930010209700100D
:101DE000E48D0010AC920010788E0010CC920010A0
:101DF000E08F00105C9700101C900010A48F001062
:101E0000549100108C910010189100100493001050
:101E10006C930010009400103C9200100892001087
:101E20000C8F0010788F00103C930010B8930010B6
:101E3000108E0010E49000100C910010023BDBB2F9
:101E400084F84830B2E600BF0B289ABF024B53F823
:101E500020000248704700BF5C970010E48D00101E
:101E60000E289ABF024B53F820000248704700BF6B
:101E700020970010E48D001010B44FF480740C4BC8
:101E800053F8202003EB8003C00082F0400200F1F1
:101E9000804003F5805C02F0C00200F5203003F5BD
:101EA0004053CCF8002041601C605DF8044B704743
:101EB0000480034010B4084CC90041EA820154F880
:101EC000202004EB8003514003F5805301F00C0106
:101ED00019605DF8044B70470480034030B44FF044
:101EE000000343EC440043EC400005254FF48074AC
:101EF0000B4BC20053F8201003EB800081F040012F
:101F000002F1804303F5203301F0C00200F5805157
:101F100000F540500A605D60046030BC704700BF4F
:101F2000048003400FB400B583B0049C074802F05E
:101F300031FF3CB105A92046019102F06DFD044836
:101F400002F028FF012002F07FFD00BF3095001055
:101F50009884001070B58646EFF3108572B6124C67
:101F6000D4E8CF6F0120002EFAD1C4E8460F002E2E
:101F7000F6D1BFF35F8F4FF0010CC80801F00703E3
:101F80000CFA03F31EF800C01CEA030608D14CEA61
:101F9000030C0EF800C0C4E88F6F85F3108870BD85
:101FA0001046FFF7BFFF00BFCB180020F8B5EFF3D6
:101FB000108772B61C4ED6E8CF5F0124002DFAD1EF
:101FC000C6E8454F002DF6D1BFF35F8F9A421BD86C
:101FD000012502E00132934222D3D40810F804E034
:101FE00002F0070C05FA0CFC1EEA0C0FF2D14EEAC7
:101FF0000C0E00F804E010460023C6E88F3F87F37C
:102000001088984207DBF8BD0023C6E88F3F87F3AE
:1020100010884FF0FF300029F5D00698FFF782FFB7
:102020004FF0FF30E8E700BFCB180020044A1078DB
:10203000431CDBB2182B28BF10231370704700BF5E
:10204000220E002010B5054C82B001461F23182235
:1020500000940348FFF7AAFF02B010BD409500109E
:10206000DC1C00204FF0E022936843F000539360A3
:10207000704700BF0021044B03F12002C3E88F1F0B
:1020800001339342FAD17047C01800204FF08030DE
:10209000034B04491A4604338B421060FAD170474F
:1020A00000E400E034E400E0012300F01F0293406C
:1020B000400941B1800000F1604000F56140C0F886
:1020C000803103607047024A203042F82030704768
:1020D00000E100E00123064A410952F8212000F006
:1020E0001F0003FA00F01040003818BF01207047AD
:1020F00000E100E001224309034900F01F00824093
:10210000403341F82320704700E100E0054A1030D9
:102110009268054B52F82000C01A2F288CBF00206F
:102120000120704700ED00E0240E0020F8B50D46B8
:10213000EFF3108772B6124ED6E8CF2F0123002A94
:10214000FAD1C6E8423F002AF6D1BFF35F8F0D4BAC
:1021500000F110049B680C4A53F82430934203D0DA
:10216000994201D001F018F8064B9B6843F82450BF
:10217000BFF35F8F0023C6E88F3F87F31088F8BD59
:10218000C918002000ED00E01D0100102DE9F04FFE
:1021900081468B46164683B0EFF3108372B6DFF8A4
:1021A000D0A10093DAE8CF1F01230029FAD1CAE8B1
:1021B000413F0029F6D1BFF35F8F664B93F9004092
:1021C000002CC0F2A080644D04EB440705EB8708A7
:1021D00098F8061009F110091970604BBF009B6850
:1021E00053F829006300411B2F292FD95C498842ED
:1021F00040F0A4801C445B4B02372F44043BDB1BA4
:10220000C3F34A036FEAC3434FF421416FEAD34358
:1022100025F8241005EB840463804BF60153A3805A
:10222000FF2348F00100E671C4F808B0A3714B4BDE
:102230009B6843F82900BFF35F8F0023CAE88F3FF4
:10224000009B83F3108803B0BDE8F08F20F0010EEF
:102250009EF80710B1422ED84FF42143EB53414B67
:10226000B91C2944043B04375B1A2F44AEF1040126
:10227000C91BC1F34A043C49C3F34A030B4321433E
:10228000A8F804103949A8F802304AF6AA20734683
:102290005B1B5B415843000D88F8076088F8060017
:1022A000C8F808B048F00100CEF80010BFE7D179B7
:1022B000B1422ED996469EF906C00CEB4C02BCF1F9
:1022C000000F05EB8202F2DA4BF601510EF1040227
:1022D000A8F10407BF1AC7F34A076FEAC7476FEAB6
:1022E000D7478EF8064003EB0408204C05EB880323
:1022F000AEF8047045F82840998083F806C0DE7176
:10230000C3F808B093E700F047FF124B93F9004081
:1023100059E7724632F8041F490514D449150231B1
:1023200002EB410101916FF00701C91B019F491B9D
:102330003944C1F34A0141F46041C9E7019300F017
:102340002BFF019B56E701F5FF1101F5FF511F31EE
:10235000E4E700BF1F220020240E002000ED00E073
:102360001D010010540E002000E0FFFF01488047CF
:10237000C91800202DE9F041EFF30586F6B2EFF31E
:10238000108E72B6204DD5E8CF2F0123002AFAD146
:10239000C5E8423F002AF6D1BFF35F8F1B4F40F0E4
:1023A000010CBA684AF6AA2352F82680184C024655
:1023B000121B524153431B0DE04559B214D0224623
:1023C000002392F906C00C328C4512D00133042B45
:1023D000F7D1104B00221C7819708471C5E88F2F3B
:1023E0008EF31088BDE8F081BB680B4A43F82620C5
:1023F000EFE703EB430304EB8304FF23A3714BF6E6
:102400000153A380E5E700BFC918002000ED00E0FC
:10241000240E00201F2200201D01001010B5074CC3
:1024200082B001460523002200940548FFF7BEFD57
:102430000028A8BFC0F1330002B010BD5C950010A9
:102440002A220020014B0B4403607047C018002073
:1024500070B5114C114DAC421CD2FF260BE0FFF7BA
:10246000E5FD01462046FFF7EDFFA680BFF35F8F35
:102470000834AC420ED22368002BF0D1FFF7D6FD12
:1024800001462046FFF7DEFF2671BFF35F8F083459
:10249000AC42F0D370BD00BF00140020081400202F
:1024A00010B50446FFF7C2FD01462046FFF7CAFFFC
:1024B000FF232371BFF35F8F10BD00BF10B504462B
:1024C0000120FFF7BFFD034B03442360BFF35F8F81
:1024D00010BD00BFC0180020024B0B440360BFF3C7
:1024E0005F8F7047C01800200D4B1A68EFF3108102
:1024F00072B6D2E8CFCF0120BCF1000FF9D1C2E80B
:102500004C0FBCF1000FF4D1BFF35F8F00221B68AA
:10251000C3E88F2F81F3108840BF0020002170474F
:10252000F8210020000000002DE9F04F2DED028B76
:1025300085B0EFF30583DBB2103B9A0818BF012288
:102540004FF0010103F0030018BFAB4DAB4B08BFC8
:10255000AB4D00EB820201FA00FB53F8226005F557
:1025600041539FEDA38B0190C3F804B0CDF800B0A8
:102570002FE0B3881B0440F18E80B379002B40F02C
:10258000D780B6F90830002BC0F21681726903EBD0
:10259000430302EBC303D3E90247B7F1FF3F08BF90
:1025A000B4F1FF3F0ED00198AB6A05EB80010A69D8
:1025B000D21AE31A934204D301232A6A83401342B6
:1025C00000D10C61284600F041FBA042B941C0F2A5
:1025D000F380009BEB63B6F90840002CC9DBD6F80A
:1025E000148004EB4409284608EBC907D7E902BA6E
:1025F00000F02CFB584571EB0A01BADBBAF1000F71
:10260000C0F2BC80D7E904317E4A934200F0E680F4
:102610007A88B6F9080092B242EA0040984702462A
:102620000B4652EA030100F0A980002B80F2CA8019
:10263000BBEB020B6AEB030AC7E902BA38F939109F
:10264000002996DBD6F814C001EB41030CEBC30361
:10265000D3E9022393457AEB03034FEA410088DB79
:10266000B6462EF8081F00E0480043180CEBC307DD
:10267000D7E9020283457AEB020204DB3CF933100E
:10268000BE460029F0DA28F83910AEF80040B388C9
:102690001B043FF572AF3369EFF3108272B6D3E8D3
:1026A000CF0F01210028FAD1C3E8401F0028F6D13E
:1026B000BFF35F8F4FF6FF74B0880023316900B21B
:1026C000B480C1E88F3F82F310889842FFF655AF7F
:1026D0000446A94606F10808776904EB440E07EBA7
:1026E000CE03D3E90250B6F90830C446002BA8BF88
:1026F000A34605DA0FE037F93A309446002B09DBA0
:1027000003EB430A07EBCA02D2E90241A54270EB90
:102710000101F0DA5C46ACF8004037F93E4027F89A
:102720003E30002CD8DAB3794D46002B3FF429AF68
:102730000023B371B6F9083006F1080C5F1C04D110
:102740003AE084465A1C3FF41CAF726903EB430124
:1027500002EBC10044881F46240432F93130F0D521
:1027600080ED028BB6F90800B842EBD0ACF800302F
:10277000B6F9080022F831003781E3E738F939303B
:1027800033813369EFF3108272B6D3E8CF0F0121A2
:102790000028FAD1C3E8401F0028F6D1BFF35F8FAD
:1027A000B6F9023028F83930316900237480C1E865
:1027B0008F3F82F31088DCE640BF05B0BDEC028B92
:1027C000BDE8F08F2846CDE9022300F03FFA029AD7
:1027D000039B10EB020B43EB010A2DE708460B6944
:1027E000029198470028C9D00299D1E9002318E73F
:1027F000FFFFFFFFFFFFFFFF00800B40D021002005
:1028000000000B402925001070B5204D2C692CB11B
:10281000BDE870400A211E48FFF714BE1D4E03217B
:10282000304600F001FAEE60FFF700FC03211A4B7E
:102830004FF6FF7218442346102429704FF0504180
:1028400028610F202A81AA806C81096868806970DC
:102850006869511CC2521833B3F5C07F8AB2F7D1F0
:1028600008240C4B0D4A0320D5600D491C62FFF76C
:102870005DFC01210320FFF717FC0A4B0A211C64B1
:102880000348BDE87040FFF7DDBD00BF6C0E0020BF
:10289000F821002000000B40C0180020D0210020AB
:1028A0002925001000200B40004870476C0E0020C6
:1028B000F0B501460069EFF3108772B6D0E8CF5F3C
:1028C0000124002DFAD1C0E8454F002DF6D1BFF309
:1028D0005F8FB1F902E04C690EEB4E0CBEF1000FB8
:1028E0004FEACC05086904EBCC0C3CDB665F4E80FC
:1028F0000026C0E88F6F87F31088BCF80200CCE98F
:1029000002230130C0F30E00012838BF0120059BCF
:10291000ACF80200CCF81030069B40EA0E40CCF830
:1029200014300B69EFF3108272B6D3E8CFCF0127D2
:10293000BCF1000FF9D1C3E84C7FBCF1000FF4D11A
:10294000BFF35F8F8B8863530B69A1F804E0C3E882
:102950008F6F82F310880122CB68097803F5015349
:102960008A405A60F0BD0023C0E88F3F87F310888B
:102970004FF0FF30F0BD00BF2DE9F0479DF82890E3
:102980000546DDE9086790461C46B9F1000F06D1FF
:1029900000F064F9804564EB0101002908DB424640
:1029A00023462846CDE90867BDE8F047FFF780BF1A
:1029B0004846BDE8F08700BF03464089B0EB214F91
:1029C00037DD10B50A14586902EB42021C6900EBAE
:1029D000C200EFF3108C72B6D4E8CFEF0122BEF143
:1029E000000FF9D1C4E84E2FBEF1000FF4D1BFF3B0
:1029F0005F8F428889B292B28A4207D000221B6957
:102A0000C3E88F2F8CF31088002010BD42F40042E1
:102A100042800121002218699971C0E88F2F8CF340
:102A200010881C78DA68084602F50153A140596005
:102A300010BD0020704700BF407870472DE9F0417D
:102A4000851F41F1FF37A84271EB070338BF00250E
:102A500082B038BF2F4604460E4600F0FFF8281A11
:102A600067EB010C01287CF1000C06DA20463146A8
:102A700002B0BDE8F04100F02DB900F0EFF885425A
:102A800067EB010100290ADB0021174B2A4600935E
:102A900016483B460191FFF70BFF0130E6D04FF09F
:102AA000000C134A1349536A9F4204D8906AA84203
:102AB000DCD29F42DAD10B68EFF3108072B6D3E814
:102AC000CF8F5FF0010EB8F1000FF8D1C3E848EFE7
:102AD000B8F1000FF3D1BFF35F8F0B68C3E88FCF5E
:102AE00080F3108820BFDEE7E92400106C0E002080
:102AF00000000B40F821002038B504460D4600F0D8
:102B0000ADF84FF0FF326FF00043201845EB0101A4
:102B1000824273EB010438BF1946BDE8384038BF24
:102B20001046FFF78BBF00BF10B5044600F096F8C3
:102B30004FF47A734FF0FF3C6FF00042E4FB030167
:102B4000BDE81040844572EB01033CBF604611466E
:102B5000FFF774BF2DE9F04306460D4683B0EFF34F
:102B60000584E4B23CB12D4B5A6AAA421CD2002023
:102B700003B0BDE8F0832A4FD7F80C9097F8008097
:102B8000484600F063F808F1040859F828301B1A89
:102B9000301A65EB0101984271F1000110DB20BF92
:102BA0001E4B5A6AAA42E2D314BF012400249B6A36
:102BB000B34234BF204644F0010003B0BDE8F083C7
:102BC00000F04CF8864265EB0101002914DB154B3F
:102BD0003846CDE9003432462B46FFF769FE011E28
:102BE0000ADD0E4B5A6AAA4216D39B6AB34211D32E
:102BF0000B48FFF7E1FEB6E7084B5C6AAC42B6D380
:102C0000641B18BF01249B6AB34234BF204644F0C2
:102C10000100ADE7AA42EBD120BFE9E700000B407D
:102C20006C0E0020E924001010B4054B054C064A38
:102C3000A04214BF1846581C5DF8044BFFF78AB930
:102C4000E01C002000800B40789500100346416A8C
:102C50000A46986A596A8A42FAD17047034B596A00
:102C60000A46986A596A9142FAD1704700000B40AF
:102C700010B4174A536A9C46946A536A6345FAD162
:102C8000001959414FF0000228BF01220346CAB182
:102C90000F4B596A4B1C08BF0B4608D04FF0FF3151
:102CA0000B460B48426A8A42FCD38A4207D1084A43
:102CB00002E0506A884202D1906A9842F9D35DF8E6
:102CC000044B7047024A526A9142EAD8EDE700BFCE
:102CD00000000B40074A536A9942FCD8994207D139
:102CE000044B02E05A6A914202D19A6A9042F9D8A2
:102CF000704700BF00000B40F8B5044606200D46A3
:102D000000F0F8F8C300B3FBF5F30133DA0908D09B
:102D10004FF6FE718A421AD900224FF6FF711B4D01
:102D200001E0402501216162A262266BF30715D400
:102D30002346002253F82C1F062003F580531A6007
:102D4000266300F0D7F88000B0FBF5F0F8BDC3F3C0
:102D50004503114603EB82151A46E4E740F20132BF
:102D600004F540531A63636AA76A062007EB8317CA
:102D700000F0C0F8064BBF02A3FB0030C00A0021E0
:102D8000B7FBF0F0FFF774FFD2E700BFC0FF3F00D2
:102D9000757B2B8F38B5044606200D4600F0AAF847
:102DA00060B3174A1748944214BF4FF080624FF047
:102DB0000062154B154902601A608B6832EA030302
:102DC000FBD10F4B4FF48070E31AB3FA83F3104A30
:102DD0005B0922F8130029462046FFF78DFF2346A2
:102DE00040F20135032153F82C2F82F0700202F0DB
:102DF0007E0203F580531A602563A16438BD00BFCD
:102E000000800740002002400030024000000240E5
:102E1000042200202DE9F04100EB400C4FEA8C0C1D
:102E20000CF1804C0CF5803C069D9046DCF80420AB
:102E3000041FAA42E4B238BFCCF80450012C2AD9AE
:102E40004FF4006E254E0CF54052C2F800E056F8E3
:102E50002020AAB9DCF800200CF5805782EA48123D
:102E600002F0E002012C3A6029D94FF4006246F8E2
:102E700020300CF500531A60CCF80450BDE8F08106
:102E80007769B7FBF2FE0EF1010E0EEB4E0EBEF1AE
:102E9000030EFCD2DEE70129D2D103240CF5405207
:102EA0001460DCF80820D207FBD5DCF800200CF514
:102EB000805782EA481202F0E002084E3A6001228E
:102EC000DCF800404C4004F003043C6002FA01F1DD
:102ED000DCF808200A42FBD0C7E700BFE41C002052
:102EE00010B54FF4803482B00094FFF793FF02B026
:102EF00010BD00BF014B53F820007047E41C0020B8
:102F000070B4039D04682D0345EA03451B4B002C58
:102F1000B3FBF1F3B2FBF3F61FDB194A194B9042F6
:102F200014BF4FF480424FF40042174C1A6003F56F
:102F300080531A60A36832EA0303FBD1212200F513
:102F400040530433016086601A600268002AFCDA8C
:102F50000822C5601A6070BC7047036803F03F0325
:102F60008B42DAD18368C3F30B03B342D5D1C36874
:102F700003F4EE23AB42D0D1EDE700BF001BB70056
:102F8000008005400020024000000240024A034B3E
:102F900012685A60704700BFC021002000800D40B9
:102FA00030B44FF08045174B174A184CDA61184A75
:102FB00003F540531D6094604FF0E06249B1A3F502
:102FC00080531A6040B94FF00042124B1A6030BC77
:102FD00070471A600028F6D04FF47A7303FB00F0B4
:102FE000B0F1807F2ABF6FF07F43034618464FF051
:102FF0008042094C03492360064B48601A6030BC8C
:10300000704700BF00800D402131B76AF3FFFF0118
:1030100000A0014000A00D40C021002030B44FF0BE
:1030200080441C4B1C60E0B11B4CA3F54053DC6199
:103030001A4C40F0010044401C62596298624FF003
:1030400080454FF0E061134B1548164C1D608460BD
:1030500019604AB94FF00042A3F580531A6030BCA2
:103060007047114BD861EAE74FF47A7303FB02F221
:10307000B2F1807F2ABF6FF07F4313461A464FF0AC
:1030800080410A4C08482360094B4260196030BCFB
:10309000704700BF00B00D40D3C007B02D3FF84FC0
:1030A00000A00140F3FFFF0100800D40C02100207F
:1030B00000A00D40012300EB4000800000F18040A3
:1030C00000F5841041600360704700BF002370B5B5
:1030D00004460D46DB8A002242E800F2520254BF49
:1030E0001021042144F25220984786462B4622465E
:1030F000F446BDE870400A214FF48170604700BF7C
:103100000023DB8A002242E800F2520201D410219F
:1031100018470421184700BF08B503460846191E82
:1031200002DB1AB140F03000FFF7D0FF40F0200082
:10313000FAE700BF034AD2F82838002BFBD0BFF3D0
:103140005F8F704700000E400021044B044ABFF31C
:103150005F8F43F8041B9342F9D170470C080E406F
:103160002C080E4010B44FF48D704FF42A64064AB8
:10317000064B07491460D06019605368002BFCDAD5
:103180005DF8044B704700BF0080044000A004407D
:1031900000B0FA00704700BF08B50148FEF7C2FE54
:1031A0009C95001038B5054C054DAC4204D254F83E
:1031B000043B9847AC42FAD338BD00BF38800010BA
:1031C0007880001010B40748074C084B084A09499A
:1031D00004601A608B6832EA0303FBD15DF8044B8C
:1031E000704700BF002002407F3BEFEF00300240FD
:1031F000F6FFF30300000240044BDB6CB3F5004F15
:1032000003D14FF48022024BDA6470470000115062
:10321000002011504FF0E022044BD2F8881D0B43E0
:10322000C2F8883D10EE3004704700BF0303300041
:103230006FF06041044B054A19609368DB4333F03B
:103240006043FAD1704700BF0030024000000240E6
:1032500010B545F25320FFF753FFBDE81040034679
:103260000420184710B545F25320FFF749FFBDE889
:103270001040034601201847FEF7FCBE10B5054B71
:10328000054C4FF488721846A16804F051FCA06008
:1032900010BD00BF0000002000ED00E0002370B56D
:1032A0002B4C82B0C4F88430FFF75CFF0122294B1D
:1032B000DA63636C012BFCD10321264A244B116392
:1032C0009C6B012CFCD10226052521460523224AB0
:1032D00022480096FFF714FE21462B46204A21483B
:1032E0000095FFF70DFE0022042031461E4BFFF72C
:1032F000F7FD2146284600221C4BFFF7F1FD002276
:10330000082011461A4BFFF7EBFD00220920114659
:10331000174BFFF7E5FD002206201146134BFFF780
:10332000DFFD0022114B07201146FFF7D9FD0420D5
:10333000FFF7E0FD00240F4BA3FB0035AD0CE0B21E
:1033400029460134FFF7B6FE062CF8D102B070BD55
:103350000000014000300140002F68590000054086
:10336000008C864700800540001BB70080D1F00824
:10337000006CDC0283DE1B4386B003B451FC0804FE
:10338000CDE9020151FC0904CDE9040151EC0A0424
:10339000CDE9060103BCF047BDE800504EEC00C487
:1033A000BDE800504EEC01C4BDE800504EEC02C434
:1033B00000BD000000B5FFF7DFFF02E010FE30F4B3
:1033C000F8D441EC100443EC112400EE010410EE9B
:1033D000010480EE200451EC1004704700B5FFF7A3
:1033E000CBFF02E010FE30F4F8D441EC100443ECC3
:1033F000112400EE010410EE210480EE200451ECB3
:103400003004704700B5FFF7B7FF02E010FE30F45C
:10341000F8D410B541EC100443EC112451EC040431
:1034200053EC0524A0FB024C5FF0000EE0FB03CE42
:10343000E1FB02CE4CEC20440024E1FB03E444EC2D
:1034400030E480EE200451EC5004BDE81040704799
:1034500000B5FFF791FF02E010FE30F4F8D441EC24
:10346000100443EC112451EC2104A0FB01126FEA7B
:10347000820252FB100052FB12F252FB1000A0EB32
:10348000D07C53EC04245CFB13F153EC1524A1FB1A
:10349000022001FB030053EC4424A2EB000050FB8C
:1034A0001CF24FEA111312EB017043EBE27140EA98
:1034B000515020EA915020F0070053EC7524A0FBF6
:1034C000023C53EC752400FB03CC01FB02CC53EC13
:1034D0000424ACEB824C40EA5C70A0F1010041ECAA
:1034E000400480EE200451EC7004704700B5FFF7F3
:1034F00043FF02E010FE30F4F8D440EC700400EE1C
:10350000010410EE210480EE200451EC30047047D9
:1035100000B5FFF731FF02E010FE30F4F8D440ECC4
:10352000600400EE010410EE210480EE200451EC52
:103530003004704700B5FFF71FFF02E010FE30F4C3
:10354000F8D441EC800400EE010410EE010480EE9A
:10355000400410EE1304704700B5FFF70DFF02E0C2
:1035600010FE30F4F8D441EC800400EE010410EEBB
:10357000010480EE400410EE3304704700B5FFF7FD
:10358000FBFE02E010FE30F4F8D441EC100443ECF2
:10359000112400EE010410EE3004C0F300707047F7
:1035A00000B5FFF7E9FE02E010FE30F4F8D443EC7A
:1035B000102441EC110400EE010410EE30F48CBF35
:1035C00001200020704700BF00B5FFF7D5FE02E0E4
:1035D00010FE30F4F8D443EC102441EC110400EE5A
:1035E000010410EE30F42CBF01200020704700BF12
:1035F00000B5FFF7C1FE02E010FE30F4F8D441EC54
:10360000100443EC112400EE010410EE30F42CBF42
:1036100001200020704700BF00B5FFF7ADFE02E0BB
:1036200010FE30F4F8D441EC100443EC112400EE09
:10363000010410EE30F48CBF01200020704700BF61
:10364000704700BF2DE9F04F83B09946DDE90DAB1F
:103650000F9B884611469A07074616D1DA453AD29B
:103660000C460D46ABEB0A060E4422464B4641463D
:1036700020200134B847B442F7D12946BAF1000FEF
:1036800008D1204603B0BDE8F08F0C46BAF1000F18
:1036900010D00E4655460C9B2E449A440191721B45
:1036A0004B46013D41461AF8010D3446B847002DFE
:1036B000F5D101990F9B9B07E3D5651AAB45E0D97E
:1036C00022464B46414620200135B8475D4504F16E
:1036D0000104F5D3D5E70C46BAF1000FD9D1D0E7F4
:1036E0002DE9F04F0F9FDDF8248017F0020F0A9CA0
:1036F0009DF82CA00E9DDDE90C9644D1F5BBB4429B
:1037000041D207F0010B04F1FF3C4FF0300EC444EE
:1037100004E00134A6420CF801EF01D9202CF8D1C5
:10372000BBF1000F00F08880A5422CD904F1FF3CCA
:103730004FF0300EC44404E00134AC420CF801EF09
:1037400021D0202CF8D117F0100F0ED017F4806F75
:1037500054D1A64263D0A54261D0B9F1100F50D028
:10376000B9F1020F56D0202C29D12024CDE90B57D6
:10377000CDE90984BDE8F04FFFF764BF17F0010BF6
:1037800034D1B442BFD317F0100F1ED017F4806F9E
:10379000E3D1002CDDD1B9F1100F63D0B9F1020FE4
:1037A00077D0302488F800400124BAF1000F11D1FD
:1037B0007E0748D52B2608F804600134D6E7264654
:1037C00001344FF0300C08F806C0202CCDD0BAF1EF
:1037D000000FEDD02D2608F804600134CDE90B5719
:1037E000CDE90984BDE8F04FFFF72CBFBAF1000F17
:1037F00030D0B44205F1FF3585D395E7B9F1100F0C
:10380000B3D1BE063BD5202CAFD0582608F80460B3
:103810000134A8E7202CA8D02646013407E0661E14
:10382000B9D0B9F1100F36D0B9F1020FC9D14FF0AC
:10383000620C08F806C096E717F0100FC5D017F411
:10384000806F86D089E73E0790D5202608F804606F
:1038500001348BE717F00C0F00D0013DB442FFF4A8
:1038600052AF61E7BC0612D4782488F800403024B7
:1038700088F801400224BAF1000F99D0AAE7202C61
:103880003FF473AF782608F8046001346BE75824DE
:10389000EBE76224E9E717F0200FA4F1020C04D053
:1038A0004FF0580E08F80CE08BE74FF0780E08F850
:1038B0000CE086E72DE9F04F93B01C9C9DF874B0A6
:1038C0001E9DDDF884E02CB92EF010061EF4806FEA
:1038D000B64635D11EF0200F14BF4FF041094FF00E
:1038E00061090AAFB8460026A9F10A09099002E069
:1038F000202E15D05446B4FBF5FA05FB1A4C5FFA9E
:103900008CF0BCF1090F00F1300C8ABF48445FFA1B
:103910008CF0C0B2AC4208F8010B06F10106E7D208
:103920000998209CCDE9016B05941F9CCDF818E007
:10393000CDE903540097FFF7D3FE13B0BDE8F08F35
:1039400026460AAFEDE700BF2DE9F04F97B08E464F
:10395000DDE92064DDE9247856EA04019DF888C099
:1039600006D12899289D21F010012891690545D498
:1039700028990DF1380B11F0200F14BF4FF0410AB8
:103980004FF0610AD9460025CDE9090ECDE90B2398
:10399000AAF10A0ACDF834C003E0202D17D006465C
:1039A0000C4621463A464346304604F029FBD2B243
:1039B000092A02F130038ABF5244DAB2D2B2BE42BF
:1039C00074EB080409F8012B05F10105E5D2DDF8D7
:1039D00034C0DDE9090EDDE90B232899CDE9015C4E
:1039E00006912799CDF800B005912699CDE903718C
:1039F0007146FFF775FE17B0BDE8F08F00250DF199
:103A0000380BEAE7000000002DE9F04F95B0209C4C
:103A1000DDE91EAB0894219C0D461E4609900B92D1
:103A20005B46524650465946229F0A94FFF7AAFD2C
:103A3000002840F09780504659464FF0FF32664BC1
:103A4000FFF7EEFD002840F08D80504659464FF0BC
:103A5000FF326FF48013FFF7A7FD002840F082804B
:103A60005046594600220023FFF79EFD002840F0F3
:103A70008881CDE906ABDDE9063407F4006299469A
:103A800017F48063A046129213937BD159EA040382
:103A900040F0A480002A40F08E810623089317F09E
:103AA00002020E9240F08A810A9B0421042B38BF47
:103AB0000423043B10910C92129350465946002265
:103AC0000023FFF771FD002840F0C9819DED067BC2
:103AD000129B0B9A0393089B8DED007B029327F4B6
:103AE0000063049329463346099800F021FA024600
:103AF00017F0200F0CBF6520452033462946099C4E
:103B0000571CA04705230593109B0020013B0493FD
:103B10000A230C99CDE9023081EAE173A3EBE1734A
:103B2000C90FCDE900313A46334629462046FFF712
:103B3000C1FE0E9B07468BB10B9BA0EB03080A9BB3
:103B400043450BD999463A4633462946202008F189
:103B50000108A047C14507F10107F4D8384615B060
:103B6000BDE8F08F0A9B2946DDE9084021933346E2
:103B7000CDE91EAB0B9A2297209415B0BDE8F04F0B
:103B800000F0D6B959EA04032AD1129B002B86D043
:103B900000230C93089B0C9A934200F3BA814FF0D8
:103BA00000085046594600220023FFF7FDFC00287C
:103BB00040F0ED809DED067B0A9B8DED1E7BCDE9EF
:103BC000208327F4006343F480632293294633461D
:103BD0000B9A0998D1E700BFFFFFEF7F06230893F8
:103BE000C8F30A50A0F2FF30FFF784FCC0A3D3E96A
:103BF0000023FFF70BFCC0A3D3E90023FFF7DEFB94
:103C0000C8F31303CDE90C0143F07F51484600226D
:103C1000B14B41F44011FFF7E5FBA3A3D3E9002327
:103C2000FFF7F4FB02460B46DDE90C01FFF7C6FB8C
:103C3000FFF784FC0C90FFF75DFC9DA3D3E9002304
:103C400080468946FFF7E2FB0022A44BFFF7B6FB54
:103C5000FFF774FC034649461C4697A3D3E90023AB
:103C60004046FFF7D3FB804620468946FFF742FCDB
:103C700093A3D3E90023FFF7C9FB02460B46404656
:103C80004946FFF7AFFB02460B4680468946FFF7E1
:103C9000BDFB42464B46CDE90E0140464946FFF783
:103CA0008DFB0022CDE91001DDE90E018C4BFFF701
:103CB000D3FB00228B4BFFF781FB02460B46DDE96D
:103CC0000E01FFF7C9FB0022874BFFF777FB024687
:103CD0000B46DDE90E01FFF7BFFB42464B4680462F
:103CE000894600204FF08041FFF77CFB02460B46DF
:103CF00040464946FFF762FB02460B46DDE91001EC
:103D0000FFF7AAFB0022794BFFF758FB04F2FF3CB8
:103D100000224FEA0C53FFF779FBDDE906238046CA
:103D20008946FFF77DFC50B10C9B4046013B49465C
:103D30000C9300226B4BFFF78FFB804689460C9B50
:103D4000129A6333C62B07F002030E930CD8002A95
:103D500067D10A9A042A7FD9002B00F0D48004236B
:103D6000109302230E936AE0002A2FD10A9A052AA3
:103D700004D9002B00F0D28002230E930523109368
:103D800061E00BF10043CDF818A0079373E60A9B9E
:103D90002946CDE9208327F4006343F4806322930E
:103DA0003346DDE90667344607F10045CDE91E4597
:103DB0000B9A0998E1E64FF00508F2E60422002389
:103DC0001092022212930E920C9376E60523109322
:103DD00058EA09033FF4DEAEDDE906013AA3D3E970
:103DE0000023FFF709FC48B1DDE9060138A3D3E958
:103DF0000023FFF7D9FB00287FF4CCAE089B9BB1D2
:103E0000139A002A41D0013B109A08930A9B9342CF
:103E100004D90E99002943D002230E930023129354
:103E20000DE004231093D3E70A9B109A934267D9BD
:103E30000E99002934D0089B129302230E930C9BF9
:103E4000002B3FF43AAEDDE9060142464B46FFF750
:103E500003FBCDE9060130E604231093EFE7DDE92B
:103E600006ABD046129B0BF100490393089B0B9ABB
:103E7000029327F40063049329463346CDE9008971
:103E8000099800F055F8024632E60A9B109A9342D0
:103E90004AD90E9921B1139B129302230E93CEE7B8
:103EA0009B1A1293CBE700BF61436F63A787D23F92
:103EB00071A379094F930A401655B5BBB16B024007
:103EC000EF39FAFE422EE63F2D431CEBE2361A3F55
:103ED0000000000080842E410000F83F0000E03F19
:103EE00000002C4000002440000018400000F03F7B
:103EF000FB799F501344D33FB3C8608B288AC63FD9
:103F0000089B12939BE7042310930A9B043B129394
:103F100095E7A3EB020808F1FF3842E6052310936A
:103F20000A9B053B12938EE7139B129387E700BF12
:103F30002DE9F04F97B0DDE92067CDE90501DDE916
:103F4000225807920C9332463B4630463946DDF8FC
:103F50009090FFF717FB002840F0BD8130463946AE
:103F60004FF0FF326FF48013FFF71EFB002840F084
:103F70001081304639464FF0FF32C14BFFF750FBFE
:103F8000002840F0E680BAA3D3E900233046394642
:103F9000FFF746FB002840F0CE80B7A3D3E900230B
:103FA00030463946FFF700FB002840F0C480304619
:103FB000394600220023FFF7F7FA002840F0DE80A0
:103FC0000D9019F4806F08BF062530212B460EAAEC
:103FD000A5F1200A05E0013B534502F8011B00F062
:103FE0004281092BF7D89A46ED1A39463046FFF739
:103FF000A5FAA44B044603EBCA0393ED007B8DEDB9
:10400000087BFFF777FA02460B4630463946FFF742
:10401000E9F9DDE90823FFF7F9F902460B46CDE996
:104020000A23FFF79DFA8346FFF776FA02460B460E
:10403000DDE90A01FFF7D6F902460B46CDE90A236E
:104040000022914BFFF7ECFA002800F0B3800BF14F
:10405000010B5846FFF760FA02460B46DDE90801FE
:10406000FFF7B6FA10B14FF0000B0134BAF1000FB0
:1040700000F0B280681E0EAB844E18440FE0A6FB21
:104080000B21C90801EB8102ABEB42023032BBF1DC
:10409000090F00F8012F40F2CF808B461D46202DDE
:1040A00005F101030AF1FF3AE9D12025691E0EABA3
:1040B0007748194410E080FB0462C3EBA20303EBD2
:1040C0008302A4EB420404F1300201351C4601F8DE
:1040D000012F002B00F09F80202D4FEAE473EAD1DE
:1040E00009F00303012B18D1B8F1000F15D00D9B77
:1040F000002B00F0D58008F1FF38B8F1200F0CD963
:104100006B1E0EA930220B4405E00135454503F82E
:10411000012F80F08480202DF7D10EACCDE90289EB
:10412000DDE906120C9B059801950094FFF78AFAC9
:1041300017B0BDE8F08F0C9B0598CDE92067DDE94D
:104140000612CDE92389229517B0BDE8F04FFFF79D
:104150005BBC19F0040F18BF0423DDE906120ABF87
:1041600003234C4C4C4C219305980C9BCDE92289A0
:10417000209417B0BDE8F04FFFF764BA3B463246D3
:1041800000200021FFF72EF9012306460F460D936C
:1041900017E70424DDE906120C9B05983F4DCDF886
:1041A0008C90CDF88880CDE9205417B0BDE8F04F51
:1041B000FFF748BA0022DDE90A01334BFFF7F4F9B3
:1041C00000287FF453AFBBF1000F7FD10BF1010B3F
:1041D000BAF1000F7FF44EAF2046FFF78BF902468D
:1041E0000B4630463946FFF7FDF80022264B0646BF
:1041F0000F46FFF7D9F900287FF458AF304639460B
:104200000022214BFFF70CFA00287FF44FAF013456
:1042100024F001044AE709F00303012B6AD0202DA2
:104220003FF47BAF0D9B002B45D02D220DEB0503FA
:1042300083F83820013570E7202B3FF436AF0EAA03
:1042400015449A44302205E00133202B05F8012F54
:104250003FF42BAF5345F7D12E210DEB030282F82B
:1042600038105D1C22E72025BFE600BFAFF30080B9
:104270000000000065CDCD410000000065CDCDC13E
:10428000FFFFEF7FF09700100000E03FCDCCCCCCDB
:1042900067666666F8950010009600100896001094
:1042A00019F00C0F22D008F1FF384545FFF428AF74
:1042B000202D3FF432AF19F0040F01D02B22B5E7C7
:1042C00019F0080F3FF429AF2022AFE71BF0010FD0
:1042D0003FF4CCAE7AE70324DDE906120C9B059887
:1042E0000B4DCDF88C90CDF888805CE74545FFF408
:1042F00007AF12E7B8F1000F91D00D9B002BCFD084
:1043000008F1FF384545FFF4FBAE202D8DD104E7C1
:104310000496001000B9704700F02CBD10B1D1E92F
:1043200000311847704700BF2DE9F04F9E4D9F4C5C
:10433000B1F1000B8FB018BF8146256018789C4DF5
:10434000904608BFA946DDF860A0002800F034823E
:104350001C46002508E02A46434659460135C84711
:104360002078002800F0C780252804F10104F2D14C
:104370000023224612F8010BA0F1200110290AD8CF
:10438000DFE801F03F09093B090909090909093773
:10439000093309092F00A0F13001092940F2898071
:1043A0002A2800F0DE8000262E2800F094800021CC
:1043B000A0F16807122F2CD8DFE817F039012B0085
:1043C00034012B002B012B002B002B002B002B008A
:1043D0002B002B0027002B002B002B002B002B0089
:1043E0002700144643F00103C3E7144643F00203D9
:1043F000BFE7144643F00403BBE7144643F0100341
:10440000B7E7144643F00803B3E7607843F48073DA
:104410000132672814467CD8242840F2AD80A0F1F0
:104420002502422A00F2A880DFE812F03C01A60033
:10443000A600A600A600A600A600A600A600A6004C
:10444000A600A600A600A600A600A600A600A6003C
:10445000A600A600A600A600A600A600A600A6002C
:10446000A600A600A600A600A600A6000901250138
:104470000901A600A600A600A600A600A600A600A8
:10448000A600A600A600A600A600A600A600A600FC
:10449000A6008301A600A600A600A600A600A6000E
:1044A000A600A600A600830143018301090125019E
:1044B0000901002606EB860600EB46061078144636
:1044C000A0F130010929A6F1300602F10102F1D96B
:1044D0002E287FF46CAF60781746A0F130010929CF
:1044E00043F4806340F203812A2800F01A811446C5
:1044F000002101325CE72C46A84501D808F1FF35C0
:1045000043462A4659460020C84720460FB0BDE81A
:10451000F08FA0F16902D2B20F2A2DD84FF0010C12
:1045200049F241070CFA02FC1CEA070C40F0EE804D
:104530000A2A27D0072A1FD143F021030593082315
:10454000049310230391CDF804C002935AF8043B5E
:104550002A460093594643464846FFF7ABF90546BD
:10456000FEE65AF8046B6078002E1446BCBF43F098
:1045700002037642013217E72A464346594601357F
:10458000C847EDE6524652F804EB00299EF80000B9
:1045900014BF8A464FF0FF3A0B92002800F00782C2
:1045A0007246F2440BE000BF29430010B8210020FE
:1045B0004136001012F8017F002F00F0F480924580
:1045C000F8D1AAEB0E020A9213F4806704D00A9A7B
:1045D0008A4228BF0A460A9213F0020300F01181B2
:1045E0004FF0020C0C96F2462A460E46CDF834C027
:1045F00027B1731E002E00F0C9801E46434659465F
:10460000C8471AF8010F0135002800F0BF802A467C
:10461000EEE760786C287FF4F9AEA07843F440733D
:10462000E21CF6E6607843F400730132F1E660784C
:10463000682800F0BC8043F080030132E9E6672877
:1046400000F09F80472800F0A980452800F0A8804E
:10465000CDE903630AF1070A02912AF0070A2A4604
:10466000FAE80267434659464846CDE90067FFF736
:10467000CBF9054674E6462808BF43F02003CDE990
:1046800003630AF1070A02912AF0070A2A46FAE8A8
:104690000267434659464846CDE90067FFF748FCA4
:1046A00005465DE62A464346594625200135C8475A
:1046B00056E60AF104029B0705F101070A9240F150
:1046C00082802A46434659469AF80000C847012E80
:1046D00088BFAD1940F22A813A4643465946202008
:1046E0000137C847BD42F7D1DDF828A038E60021E0
:1046F00001EB810100EB410117F8010F3039A0F106
:104700003002092AF4D93C467A1C51E66F283BD086
:1047100040F22581782800F0F7800A2223F0100368
:104720000EE05AF8041BA0780234621C21EAE17101
:104730003EE6582843D0622808BF022240F0988005
:10474000580540F1BC8023F00D0313F4007040F0D5
:10475000EF8013F4807F0AF1040740F017815806B8
:1047600000F1D78018064CBFBAF80000DAF8000054
:10477000CDE904630023CDE9022100902A4601938C
:1047800095E043F4006363E70822D9E7DDE90C6CA8
:10479000BCF1000F5DD1DDF82CA0E1E543F400632E
:1047A00043F0200354E7A2EB0E020A920CE7A07834
:1047B00043F0C003E21C2CE6044605469CE61022AA
:1047C00043F02003BCE7012E40F2AA806B1E334465
:1047D000CDF82CA02F469A463A464346594620200B
:1047E0000137C847BA45F7D15346DDF82CA01A4621
:1047F0009AF8000043465946C8473544DDF828A0DA
:10480000AEE50A9A964240F2E7800A9B06EB050A5B
:10481000CDE90CE60A970E466746AAEB030A2A463C
:104820004346594620200135C847AA45F7D1DDF84F
:1048300030E031460D9E9EF80000731CBC460A9F76
:104840000A9300287FF4CEAEA5E713F0020700F02C
:10485000BD802F460A9B9E429DD93544ED1A3A46AB
:104860004346594620200137C847BD42F7D192E759
:104870005F054BD523F01102900523D4D3050AF12F
:10488000040773D450063BD4130640F18980BAF96B
:10489000003083EAE370A0EBE37080B2DB0F01939A
:1048A0000A23CDE904622A4603910090029343460D
:1048B00059464846FEF7FEFFBA46054650E523F046
:1048C0000C0342E79FED487B0AF1070A2AF0070A2A
:1048D000DAF804305AF8080BDF0F002BCDE9076235
:1048E0008DED047B02460691029715DBCDE900238E
:1048F00059462A4643464846FFF726F805462FE51F
:104900009AF800301846C9E7102219E723F0100280
:10491000B2E79AF800002BE7424263EB4303E5E776
:104920002A46434659469AF80000C8473D46DBE60A
:1049300004922A460025CDE907630AF1070A069189
:10494000059502952AF0070AFAE802674346594698
:104950004846CDE90067FEF7F7FF054600E5692800
:1049600023F010022DD15F0586D583E7DAF80030F9
:1049700003910A21029183EAE371A1EBE371DB0F5A
:10498000CDE90462CDE900132A4690E7CDE9022182
:10499000CDE904630190DAF800302A46009386E7F7
:1049A000DAF8003083EAE370A0EBE37076E713F403
:1049B00080620A923FF449AF9F0705D52F460A90BF
:1049C00048E713460A22BBE64FF48067002E3FF407
:1049D000E2AE00230A9318E79C46134601330A937C
:1049E00000E600BFAFF300800A00000000000000F6
:1049F00070B594461E4605460C4684B04FF0FF3213
:104A0000634602A900960348CDE90254FFF78CFCE7
:104A100004B070BD1D43001010B5094B84B01C6874
:104A20004CB1034600914FF0FF3203A90548A0475F
:104A3000012004B010BD00F0ADF9204604B010BD57
:104A4000B82100201543001000BEFDE7074A0346C9
:104A5000106838B1064903448B428CBF4FF0FF30D9
:104A600013607047034908461160F3E7AC1D00204E
:104A7000000008202C22002003460846114623B9D6
:104A8000034BD3E9002300F021B94FF0FF3070470A
:104A900090970010431E012B09D810B51446084604
:104AA00001230022214600F0ADF8204610BD4FF052
:104AB000FF3070474FF0FF30704700BF4FF0FF30BE
:104AC000704700BF08B5FFF7BFFF00BF38B5064C01
:104AD000064DFEF767FBAC4204D254F8043B9847FE
:104AE000AC42FAD338BD00BF78800010808000103F
:104AF00003680846114618472DE9F047437D804674
:104B000089461746002B43D0002A32DD00244D1E73
:104B1000A24606E06B780A2B2DD0A74205F10105CD
:104B200015D026460134002EF4D199F800300A2B16
:104B3000F3D198F81430002BEFD102211848D8F89F
:104B400000309847A742A24605F10105E9D1574533
:104B500006DDD8F80030A7EB0A0109EB0A009847F8
:104B600019F80630A3F10D03B3FA83F35B0988F853
:104B70001430BDE8F0872B780D2BCED0B245DCDAAF
:104B8000D8F80030A6EB0A0109EB0A009847D4E7F1
:104B90004846D8F800301146BDE8F047184700BF36
:104BA000409800102DE9F0410B680D46802B064619
:104BB00005D05A1C2B442A601E71BDE8F0810F4BB2
:104BC0001C68A4B10E4F01F1040801E0246974B11E
:104BD0002368002BFAD03B680BB1A342F6D12046E4
:104BE00041462A68FFF788FF2469002CF0D1002392
:104BF00001222B442A601E71BDE8F081341D002083
:104C0000401D00202DE9F04F83B00D4691461C4613
:104C10000746FEF723F84FF0FF3C6FF00046254AA9
:104C2000821841F10003944576EB03013CBF6246D4
:104C30003346214803F0F4F96B1C82462DD04CB367
:104C4000DFF880801D4B1C68ECB14FF00A0B1C4E46
:104C500001E02469BCB12368002BFAD033680BB1A2
:104C6000A342F6D12A4639462046C047B9F1000F83
:104C7000EFD0204601220DF107018DF807B0C047A3
:104C80002469002CE7D1BAF1000F0BD1284603B0FC
:104C9000BDE8F08FDFF83080D4E7384602F0BEFF81
:104CA0000546CCE7044803F0AFF9284603B0BDE859
:104CB000F08F00BF40420F0000140020341D002080
:104CC000401D0020F94A0010F14A00102DE9F04F74
:104CD000984607460E4683B0DFF860B0DFF8609074
:104CE000DFF860A00192DBF8004014B911E02469FC
:104CF0007CB1D9F800500DB1A542F8D1A268002AC4
:104D0000F5D03146384690470028F0DD03B0BDE8C5
:104D1000F08FDAF8242090450BD8DAF82810019BA0
:104D2000994204D36FF0010003B0BDE8F08F9045C5
:104D3000F8D101200021FDF79BFFD4E7341D0020AE
:104D4000401D002000000B40084A136823B90AE008
:104D500003F110021B6933B18342F9D129B91869F3
:104D600010601961704701B110607047341D002058
:104D700000F0A8BA012310B5044682B000221946FB
:104D80000DF107008DF80740FFF73CFF204602B009
:104D900010BD00BF38B5044602F040FF01230546B0
:104DA0001A4620462946FFF72DFF054B1C682CB1FB
:104DB000636803B198472469002CF9D1284638BDAF
:104DC000341D00202DE9F041A2B004460D46FDF748
:104DD00045FF4FF0FF376FF00046254ADFF8A0800F
:104DE000821841F10003974276EB03013CBF3A463B
:104DF0003346204803F014F900272B462246064686
:104E000001A91D480197FFF7F3FD019B0546D8F85E
:104E10000040BBB14CB3194F01E0246974B1236861
:104E2000002BFAD03B680BB19C42F6D12046019A88
:104E300002A9FFF761FE2469002CF0D10023D8F805
:104E4000004001932CB1636803B198472469002C9A
:104E5000F9D11EB9284622B0BDE8F081054803F01B
:104E6000D3F8284622B0BDE8F0810194F1E700BFF5
:104E700040420F0000140020A54B0010401D0020F0
:104E8000341D00200FB400B583B004A951F8040B01
:104E90000191FFF797FF03B05DF804EB04B0704792
:104EA000704700BF0022014B1A707047202200207B
:104EB0004B79FF2B0BD1887948B9CB79012B07D1DE
:104EC000082A05D9034B8A7809201A7070470020F8
:104ED000704700BF2022002001207047012901D027
:104EE0000120704708B5104B91881B78994201D07A
:104EF000002008BD5378012B08D0022BF8D10021E7
:104F000064220846FEF78AF8012008BD5188CB05C7
:104F100048BF480AC1F3402258BF4FF0FF3001F0AC
:104F20007F01FEF7F9F800BF2022002000487047FB
:104F30000C990010012907D15378012B02D19388D5
:104F4000072B03D000207047012070471146A6238D
:104F5000014A01F0D9B900BF64980010034601224C
:104F600001481A70704700BF4498001008B50B68DC
:104F7000B3F5966F00D008BD00224FF0FF30114608
:104F8000FEF7CAF8024A034B10601960704700BF71
:104F9000D41C0020D81C0020014B1878FDF7AAB8BB
:104FA0002722002038B5044600200D4601F094FA6F
:104FB000A8B3002001F0A6FA88B3FDF74FFE4FF02A
:104FC000FF3E6FF0004C174A821841F100039645EE
:104FD0007CEB03013CBF72466346134803F020F8A4
:104FE000E8B1002001F078FA58B900214FF0FF3005
:104FF00000F0BAFC6FF002040B4803F005F82046FD
:1050000038BD002001F07EFA0028EED021462A4665
:10501000002001F081FA04460028EDD1EAE76FF0A4
:105020000204ECE740420F00FC21002008B5FDF728
:1050300015FE4FF0FF3E6FF0004C0F4A821841F111
:10504000000396457CEB03013CBF724663460B4868
:1050500002F0E6FF70B14FF0FF30002100F084FC59
:10506000002001F071FA0028F5D1BDE8084003489E
:1050700002F0CABF08BD00BF40420F00FC21002063
:105080002DE9F84380460F46FDF7E8FD4FF0FF3568
:105090006FF00044334A821841F10003954274EBEB
:1050A00003013CBF2A4623462F4802F0B9FF08B946
:1050B000BDE8F883002001F00FFA002847D0002F48
:1050C00040DD0025DFF8A890284E13E0224600209E
:1050D00001F080FA002104464FF0FF3000F044FC5C
:1050E000002001F031FAFDF7B9FDC9E900012544BE
:1050F000AF4227DD002001F08DFA7C1B8442A8BF5F
:10510000044608EB0501002CE0D121464FF0FF30AA
:1051100000F02AFC204601F017FA204601F0DCF9E5
:1051200080B1204601F076FA0028E1D1FDF796FD26
:10513000D9F80030D9F804209B1942F100028342CB
:105140008A41D5D20848BDE8F84302F05DBF00208F
:105150000021074BC3E900010348BDE8F84302F012
:1051600053BF00BF40420F00FC21002020A10700D8
:105170008815002030B5002185B02E4802F058FF78
:10518000F0B92D4B1A68CAB1EFF3108172B6D2E8AC
:10519000CF5F0124002DFAD1C2E8454F002DF6D192
:1051A000BFF35F8F254C1D6822785960D3B201226E
:1051B0002270C5E88F0F81F31088CBB105B030BDE8
:1051C00000214FF0FF3000F0CFFB002001F09AF9F2
:1051D0000446184802F018FF002CEFD0184B1B684B
:1051E000002BEBD0174A106805B0BDE830401847D7
:1051F000FDF75AFB0446FDF731FD4FF0FF3C6FF021
:10520000004510F57A7241F10003944575EB0301F6
:1052100038BF2B464FF000014FF0010520460A4CE5
:1052200038BF6246CDE901150094FDF7A5FB05B036
:1052300030BD00BFFC210020C82100202822002012
:10524000D41C0020D81C00204D52001070B51A4B01
:105250001A6812B3EFF3108172B6D2E8CF4F012073
:10526000002CFAD1C2E8440F002CF6D1BFF35F8FB7
:105270000022124C186859602270C0E88F2F81F309
:1052800010880F4E002430780025FCF723FF68B902
:10529000002400252046294670BD094E4FF47A743B
:1052A00030780025FCF716FF0028F1D03078FCF7A5
:1052B00021FF2046294670BDC82100202822002059
:1052C000272200204FF0504330B585B01C68FDF711
:1052D000EBFAFDF7B1FBA04202D0002005B030BDD3
:1052E00000212A4B08461B7801F052FC284803682D
:1052F000002B47D00120FDF791F80346254C2649A5
:10530000C0B22370FCF712FF20780121FCF7CCFE1D
:105310000E20FCF7FBFE40BB204B0125C3E900003B
:10532000FDF7C2FA0446FDF799FC4FF0FF3E6FF01F
:10533000004C10F57A7241F1000396457CEB0301B5
:105340004FF000012046164C3CBF72466346CDE943
:1053500001150094FDF710FB0028BEDB0121114868
:10536000FFF7F2FC012005B030BD0120FCF76AFE1A
:1053700001460A48FDF7B0F800220E200A49FCF762
:1053800005FFEBE7FDF78CF8B4E700BF3C9A00108F
:10539000FC2100202722002075510010C821002088
:1053A0004D520010840E0020994F001000487047A5
:1053B000A8990010004870475499001038B5184B50
:1053C00004461A780AB344B940F209424FF44173D3
:1053D000144D6A802B80134838BD052C1DD8124B04
:1053E000104D53F8241028460023013903E0132BF5
:1053F00020F8022F0ED011F8012F0133DBB2002A62
:10540000F5D15B0043F44073E4E71121184600F046
:1054100025F8D8E74FF44A73DCE7002038BD00BF19
:10542000082200200C1D00203C99001000B545F218
:1054300047308BB0FDF764FE01220346092101A825
:105440009847054A05AB03A813F8011D834202F8EB
:10545000011FF9D10BB000BDEF210020012924D09C
:1054600010B501F1FF3E0021114C00F1FF3CCA4391
:105470004B08E35C02F001029200134103F00F02BB
:105480001346092A01F10101D4BF30333733714586
:105490000CF8013F05D01029E9D10023103003702A
:1054A00010BD00230844037010BD00230370704733
:1054B000F0210020F0B4002600F07F041B4D6300B3
:1054C00003EBD01305EB43139870C009DA7680F034
:1054D00001021983DE705A70E300A8B9144A04333C
:1054E00005EB84119F188F609E503CB90023114A30
:1054F00005EB4010C2604360F0BC70470E4BE40007
:1055000023444B60F0BC7047094A05EB84111344F7
:105510008B6242F83460002CE8D0E40004F1A0442F
:1055200004F580144C62F0BC704700BFB01D002031
:1055300080001050000110500400105070B500F0B1
:10554000F3F80C234026194CFF22A3670E201849BC
:10555000FCF71CFE32460021164802F019FA01251C
:10556000002380211348144A41844570068306872E
:1055700082604360136042F8043C80F8213080F878
:105580003B3043620D4B4FF00056C360C362803B1B
:10559000836202F025FD4FF480320949094B2564EE
:1055A000E664C4F89010DA64284670BD000011501B
:1055B00075030020B01D0020840010500001105021
:1055C00010D001000020115001210E20FCF76CBD0D
:1055D00000220248114600F0C7B800BFD01D0020CD
:1055E000044B197021B14FF40032034BC3F89020E3
:1055F000704700BF1D220020002011500B785B0671
:1056000002D14B78052B00D070474B88014ADBB2A2
:105610001360704700001150CA7802F00302012A9B
:1056200036D0F8B58C78898804F07F052046C1F320
:105630000A01FFF73FFF0DB90120F8BD174E6D00BD
:1056400005EBD41306EB43131A8B1549DB7E3F326F
:10565000022B22F03F020B6808BF52001A44E409F3
:105660000A6010492F1906EB47178A42FB6011D8D0
:10567000254406EB4515E97E83F0A04383F48013AF
:105680006A6843EA816343F0004313600120F8BD78
:1056900000207047FDF780FDFB68E9E7B01D0020A2
:1056A000C4210020FF0F105002F09ABC8C4608B5B0
:1056B000114607481A460CF07F034FEADC1C0CEB3E
:1056C000430C00EB4C1000F04FF8012008BD00BF68
:1056D000B01D002011F07F0205D100290CBF02206F
:1056E0000120064B9866C909054B01EB420003EB0C
:1056F00040104FF40062002102F08EBC00201150D7
:10570000B01D002011F07F0300D170470022054832
:105710005B0003EBD11300EB43106FF40061C27028
:1057200002F07ABCB01D00204FF0805209480A49AF
:1057300008B50A4B02600A609968C94311F08051AC
:10574000FAD14FF48052064802F022F90922054BA3
:105750005A6708BD002002400030024000000240AD
:10576000000010500000115000234FF0010C10B544
:1057700080F81AC08282C3820161044602F034FCC0
:1057800020B14FF40032074BC3F89020204602F0BE
:105790004BFC10B10123237710BD2046BDE810401B
:1057A00002F02ABC002011502DE9F04100241D4ECA
:1057B000054623463278DFF878801B4F0DE03B68C2
:1057C00013EB441324D0DB68284698473278013421
:1057D000E4B2511CA142234606DBA242A3EB020322
:1057E000EDD808EB4313EEE7542200210F4802F0F6
:1057F000CFF84FF0FF330D482022041D4360C4E969
:105800000133E360FF21BDE8F041143002F0C0B87D
:105810004FF0E023D3F8F03DDB0700D500BEBDE834
:10582000F08100BF1C2200201C170020EC18002073
:10583000BC990010704700BF704700BF0020704740
:1058400000207047704700BF704700BF704700BF1F
:10585000704700BF024B5878003818BF01207047CE
:10586000EC180020024B1878C0F38000704700BF8E
:10587000EC1800202DE9F047DFF8E4A09AF800309A
:10588000FF2B56D10E4600293ED000215422074658
:10589000294802F07DF80022284C294B20461A7036
:1058A000FCF7FEFD274B28481C60284CFCF706FE41
:1058B000204601F069FD264A264B146023B1264894
:1058C000FFF74CFB254B18600024234D23462A7814
:1058D000DFF89090DFF884800EE0D8F8003013EB0A
:1058E000441311D05B687BB198472A780134E4B245
:1058F000511CA142234611DBA242EED89B1A09EBB0
:1059000043135B68002BEFD14FF0E023D3F8F03D59
:10591000DB0700D500BE0020BDE8F08731463846E1
:105920008AF80070FFF70AFE0028EDD03846FFF72E
:105930004BFE0120BDE8F087EC180020E4180020A1
:105940001E22002040190020B00E00209C0E0020D6
:10595000441900205D4F00101C2200201C1700205D
:10596000B80E0020BC9900102DE9F04FDFF8C89266
:105970008BB099F80030FF2B00F0F180A84CA94DB6
:10598000DFF8B0A2DFF8B4B226687369EFF31082D3
:1059900072B6D3E8CF0F01210028FAD1C3E8401F27
:1059A0000028F6D1BFF35F8FB261304607A901F03E
:1059B00091FB00237269C2E88F3FB36983F31088BB
:1059C000002800F0CC809DF81D30013B072B00F231
:1059D0007D83DFE803F0A7B1959D8E350A04089B0F
:1059E000002BD1D009989847CEE79DF8201001F000
:1059F0007F0605EB460000EBD11090F8343023F021
:105A0000010380F8343090F8343023F0040380F838
:105A10003430002E00F0A680037D9AF800209342D7
:105A200080F09380804A126812EB431300F090805C
:105A30009E699DF82120099B9DF81C00B047A3E7B3
:105A40009BF80030002B00F083809BF80030013B76
:105A5000DBB28BF800309BF8003003F0FF00002B26
:105A600092D1704F9DF81C803B7843F001033B704E
:105A700097F8343060F3000387F8343097F8343007
:105A800060F3820387F8343097F8353060F3000311
:105A900087F8353097F8353060F3820387F8353072
:105AA00000F070FC9DF8203003F06002602A6CD09A
:105AB000402A7CD003F01F03012B00F0C180022B91
:105AC00000F08180002B60D1202A00F0E981002ABB
:105AD0005BD19DF82130092B57D8DFE813F0B001D6
